{
  "contractName": "MoroccoSwapFeeTransfer",
  "abi": [
    {
      "inputs": [
        {
          "internalType": "address",
          "name": "_factory",
          "type": "address"
        },
        {
          "internalType": "address",
          "name": "_router",
          "type": "address"
        },
        {
          "internalType": "address",
          "name": "_feeSetter",
          "type": "address"
        }
      ],
      "stateMutability": "nonpayable",
      "type": "constructor"
    },
    {
      "inputs": [],
      "name": "DEADADDRESS",
      "outputs": [
        {
          "internalType": "address",
          "name": "",
          "type": "address"
        }
      ],
      "stateMutability": "view",
      "type": "function"
    },
    {
      "inputs": [],
      "name": "PERCENT100",
      "outputs": [
        {
          "internalType": "uint256",
          "name": "",
          "type": "uint256"
        }
      ],
      "stateMutability": "view",
      "type": "function"
    },
    {
      "inputs": [],
      "name": "antiBank",
      "outputs": [
        {
          "internalType": "address",
          "name": "",
          "type": "address"
        }
      ],
      "stateMutability": "view",
      "type": "function"
    },
    {
      "inputs": [],
      "name": "bankFee",
      "outputs": [
        {
          "internalType": "uint256",
          "name": "",
          "type": "uint256"
        }
      ],
      "stateMutability": "view",
      "type": "function"
    },
    {
      "inputs": [],
      "name": "blockReward",
      "outputs": [
        {
          "internalType": "address",
          "name": "",
          "type": "address"
        }
      ],
      "stateMutability": "view",
      "type": "function"
    },
    {
      "inputs": [],
      "name": "blockRewardFee",
      "outputs": [
        {
          "internalType": "uint256",
          "name": "",
          "type": "uint256"
        }
      ],
      "stateMutability": "view",
      "type": "function"
    },
    {
      "inputs": [],
      "name": "btcxBank",
      "outputs": [
        {
          "internalType": "address",
          "name": "",
          "type": "address"
        }
      ],
      "stateMutability": "view",
      "type": "function"
    },
    {
      "inputs": [],
      "name": "computation",
      "outputs": [
        {
          "internalType": "address",
          "name": "",
          "type": "address"
        }
      ],
      "stateMutability": "view",
      "type": "function"
    },
    {
      "inputs": [],
      "name": "computationFee",
      "outputs": [
        {
          "internalType": "uint256",
          "name": "",
          "type": "uint256"
        }
      ],
      "stateMutability": "view",
      "type": "function"
    },
    {
      "inputs": [],
      "name": "ethxBank",
      "outputs": [
        {
          "internalType": "address",
          "name": "",
          "type": "address"
        }
      ],
      "stateMutability": "view",
      "type": "function"
    },
    {
      "inputs": [],
      "name": "factory",
      "outputs": [
        {
          "internalType": "address",
          "name": "",
          "type": "address"
        }
      ],
      "stateMutability": "view",
      "type": "function"
    },
    {
      "inputs": [],
      "name": "farm",
      "outputs": [
        {
          "internalType": "address",
          "name": "",
          "type": "address"
        }
      ],
      "stateMutability": "view",
      "type": "function"
    },
    {
      "inputs": [],
      "name": "feeSetter",
      "outputs": [
        {
          "internalType": "address",
          "name": "",
          "type": "address"
        }
      ],
      "stateMutability": "view",
      "type": "function"
    },
    {
      "inputs": [],
      "name": "goldxBank",
      "outputs": [
        {
          "internalType": "address",
          "name": "",
          "type": "address"
        }
      ],
      "stateMutability": "view",
      "type": "function"
    },
    {
      "inputs": [],
      "name": "hotspot",
      "outputs": [
        {
          "internalType": "address",
          "name": "",
          "type": "address"
        }
      ],
      "stateMutability": "view",
      "type": "function"
    },
    {
      "inputs": [],
      "name": "ligaMatch",
      "outputs": [
        {
          "internalType": "address",
          "name": "",
          "type": "address"
        }
      ],
      "stateMutability": "view",
      "type": "function"
    },
    {
      "inputs": [],
      "name": "metaverse",
      "outputs": [
        {
          "internalType": "address",
          "name": "",
          "type": "address"
        }
      ],
      "stateMutability": "view",
      "type": "function"
    },
    {
      "inputs": [],
      "name": "metaverseFee",
      "outputs": [
        {
          "internalType": "uint256",
          "name": "",
          "type": "uint256"
        }
      ],
      "stateMutability": "view",
      "type": "function"
    },
    {
      "inputs": [],
      "name": "roulette",
      "outputs": [
        {
          "internalType": "address",
          "name": "",
          "type": "address"
        }
      ],
      "stateMutability": "view",
      "type": "function"
    },
    {
      "inputs": [],
      "name": "rouletteFee",
      "outputs": [
        {
          "internalType": "uint256",
          "name": "",
          "type": "uint256"
        }
      ],
      "stateMutability": "view",
      "type": "function"
    },
    {
      "inputs": [],
      "name": "router",
      "outputs": [
        {
          "internalType": "address",
          "name": "",
          "type": "address"
        }
      ],
      "stateMutability": "view",
      "type": "function"
    },
    {
      "inputs": [],
      "name": "sLigaMatchFee",
      "outputs": [
        {
          "internalType": "uint256",
          "name": "",
          "type": "uint256"
        }
      ],
      "stateMutability": "view",
      "type": "function"
    },
    {
      "inputs": [],
      "name": "sLockFee",
      "outputs": [
        {
          "internalType": "uint256",
          "name": "",
          "type": "uint256"
        }
      ],
      "stateMutability": "view",
      "type": "function"
    },
    {
      "inputs": [],
      "name": "sUSDTxFee",
      "outputs": [
        {
          "internalType": "uint256",
          "name": "",
          "type": "uint256"
        }
      ],
      "stateMutability": "view",
      "type": "function"
    },
    {
      "inputs": [],
      "name": "sblockRewardFee",
      "outputs": [
        {
          "internalType": "uint256",
          "name": "",
          "type": "uint256"
        }
      ],
      "stateMutability": "view",
      "type": "function"
    },
    {
      "inputs": [],
      "name": "scomputationFee",
      "outputs": [
        {
          "internalType": "uint256",
          "name": "",
          "type": "uint256"
        }
      ],
      "stateMutability": "view",
      "type": "function"
    },
    {
      "inputs": [],
      "name": "sfarmFee",
      "outputs": [
        {
          "internalType": "uint256",
          "name": "",
          "type": "uint256"
        }
      ],
      "stateMutability": "view",
      "type": "function"
    },
    {
      "inputs": [],
      "name": "shotspotFee",
      "outputs": [
        {
          "internalType": "uint256",
          "name": "",
          "type": "uint256"
        }
      ],
      "stateMutability": "view",
      "type": "function"
    },
    {
      "inputs": [],
      "name": "smetaverseFee",
      "outputs": [
        {
          "internalType": "uint256",
          "name": "",
          "type": "uint256"
        }
      ],
      "stateMutability": "view",
      "type": "function"
    },
    {
      "inputs": [],
      "name": "srouletteFee",
      "outputs": [
        {
          "internalType": "uint256",
          "name": "",
          "type": "uint256"
        }
      ],
      "stateMutability": "view",
      "type": "function"
    },
    {
      "inputs": [],
      "name": "sstorageFee",
      "outputs": [
        {
          "internalType": "uint256",
          "name": "",
          "type": "uint256"
        }
      ],
      "stateMutability": "view",
      "type": "function"
    },
    {
      "inputs": [],
      "name": "storageFee",
      "outputs": [
        {
          "internalType": "uint256",
          "name": "",
          "type": "uint256"
        }
      ],
      "stateMutability": "view",
      "type": "function"
    },
    {
      "inputs": [],
      "name": "storageprovider",
      "outputs": [
        {
          "internalType": "address",
          "name": "",
          "type": "address"
        }
      ],
      "stateMutability": "view",
      "type": "function"
    },
    {
      "inputs": [],
      "name": "swaptotalFee",
      "outputs": [
        {
          "internalType": "uint256",
          "name": "",
          "type": "uint256"
        }
      ],
      "stateMutability": "view",
      "type": "function"
    },
    {
      "inputs": [],
      "name": "totalFee",
      "outputs": [
        {
          "internalType": "uint256",
          "name": "",
          "type": "uint256"
        }
      ],
      "stateMutability": "view",
      "type": "function"
    },
    {
      "inputs": [],
      "name": "usdtxBank",
      "outputs": [
        {
          "internalType": "address",
          "name": "",
          "type": "address"
        }
      ],
      "stateMutability": "view",
      "type": "function"
    },
    {
      "inputs": [
        {
          "internalType": "address",
          "name": "lp",
          "type": "address"
        },
        {
          "internalType": "address",
          "name": "token",
          "type": "address"
        },
        {
          "internalType": "uint256",
          "name": "amount",
          "type": "uint256"
        }
      ],
      "name": "takeSwapFee",
      "outputs": [
        {
          "internalType": "uint256",
          "name": "",
          "type": "uint256"
        }
      ],
      "stateMutability": "nonpayable",
      "type": "function"
    },
    {
      "inputs": [
        {
          "internalType": "address",
          "name": "_token0",
          "type": "address"
        },
        {
          "internalType": "address",
          "name": "_token1",
          "type": "address"
        },
        {
          "internalType": "uint256",
          "name": "_amount0",
          "type": "uint256"
        },
        {
          "internalType": "uint256",
          "name": "_amount1",
          "type": "uint256"
        }
      ],
      "name": "takeLiquidityFee",
      "outputs": [],
      "stateMutability": "nonpayable",
      "type": "function"
    },
    {
      "inputs": [
        {
          "internalType": "address",
          "name": "_roulette",
          "type": "address"
        },
        {
          "internalType": "address",
          "name": "_farm",
          "type": "address"
        },
        {
          "internalType": "address[5]",
          "name": "_bank",
          "type": "address[5]"
        },
        {
          "internalType": "address",
          "name": "_storageprovider",
          "type": "address"
        },
        {
          "internalType": "address",
          "name": "_computation",
          "type": "address"
        },
        {
          "internalType": "address",
          "name": "_metaverse",
          "type": "address"
        },
        {
          "internalType": "address",
          "name": "_hotspot",
          "type": "address"
        },
        {
          "internalType": "address",
          "name": "_ligaMatch",
          "type": "address"
        },
        {
          "internalType": "address",
          "name": "_blockReward",
          "type": "address"
        }
      ],
      "name": "configure",
      "outputs": [],
      "stateMutability": "nonpayable",
      "type": "function"
    }
  ],
  "bytecode": "0x60806040526103e8600f556101f46010556109c46011556103e86012556109c46013556103e86014556130d46015556103846016556101f460175561012c60185560326019556064601a5561012c601b556032601c556096601d556064601e556032601f556109c460205534801561007657600080fd5b50604051612ebd380380612ebd8339818101604052606081101561009957600080fd5b81019080805190602001909291908051906020019092919080519060200190929190505050826000806101000a81548173ffffffffffffffffffffffffffffffffffffffff021916908373ffffffffffffffffffffffffffffffffffffffff16021790555081600160006101000a81548173ffffffffffffffffffffffffffffffffffffffff021916908373ffffffffffffffffffffffffffffffffffffffff16021790555080602160006101000a81548173ffffffffffffffffffffffffffffffffffffffff021916908373ffffffffffffffffffffffffffffffffffffffff160217905550505050612d2b806101926000396000f3fe608060405234801561001057600080fd5b506004361061023c5760003560e01c80638103246c1161013b578063c94f428b116100b8578063f200670d1161007c578063f200670d14610845578063f47c608714610879578063f887ea4014610897578063f8d028b7146108cb578063fb9aba68146108e95761023c565b8063c94f428b14610757578063dc30eac514610775578063e5d57420146107a9578063e713f127146107dd578063f072dc8f146108115761023c565b8063b766a078116100ff578063b766a07814610695578063bc26e641146106b3578063beec2ebf146106d1578063c45a0155146106ef578063c5444410146107235761023c565b80638103246c146105d357806387cf3ef4146105f1578063995c18bf146106255780639ffd828614610643578063b0392fe3146106775761023c565b806327ede856116101c9578063606294861161018d57806360629486146105275780636b5a445f146105455780636dd14073146105635780637346ecad14610581578063773f0b18146105b55761023c565b806327ede85614610465578063304400341461049957806336e9332d146104b7578063388093a3146104eb5780634f370c57146105095761023c565b806312955c131161021057806312955c13146102e557806315afb1531461035d5780631803e284146103915780631ccd13fd146103c55780631df4ccfc146104475761023c565b8062d2d656146102415780630285e02c1461025f5780630ac168a11461027d5780630cfe3b58146102b1575b600080fd5b610249610a4f565b6040518082815260200191505060405180910390f35b610267610a55565b6040518082815260200191505060405180910390f35b610285610a5b565b604051808273ffffffffffffffffffffffffffffffffffffffff16815260200191505060405180910390f35b6102b9610a81565b604051808273ffffffffffffffffffffffffffffffffffffffff16815260200191505060405180910390f35b61035b600480360360808110156102fb57600080fd5b81019080803573ffffffffffffffffffffffffffffffffffffffff169060200190929190803573ffffffffffffffffffffffffffffffffffffffff1690602001909291908035906020019092919080359060200190929190505050610aa7565b005b6103656116c8565b604051808273ffffffffffffffffffffffffffffffffffffffff16815260200191505060405180910390f35b6103996116ee565b604051808273ffffffffffffffffffffffffffffffffffffffff16815260200191505060405180910390f35b610431600480360360608110156103db57600080fd5b81019080803573ffffffffffffffffffffffffffffffffffffffff169060200190929190803573ffffffffffffffffffffffffffffffffffffffff169060200190929190803590602001909291905050506116f4565b6040518082815260200191505060405180910390f35b61044f611d30565b6040518082815260200191505060405180910390f35b61046d611d36565b604051808273ffffffffffffffffffffffffffffffffffffffff16815260200191505060405180910390f35b6104a1611d5c565b6040518082815260200191505060405180910390f35b6104bf611d62565b604051808273ffffffffffffffffffffffffffffffffffffffff16815260200191505060405180910390f35b6104f3611d88565b6040518082815260200191505060405180910390f35b610511611d8e565b6040518082815260200191505060405180910390f35b61052f611d94565b6040518082815260200191505060405180910390f35b61054d611d9a565b6040518082815260200191505060405180910390f35b61056b611da0565b6040518082815260200191505060405180910390f35b610589611da6565b604051808273ffffffffffffffffffffffffffffffffffffffff16815260200191505060405180910390f35b6105bd611dcc565b6040518082815260200191505060405180910390f35b6105db611dd2565b6040518082815260200191505060405180910390f35b6105f9611dd8565b604051808273ffffffffffffffffffffffffffffffffffffffff16815260200191505060405180910390f35b61062d611dfe565b6040518082815260200191505060405180910390f35b61064b611e04565b604051808273ffffffffffffffffffffffffffffffffffffffff16815260200191505060405180910390f35b61067f611e2a565b6040518082815260200191505060405180910390f35b61069d611e31565b6040518082815260200191505060405180910390f35b6106bb611e37565b6040518082815260200191505060405180910390f35b6106d9611e3d565b6040518082815260200191505060405180910390f35b6106f7611e43565b604051808273ffffffffffffffffffffffffffffffffffffffff16815260200191505060405180910390f35b61072b611e67565b604051808273ffffffffffffffffffffffffffffffffffffffff16815260200191505060405180910390f35b61075f611e8d565b6040518082815260200191505060405180910390f35b61077d611e93565b604051808273ffffffffffffffffffffffffffffffffffffffff16815260200191505060405180910390f35b6107b1611eb9565b604051808273ffffffffffffffffffffffffffffffffffffffff16815260200191505060405180910390f35b6107e5611edf565b604051808273ffffffffffffffffffffffffffffffffffffffff16815260200191505060405180910390f35b610819611f05565b604051808273ffffffffffffffffffffffffffffffffffffffff16815260200191505060405180910390f35b61084d611f2b565b604051808273ffffffffffffffffffffffffffffffffffffffff16815260200191505060405180910390f35b610881611f51565b6040518082815260200191505060405180910390f35b61089f611f57565b604051808273ffffffffffffffffffffffffffffffffffffffff16815260200191505060405180910390f35b6108d3611f7d565b6040518082815260200191505060405180910390f35b610a4d60048036036101a081101561090057600080fd5b81019080803573ffffffffffffffffffffffffffffffffffffffff169060200190929190803573ffffffffffffffffffffffffffffffffffffffff1690602001909291908060a001906005806020026040519081016040528092919082600560200280828437600081840152601f19601f8201169050808301925050505050509192919290803573ffffffffffffffffffffffffffffffffffffffff169060200190929190803573ffffffffffffffffffffffffffffffffffffffff169060200190929190803573ffffffffffffffffffffffffffffffffffffffff169060200190929190803573ffffffffffffffffffffffffffffffffffffffff169060200190929190803573ffffffffffffffffffffffffffffffffffffffff169060200190929190803573ffffffffffffffffffffffffffffffffffffffff169060200190929190505050611f83565b005b60145481565b601b5481565b600e60009054906101000a900473ffffffffffffffffffffffffffffffffffffffff1681565b600460009054906101000a900473ffffffffffffffffffffffffffffffffffffffff1681565b6000620f42409050610ab7612c8e565b6040518060a00160405280600460009054906101000a900473ffffffffffffffffffffffffffffffffffffffff1673ffffffffffffffffffffffffffffffffffffffff1673ffffffffffffffffffffffffffffffffffffffff168152602001600560009054906101000a900473ffffffffffffffffffffffffffffffffffffffff1673ffffffffffffffffffffffffffffffffffffffff1673ffffffffffffffffffffffffffffffffffffffff168152602001600660009054906101000a900473ffffffffffffffffffffffffffffffffffffffff1673ffffffffffffffffffffffffffffffffffffffff1673ffffffffffffffffffffffffffffffffffffffff168152602001600760009054906101000a900473ffffffffffffffffffffffffffffffffffffffff1673ffffffffffffffffffffffffffffffffffffffff1673ffffffffffffffffffffffffffffffffffffffff168152602001600860009054906101000a900473ffffffffffffffffffffffffffffffffffffffff1673ffffffffffffffffffffffffffffffffffffffff1673ffffffffffffffffffffffffffffffffffffffff168152509050610c6e612cb0565b610c9583610c87600f54886123f390919063ffffffff16565b61248890919063ffffffff16565b81600060068110610ca257fe5b602002018181525050610cd283610cc4601054886123f390919063ffffffff16565b61248890919063ffffffff16565b81600160068110610cdf57fe5b602002018181525050610d0f83610d01601154886123f390919063ffffffff16565b61248890919063ffffffff16565b81600260068110610d1c57fe5b602002018181525050610d4c83610d3e601254886123f390919063ffffffff16565b61248890919063ffffffff16565b81600360068110610d5957fe5b602002018181525050610d8983610d7b601354886123f390919063ffffffff16565b61248890919063ffffffff16565b81600460068110610d9657fe5b602002018181525050610dc683610db8601454886123f390919063ffffffff16565b61248890919063ffffffff16565b81600560068110610dd357fe5b602002018181525050610de4612cb0565b610e0b84610dfd600f54886123f390919063ffffffff16565b61248890919063ffffffff16565b81600060068110610e1857fe5b602002018181525050610e4884610e3a601054886123f390919063ffffffff16565b61248890919063ffffffff16565b81600160068110610e5557fe5b602002018181525050610e8584610e77601154886123f390919063ffffffff16565b61248890919063ffffffff16565b81600260068110610e9257fe5b602002018181525050610ec284610eb4601254886123f390919063ffffffff16565b61248890919063ffffffff16565b81600360068110610ecf57fe5b602002018181525050610eff84610ef1601354886123f390919063ffffffff16565b61248890919063ffffffff16565b81600460068110610f0c57fe5b602002018181525050610f3c84610f2e601454886123f390919063ffffffff16565b61248890919063ffffffff16565b81600560068110610f4957fe5b602002018181525050610f9088600260009054906101000a900473ffffffffffffffffffffffffffffffffffffffff1684600160068110610f8657fe5b60200201516124d2565b610fce87600260009054906101000a900473ffffffffffffffffffffffffffffffffffffffff1683600160068110610fc457fe5b60200201516124d2565b61100c88600e60009054906101000a900473ffffffffffffffffffffffffffffffffffffffff168460026006811061100257fe5b60200201516124d2565b61104a87600e60009054906101000a900473ffffffffffffffffffffffffffffffffffffffff168360026006811061104057fe5b60200201516124d2565b61108888600b60009054906101000a900473ffffffffffffffffffffffffffffffffffffffff168460036006811061107e57fe5b60200201516124d2565b6110c687600b60009054906101000a900473ffffffffffffffffffffffffffffffffffffffff16836003600681106110bc57fe5b60200201516124d2565b61110488600960009054906101000a900473ffffffffffffffffffffffffffffffffffffffff16846004600681106110fa57fe5b60200201516124d2565b61114287600960009054906101000a900473ffffffffffffffffffffffffffffffffffffffff168360046006811061113857fe5b60200201516124d2565b61118088600a60009054906101000a900473ffffffffffffffffffffffffffffffffffffffff168460056006811061117657fe5b60200201516124d2565b6111be87600a60009054906101000a900473ffffffffffffffffffffffffffffffffffffffff16836005600681106111b457fe5b60200201516124d2565b6111dc8888856000600581106111d057fe5b602002015189896126b5565b6111fa8888856001600581106111ee57fe5b602002015189896126b5565b61121888888560026005811061120c57fe5b602002015189896126b5565b61123688888560036005811061122a57fe5b602002015189896126b5565b61125488888560046005811061124857fe5b602002015189896126b5565b8260006005811061126157fe5b602002015173ffffffffffffffffffffffffffffffffffffffff1663451adf2b89898560006006811061129057fe5b6020020151856000600681106112a257fe5b60200201516040518563ffffffff1660e01b8152600401808573ffffffffffffffffffffffffffffffffffffffff1681526020018473ffffffffffffffffffffffffffffffffffffffff168152602001838152602001828152602001945050505050600060405180830381600087803b15801561131e57600080fd5b505af1158015611332573d6000803e3d6000fd5b505050508260016005811061134357fe5b602002015173ffffffffffffffffffffffffffffffffffffffff1663451adf2b89898560006006811061137257fe5b60200201518560006006811061138457fe5b60200201516040518563ffffffff1660e01b8152600401808573ffffffffffffffffffffffffffffffffffffffff1681526020018473ffffffffffffffffffffffffffffffffffffffff168152602001838152602001828152602001945050505050600060405180830381600087803b15801561140057600080fd5b505af1158015611414573d6000803e3d6000fd5b505050508260026005811061142557fe5b602002015173ffffffffffffffffffffffffffffffffffffffff1663451adf2b89898560006006811061145457fe5b60200201518560006006811061146657fe5b60200201516040518563ffffffff1660e01b8152600401808573ffffffffffffffffffffffffffffffffffffffff1681526020018473ffffffffffffffffffffffffffffffffffffffff168152602001838152602001828152602001945050505050600060405180830381600087803b1580156114e257600080fd5b505af11580156114f6573d6000803e3d6000fd5b505050508260036005811061150757fe5b602002015173ffffffffffffffffffffffffffffffffffffffff1663451adf2b89898560006006811061153657fe5b60200201518560006006811061154857fe5b60200201516040518563ffffffff1660e01b8152600401808573ffffffffffffffffffffffffffffffffffffffff1681526020018473ffffffffffffffffffffffffffffffffffffffff168152602001838152602001828152602001945050505050600060405180830381600087803b1580156115c457600080fd5b505af11580156115d8573d6000803e3d6000fd5b50505050826004600581106115e957fe5b602002015173ffffffffffffffffffffffffffffffffffffffff1663451adf2b89898560006006811061161857fe5b60200201518560006006811061162a57fe5b60200201516040518563ffffffff1660e01b8152600401808573ffffffffffffffffffffffffffffffffffffffff1681526020018473ffffffffffffffffffffffffffffffffffffffff168152602001838152602001828152602001945050505050600060405180830381600087803b1580156116a657600080fd5b505af11580156116ba573d6000803e3d6000fd5b505050505050505050505050565b600860009054906101000a900473ffffffffffffffffffffffffffffffffffffffff1681565b61dead81565b600080620f42409050611705612cd2565b61172c8261171e601654876123f390919063ffffffff16565b61248890919063ffffffff16565b816000600a811061173957fe5b6020020181815250506117698261175b601754876123f390919063ffffffff16565b61248890919063ffffffff16565b816001600a811061177657fe5b6020020181815250506117a682611798601854876123f390919063ffffffff16565b61248890919063ffffffff16565b816002600a81106117b357fe5b6020020181815250506117e3826117d5601954876123f390919063ffffffff16565b61248890919063ffffffff16565b816003600a81106117f057fe5b60200201818152505061182082611812601a54876123f390919063ffffffff16565b61248890919063ffffffff16565b816004600a811061182d57fe5b60200201818152505061185d8261184f601b54876123f390919063ffffffff16565b61248890919063ffffffff16565b816005600a811061186a57fe5b60200201818152505061189a8261188c601c54876123f390919063ffffffff16565b61248890919063ffffffff16565b816006600a81106118a757fe5b6020020181815250506118d7826118c9601d54876123f390919063ffffffff16565b61248890919063ffffffff16565b816007600a81106118e457fe5b60200201818152505061191482611906601e54876123f390919063ffffffff16565b61248890919063ffffffff16565b816008600a811061192157fe5b60200201818152505061195182611943601f54876123f390919063ffffffff16565b61248890919063ffffffff16565b816009600a811061195e57fe5b60200201818152505061199485600360009054906101000a900473ffffffffffffffffffffffffffffffffffffffff1686612a16565b600360009054906101000a900473ffffffffffffffffffffffffffffffffffffffff1673ffffffffffffffffffffffffffffffffffffffff16638c4c30f88787846000600a81106119e157fe5b60200201516040518463ffffffff1660e01b8152600401808473ffffffffffffffffffffffffffffffffffffffff1681526020018373ffffffffffffffffffffffffffffffffffffffff1681526020018281526020019350505050600060405180830381600087803b158015611a5657600080fd5b505af1158015611a6a573d6000803e3d6000fd5b50505050611a8c8561dead836001600a8110611a8257fe5b60200201516124d2565b611aca85600e60009054906101000a900473ffffffffffffffffffffffffffffffffffffffff16836002600a8110611ac057fe5b60200201516124d2565b611af785600560009054906101000a900473ffffffffffffffffffffffffffffffffffffffff1686612a16565b600560009054906101000a900473ffffffffffffffffffffffffffffffffffffffff1673ffffffffffffffffffffffffffffffffffffffff1663cfc59d8886836003600a8110611b4357fe5b60200201516040518363ffffffff1660e01b8152600401808373ffffffffffffffffffffffffffffffffffffffff16815260200182815260200192505050600060405180830381600087803b158015611b9b57600080fd5b505af1158015611baf573d6000803e3d6000fd5b50505050611bf185600260009054906101000a900473ffffffffffffffffffffffffffffffffffffffff16836004600a8110611be757fe5b60200201516124d2565b611c2f85600960009054906101000a900473ffffffffffffffffffffffffffffffffffffffff16836005600a8110611c2557fe5b60200201516124d2565b611c6d85600a60009054906101000a900473ffffffffffffffffffffffffffffffffffffffff16836006600a8110611c6357fe5b60200201516124d2565b611cab85600b60009054906101000a900473ffffffffffffffffffffffffffffffffffffffff16836007600a8110611ca157fe5b60200201516124d2565b611ce985600c60009054906101000a900473ffffffffffffffffffffffffffffffffffffffff16836008600a8110611cdf57fe5b60200201516124d2565b611d2785600d60009054906101000a900473ffffffffffffffffffffffffffffffffffffffff16836009600a8110611d1d57fe5b60200201516124d2565b50509392505050565b60155481565b600660009054906101000a900473ffffffffffffffffffffffffffffffffffffffff1681565b60175481565b600360009054906101000a900473ffffffffffffffffffffffffffffffffffffffff1681565b60185481565b60195481565b600f5481565b601c5481565b60205481565b600d60009054906101000a900473ffffffffffffffffffffffffffffffffffffffff1681565b60135481565b601e5481565b602160009054906101000a900473ffffffffffffffffffffffffffffffffffffffff1681565b60165481565b600c60009054906101000a900473ffffffffffffffffffffffffffffffffffffffff1681565b620f424081565b601d5481565b60125481565b601f5481565b60008054906101000a900473ffffffffffffffffffffffffffffffffffffffff1681565b600560009054906101000a900473ffffffffffffffffffffffffffffffffffffffff1681565b601a5481565b600a60009054906101000a900473ffffffffffffffffffffffffffffffffffffffff1681565b600960009054906101000a900473ffffffffffffffffffffffffffffffffffffffff1681565b600260009054906101000a900473ffffffffffffffffffffffffffffffffffffffff1681565b600760009054906101000a900473ffffffffffffffffffffffffffffffffffffffff1681565b600b60009054906101000a900473ffffffffffffffffffffffffffffffffffffffff1681565b60105481565b600160009054906101000a900473ffffffffffffffffffffffffffffffffffffffff1681565b60115481565b602160009054906101000a900473ffffffffffffffffffffffffffffffffffffffff1673ffffffffffffffffffffffffffffffffffffffff163373ffffffffffffffffffffffffffffffffffffffff1614612046576040517f08c379a000000000000000000000000000000000000000000000000000000000815260040180806020018281038252600f8152602001807f4f6e6c792066656520736574746572000000000000000000000000000000000081525060200191505060405180910390fd5b88600260006101000a81548173ffffffffffffffffffffffffffffffffffffffff021916908373ffffffffffffffffffffffffffffffffffffffff16021790555087600360006101000a81548173ffffffffffffffffffffffffffffffffffffffff021916908373ffffffffffffffffffffffffffffffffffffffff160217905550866000600581106120d557fe5b6020020151600460006101000a81548173ffffffffffffffffffffffffffffffffffffffff021916908373ffffffffffffffffffffffffffffffffffffffff1602179055508660016005811061212757fe5b6020020151600560006101000a81548173ffffffffffffffffffffffffffffffffffffffff021916908373ffffffffffffffffffffffffffffffffffffffff1602179055508660026005811061217957fe5b6020020151600660006101000a81548173ffffffffffffffffffffffffffffffffffffffff021916908373ffffffffffffffffffffffffffffffffffffffff160217905550866003600581106121cb57fe5b6020020151600760006101000a81548173ffffffffffffffffffffffffffffffffffffffff021916908373ffffffffffffffffffffffffffffffffffffffff1602179055508660046005811061221d57fe5b6020020151600860006101000a81548173ffffffffffffffffffffffffffffffffffffffff021916908373ffffffffffffffffffffffffffffffffffffffff16021790555085600960006101000a81548173ffffffffffffffffffffffffffffffffffffffff021916908373ffffffffffffffffffffffffffffffffffffffff16021790555084600a60006101000a81548173ffffffffffffffffffffffffffffffffffffffff021916908373ffffffffffffffffffffffffffffffffffffffff16021790555083600b60006101000a81548173ffffffffffffffffffffffffffffffffffffffff021916908373ffffffffffffffffffffffffffffffffffffffff16021790555082600c60006101000a81548173ffffffffffffffffffffffffffffffffffffffff021916908373ffffffffffffffffffffffffffffffffffffffff16021790555081600d60006101000a81548173ffffffffffffffffffffffffffffffffffffffff021916908373ffffffffffffffffffffffffffffffffffffffff16021790555080600e60006101000a81548173ffffffffffffffffffffffffffffffffffffffff021916908373ffffffffffffffffffffffffffffffffffffffff160217905550505050505050505050565b600080821480612410575082828385029250828161240d57fe5b04145b612482576040517f08c379a00000000000000000000000000000000000000000000000000000000081526004018080602001828103825260148152602001807f64732d6d6174682d6d756c2d6f766572666c6f7700000000000000000000000081525060200191505060405180910390fd5b92915050565b60006124ca83836040518060400160405280601a81526020017f536166654d6174683a206469766973696f6e206279207a65726f000000000000815250612bc8565b905092915050565b600060608473ffffffffffffffffffffffffffffffffffffffff1663a9059cbb8585604051602401808373ffffffffffffffffffffffffffffffffffffffff168152602001828152602001925050506040516020818303038152906040529060e01b6020820180517bffffffffffffffffffffffffffffffffffffffffffffffffffffffff83818316178352505050506040518082805190602001908083835b602083106125955780518252602082019150602081019050602083039250612572565b6001836020036101000a0380198251168184511680821785525050505050509050019150506000604051808303816000865af19150503d80600081146125f7576040519150601f19603f3d011682016040523d82523d6000602084013e6125fc565b606091505b509150915081801561263c575060008151148061263b575080806020019051602081101561262957600080fd5b81019080805190602001909291905050505b5b6126ae576040517f08c379a000000000000000000000000000000000000000000000000000000000815260040180806020018281038252601f8152602001807f5472616e7366657248656c7065723a205452414e534645525f4641494c45440081525060200191505060405180910390fd5b5050505050565b600073ffffffffffffffffffffffffffffffffffffffff168573ffffffffffffffffffffffffffffffffffffffff161415806127af5750818573ffffffffffffffffffffffffffffffffffffffff1663dd62ed3e30866040518363ffffffff1660e01b8152600401808373ffffffffffffffffffffffffffffffffffffffff1681526020018273ffffffffffffffffffffffffffffffffffffffff1681526020019250505060206040518083038186803b15801561277257600080fd5b505afa158015612786573d6000803e3d6000fd5b505050506040513d602081101561279c57600080fd5b8101908080519060200190929190505050105b15612862578473ffffffffffffffffffffffffffffffffffffffff1663095ea7b384846040518363ffffffff1660e01b8152600401808373ffffffffffffffffffffffffffffffffffffffff16815260200182815260200192505050602060405180830381600087803b15801561282557600080fd5b505af1158015612839573d6000803e3d6000fd5b505050506040513d602081101561284f57600080fd5b8101908080519060200190929190505050505b600073ffffffffffffffffffffffffffffffffffffffff168473ffffffffffffffffffffffffffffffffffffffff1614158061295c5750808473ffffffffffffffffffffffffffffffffffffffff1663dd62ed3e30866040518363ffffffff1660e01b8152600401808373ffffffffffffffffffffffffffffffffffffffff1681526020018273ffffffffffffffffffffffffffffffffffffffff1681526020019250505060206040518083038186803b15801561291f57600080fd5b505afa158015612933573d6000803e3d6000fd5b505050506040513d602081101561294957600080fd5b8101908080519060200190929190505050105b15612a0f578373ffffffffffffffffffffffffffffffffffffffff1663095ea7b384836040518363ffffffff1660e01b8152600401808373ffffffffffffffffffffffffffffffffffffffff16815260200182815260200192505050602060405180830381600087803b1580156129d257600080fd5b505af11580156129e6573d6000803e3d6000fd5b505050506040513d60208110156129fc57600080fd5b8101908080519060200190929190505050505b5050505050565b600073ffffffffffffffffffffffffffffffffffffffff168373ffffffffffffffffffffffffffffffffffffffff16141580612b105750808373ffffffffffffffffffffffffffffffffffffffff1663dd62ed3e30856040518363ffffffff1660e01b8152600401808373ffffffffffffffffffffffffffffffffffffffff1681526020018273ffffffffffffffffffffffffffffffffffffffff1681526020019250505060206040518083038186803b158015612ad357600080fd5b505afa158015612ae7573d6000803e3d6000fd5b505050506040513d6020811015612afd57600080fd5b8101908080519060200190929190505050105b15612bc3578273ffffffffffffffffffffffffffffffffffffffff1663095ea7b383836040518363ffffffff1660e01b8152600401808373ffffffffffffffffffffffffffffffffffffffff16815260200182815260200192505050602060405180830381600087803b158015612b8657600080fd5b505af1158015612b9a573d6000803e3d6000fd5b505050506040513d6020811015612bb057600080fd5b8101908080519060200190929190505050505b505050565b60008083118290612c74576040517f08c379a00000000000000000000000000000000000000000000000000000000081526004018080602001828103825283818151815260200191508051906020019080838360005b83811015612c39578082015181840152602081019050612c1e565b50505050905090810190601f168015612c665780820380516001836020036101000a031916815260200191505b509250505060405180910390fd5b506000838581612c8057fe5b049050809150509392505050565b6040518060a00160405280600590602082028036833780820191505090505090565b6040518060c00160405280600690602082028036833780820191505090505090565b604051806101400160405280600a9060208202803683378082019150509050509056fea26469706673582212204332eb3138a59fa7832cb6cd4ffcd081e395e909863b33004b5d8dc7921bc7f964736f6c634300060c0033",
  "immutableReferences": {},
  "source": "// SPDX-License-Identifier: MIT\npragma solidity 0.6.12;\n\nimport \"./interfaces/IMoroccoSwapV2Factory.sol\";\nimport \"./interfaces/IBank.sol\";\nimport \"./libraries/TransferHelper.sol\";\nimport \"./libraries/SafeMath.sol\";\n\n\ncontract MoroccoSwapFeeTransfer {\n    using SafeMathMoroccoSwap for uint256;\n\n    uint256 public constant PERCENT100 = 1000000;\n    address public constant DEADADDRESS = 0x000000000000000000000000000000000000dEaD;\n\n    address public factory;\n    address public router;\n\n    address public roulette;\n    address public farm;\n    // Bank address\n    address public antiBank;\n    address public usdtxBank;\n    address public goldxBank;\n    address public btcxBank;\n    address public ethxBank;\n\n    address public storageprovider;\n    address public computation;\n    address public metaverse;\n    address public hotspot;\n    address public ligaMatch;\n    address public blockReward;\n\n    //Inout fee\n    uint256 public bankFee = 1000;\n    uint256 public rouletteFee = 500;\n    uint256 public blockRewardFee = 2500;\n    uint256 public metaverseFee = 1000;\n    uint256 public storageFee = 2500;\n    uint256 public computationFee = 1000;\n    uint256 public totalFee = 12500;\n\n    // Swap fee\n    uint256 public sfarmFee = 900;\n    uint256 public sLockFee = 500;\n    uint256 public sblockRewardFee = 300;\n    uint256 public sUSDTxFee = 50;\n    uint256 public srouletteFee = 100;\n    uint256 public sstorageFee = 300;\n    uint256 public scomputationFee = 50;\n    uint256 public smetaverseFee = 150;\n    uint256 public shotspotFee = 100;\n    uint256 public sLigaMatchFee = 50;\n\n    uint256 public swaptotalFee = 2500;\n\n    address public feeSetter;\n\n    constructor(\n        address _factory,\n        address _router,\n        address _feeSetter\n    ) public {\n        factory = _factory;\n        router = _router;\n        feeSetter = _feeSetter;\n    }\n\n    function takeSwapFee(\n        address lp,\n        address token,\n        uint256 amount\n    ) public returns (uint256) {\n        uint256 PERCENT = PERCENT100;\n\n        uint256[10] memory fees;\n   \n        fees[0] = amount.mul(sfarmFee).div(PERCENT); //_sFarmFee\n        fees[1] = amount.mul(sLockFee).div(PERCENT); //_sLockFee\n        fees[2] = amount.mul(sblockRewardFee).div(PERCENT); //_sblockRewardFee\n        fees[3] = amount.mul(sUSDTxFee).div(PERCENT); //_sUSDTxFee\n        fees[4] = amount.mul(srouletteFee).div(PERCENT); //_sRouletteFee\n        fees[5] = amount.mul(sstorageFee).div(PERCENT); //_sstorageFee\n        fees[6] = amount.mul(scomputationFee).div(PERCENT); //_scomputationFee\n        fees[7] = amount.mul(smetaverseFee).div(PERCENT); //_smetaverseFee\n        fees[8] = amount.mul(shotspotFee).div(PERCENT); //_shotspotFee\n        fees[9] = amount.mul(sLigaMatchFee).div(PERCENT); //_sLigaMatchFee\n\n        _approvetokens(token, farm, amount);\n        IFarm(farm).addrewardtoken(lp, token, fees[0]);\n\n        TransferHelper.safeTransfer(token, DEADADDRESS, fees[1]);\n        TransferHelper.safeTransfer(token, blockReward, fees[2]);\n\n        _approvetokens(token, usdtxBank, amount);\n        IBank(usdtxBank).addrewardtoken(token, fees[3]);\n        TransferHelper.safeTransfer(token, roulette, fees[4]);\n\n        TransferHelper.safeTransfer(token, storageprovider, fees[5]);\n        TransferHelper.safeTransfer(token, computation, fees[6]);\n        TransferHelper.safeTransfer(token, metaverse, fees[7]);\n        TransferHelper.safeTransfer(token, hotspot, fees[8]);\n        TransferHelper.safeTransfer(token, ligaMatch, fees[9]);\n\n    }\n\n    function takeLiquidityFee(\n        address _token0,\n        address _token1,\n        uint256 _amount0,\n        uint256 _amount1\n    ) public {\n        uint256 PERCENT = PERCENT100;\n\n        address[5] memory bankFarm = [\n            antiBank,\n            usdtxBank,\n            goldxBank,\n            btcxBank,\n            ethxBank\n                    ];\n\n\n        uint256[6] memory bankFee0;\n        bankFee0[0] = _amount0.mul(bankFee).div(PERCENT);\n        bankFee0[1] = _amount0.mul(rouletteFee).div(PERCENT);\n        bankFee0[2] = _amount0.mul(blockRewardFee).div(PERCENT);\n        bankFee0[3] = _amount0.mul(metaverseFee).div(PERCENT);\n        bankFee0[4] = _amount0.mul(storageFee).div(PERCENT);\n        bankFee0[5] = _amount0.mul(computationFee).div(PERCENT);\n     \n\n        uint256[6] memory bankFee1;\n        bankFee1[0] = _amount1.mul(bankFee).div(PERCENT);\n        bankFee1[1] = _amount1.mul(rouletteFee).div(PERCENT);\n        bankFee1[2] = _amount1.mul(blockRewardFee).div(PERCENT);\n        bankFee1[3] = _amount1.mul(metaverseFee).div(PERCENT);\n        bankFee1[4] = _amount1.mul(storageFee).div(PERCENT);\n        bankFee1[5] = _amount1.mul(computationFee).div(PERCENT);\n\n        TransferHelper.safeTransfer(_token0, roulette, bankFee0[1]);\n        TransferHelper.safeTransfer(_token1, roulette, bankFee1[1]);\n\n        TransferHelper.safeTransfer(_token0, blockReward, bankFee0[2]);\n        TransferHelper.safeTransfer(_token1, blockReward, bankFee1[2]);\n\n        TransferHelper.safeTransfer(_token0, metaverse, bankFee0[3]);\n        TransferHelper.safeTransfer(_token1, metaverse, bankFee1[3]);\n\n        TransferHelper.safeTransfer(_token0, storageprovider, bankFee0[4]);\n        TransferHelper.safeTransfer(_token1, storageprovider, bankFee1[4]);\n\n        TransferHelper.safeTransfer(_token0, computation, bankFee0[5]);\n        TransferHelper.safeTransfer(_token1, computation, bankFee1[5]);\n\n        _approvetoken(_token0, _token1, bankFarm[0], _amount0, _amount1);\n        _approvetoken(_token0, _token1, bankFarm[1], _amount0, _amount1);\n        _approvetoken(_token0, _token1, bankFarm[2], _amount0, _amount1);\n        _approvetoken(_token0, _token1, bankFarm[3], _amount0, _amount1);\n        _approvetoken(_token0, _token1, bankFarm[4], _amount0, _amount1);\n\n        IBank(bankFarm[0]).addReward(\n            _token0,\n            _token1,\n            bankFee0[0],\n            bankFee1[0]\n        );\n        IBank(bankFarm[1]).addReward(\n            _token0,\n            _token1,\n            bankFee0[0],\n            bankFee1[0]\n        );\n        IBank(bankFarm[2]).addReward(\n            _token0,\n            _token1,\n            bankFee0[0],\n            bankFee1[0]\n        );\n        IBank(bankFarm[3]).addReward(\n            _token0,\n            _token1,\n            bankFee0[0],\n            bankFee1[0]\n        );\n        IBank(bankFarm[4]).addReward(\n            _token0,\n            _token1,\n            bankFee0[0],\n            bankFee1[0]\n        );\n\n    }\n\n    function _approvetoken(\n        address _token0,\n        address _token1,\n        address _receiver,\n        uint256 _amount0,\n        uint256 _amount1\n    ) private {\n        if (\n            _token0 != address(0x000) ||\n            IERC20(_token0).allowance(address(this), _receiver) < _amount0\n        ) {\n            IERC20(_token0).approve(_receiver, _amount0);\n        }\n        if (\n            _token1 != address(0x000) ||\n            IERC20(_token1).allowance(address(this), _receiver) < _amount1\n        ) {\n            IERC20(_token1).approve(_receiver, _amount1);\n        }\n    }\n\n    function _approvetokens(\n        address _token,\n        address _receiver,\n        uint256 _amount\n    ) private {\n        if (\n            _token != address(0x000) ||\n            IERC20(_token).allowance(address(this), _receiver) < _amount\n        ) {\n            IERC20(_token).approve(_receiver, _amount);\n        }\n    }\n\n    function configure(\n        address _roulette,\n        address _farm,\n        address[5] memory _bank,\n        address  _storageprovider,\n        address  _computation,\n        address  _metaverse,\n        address  _hotspot,\n        address  _ligaMatch,\n        address  _blockReward\n    ) external {\n        require(msg.sender == feeSetter, \"Only fee setter\");\n\n        roulette = _roulette;\n        farm = _farm;\n        antiBank = _bank[0];\n        usdtxBank = _bank[1];\n        goldxBank = _bank[2];\n        btcxBank = _bank[3];\n        ethxBank = _bank[4];\n\n        storageprovider = _storageprovider;\n        computation = _computation ;\n        metaverse = _metaverse ;\n        hotspot = _hotspot ;\n        ligaMatch = _ligaMatch;\n        blockReward = _blockReward;\n\n    }\n}\n\n\n\n",
  "sourcePath": "E:\\Work\\Projects\\20220216_spiderswap_Moroco\\MoroccoSwap\\contracts\\swap\\MoroccoSwapFeeTransfer.sol",
  "compiler": {
    "name": "solc",
    "version": "0.6.12+commit.27d51765.Emscripten.clang"
  },
  "schemaVersion": "3.4.3",
  "updatedAt": "2022-04-08T09:36:12.856Z",
  "devdoc": {
    "kind": "dev",
    "methods": {},
    "version": 1
  },
  "userdoc": {
    "kind": "user",
    "methods": {},
    "version": 1
  }
}