{
  "contractName": "MoroccoUSDTXBank",
  "abi": [
    {
      "inputs": [
        {
          "internalType": "contract IERC20MetaData",
          "name": "_staking",
          "type": "address"
        }
      ],
      "stateMutability": "nonpayable",
      "type": "constructor"
    },
    {
      "anonymous": false,
      "inputs": [
        {
          "indexed": false,
          "internalType": "address",
          "name": "_operator",
          "type": "address"
        }
      ],
      "name": "AddOperator",
      "type": "event"
    },
    {
      "anonymous": false,
      "inputs": [
        {
          "indexed": false,
          "internalType": "address",
          "name": "rewardToken0",
          "type": "address"
        },
        {
          "indexed": false,
          "internalType": "address",
          "name": "rewardToken1",
          "type": "address"
        },
        {
          "indexed": false,
          "internalType": "uint256",
          "name": "reward0",
          "type": "uint256"
        },
        {
          "indexed": false,
          "internalType": "uint256",
          "name": "reward1",
          "type": "uint256"
        }
      ],
      "name": "AddReward",
      "type": "event"
    },
    {
      "anonymous": false,
      "inputs": [
        {
          "indexed": true,
          "internalType": "address",
          "name": "user",
          "type": "address"
        },
        {
          "indexed": false,
          "internalType": "address",
          "name": "rewardToken",
          "type": "address"
        },
        {
          "indexed": false,
          "internalType": "uint256",
          "name": "reward",
          "type": "uint256"
        }
      ],
      "name": "Claim",
      "type": "event"
    },
    {
      "anonymous": false,
      "inputs": [
        {
          "indexed": true,
          "internalType": "address",
          "name": "user",
          "type": "address"
        },
        {
          "indexed": false,
          "internalType": "uint256",
          "name": "amount",
          "type": "uint256"
        }
      ],
      "name": "Deposit",
      "type": "event"
    },
    {
      "anonymous": false,
      "inputs": [
        {
          "indexed": true,
          "internalType": "address",
          "name": "user",
          "type": "address"
        },
        {
          "indexed": false,
          "internalType": "uint256",
          "name": "amount",
          "type": "uint256"
        }
      ],
      "name": "EmergencyWithdraw",
      "type": "event"
    },
    {
      "anonymous": false,
      "inputs": [
        {
          "indexed": true,
          "internalType": "address",
          "name": "previousOwner",
          "type": "address"
        },
        {
          "indexed": true,
          "internalType": "address",
          "name": "newOwner",
          "type": "address"
        }
      ],
      "name": "OwnershipTransferred",
      "type": "event"
    },
    {
      "anonymous": false,
      "inputs": [],
      "name": "Paused",
      "type": "event"
    },
    {
      "anonymous": false,
      "inputs": [
        {
          "indexed": false,
          "internalType": "address",
          "name": "_operator",
          "type": "address"
        }
      ],
      "name": "RemoveOperator",
      "type": "event"
    },
    {
      "anonymous": false,
      "inputs": [
        {
          "indexed": false,
          "internalType": "address",
          "name": "_rewardToken",
          "type": "address"
        }
      ],
      "name": "RewardToken",
      "type": "event"
    },
    {
      "anonymous": false,
      "inputs": [],
      "name": "UnPaused",
      "type": "event"
    },
    {
      "anonymous": false,
      "inputs": [
        {
          "indexed": true,
          "internalType": "address",
          "name": "user",
          "type": "address"
        },
        {
          "indexed": false,
          "internalType": "uint256",
          "name": "amount",
          "type": "uint256"
        }
      ],
      "name": "Withdraw",
      "type": "event"
    },
    {
      "inputs": [
        {
          "internalType": "address",
          "name": "",
          "type": "address"
        }
      ],
      "name": "accPerShare",
      "outputs": [
        {
          "internalType": "uint256",
          "name": "",
          "type": "uint256"
        }
      ],
      "stateMutability": "view",
      "type": "function"
    },
    {
      "inputs": [
        {
          "internalType": "address",
          "name": "",
          "type": "address"
        }
      ],
      "name": "operator",
      "outputs": [
        {
          "internalType": "bool",
          "name": "",
          "type": "bool"
        }
      ],
      "stateMutability": "view",
      "type": "function"
    },
    {
      "inputs": [],
      "name": "owner",
      "outputs": [
        {
          "internalType": "address",
          "name": "",
          "type": "address"
        }
      ],
      "stateMutability": "view",
      "type": "function"
    },
    {
      "inputs": [],
      "name": "paused",
      "outputs": [
        {
          "internalType": "bool",
          "name": "",
          "type": "bool"
        }
      ],
      "stateMutability": "view",
      "type": "function"
    },
    {
      "inputs": [],
      "name": "renounceOwnership",
      "outputs": [],
      "stateMutability": "nonpayable",
      "type": "function"
    },
    {
      "inputs": [],
      "name": "token",
      "outputs": [
        {
          "internalType": "contract IERC20MetaData",
          "name": "",
          "type": "address"
        }
      ],
      "stateMutability": "view",
      "type": "function"
    },
    {
      "inputs": [
        {
          "internalType": "address",
          "name": "newOwner",
          "type": "address"
        }
      ],
      "name": "transferOwnership",
      "outputs": [],
      "stateMutability": "nonpayable",
      "type": "function"
    },
    {
      "inputs": [
        {
          "internalType": "address",
          "name": "",
          "type": "address"
        }
      ],
      "name": "userInfo",
      "outputs": [
        {
          "internalType": "uint256",
          "name": "amount",
          "type": "uint256"
        }
      ],
      "stateMutability": "view",
      "type": "function"
    },
    {
      "inputs": [
        {
          "internalType": "contract IERC20MetaData",
          "name": "rewardToken",
          "type": "address"
        },
        {
          "internalType": "uint256",
          "name": "amount",
          "type": "uint256"
        }
      ],
      "name": "addrewardtoken",
      "outputs": [],
      "stateMutability": "nonpayable",
      "type": "function"
    },
    {
      "inputs": [
        {
          "internalType": "contract IERC20MetaData",
          "name": "rewardToken0",
          "type": "address"
        },
        {
          "internalType": "contract IERC20MetaData",
          "name": "rewardToken1",
          "type": "address"
        },
        {
          "internalType": "uint256",
          "name": "amount0",
          "type": "uint256"
        },
        {
          "internalType": "uint256",
          "name": "amount1",
          "type": "uint256"
        }
      ],
      "name": "addReward",
      "outputs": [],
      "stateMutability": "nonpayable",
      "type": "function"
    },
    {
      "inputs": [
        {
          "internalType": "uint256",
          "name": "_amount",
          "type": "uint256"
        }
      ],
      "name": "deposit",
      "outputs": [],
      "stateMutability": "nonpayable",
      "type": "function"
    },
    {
      "inputs": [
        {
          "internalType": "address[]",
          "name": "rewardTokens",
          "type": "address[]"
        }
      ],
      "name": "claim",
      "outputs": [],
      "stateMutability": "nonpayable",
      "type": "function"
    },
    {
      "inputs": [
        {
          "internalType": "uint256",
          "name": "_amount",
          "type": "uint256"
        }
      ],
      "name": "withdraw",
      "outputs": [],
      "stateMutability": "nonpayable",
      "type": "function"
    },
    {
      "inputs": [],
      "name": "emergencyWithdraw",
      "outputs": [],
      "stateMutability": "nonpayable",
      "type": "function"
    },
    {
      "inputs": [],
      "name": "pause",
      "outputs": [],
      "stateMutability": "nonpayable",
      "type": "function"
    },
    {
      "inputs": [],
      "name": "unPause",
      "outputs": [],
      "stateMutability": "nonpayable",
      "type": "function"
    },
    {
      "inputs": [
        {
          "internalType": "address",
          "name": "_addr",
          "type": "address"
        }
      ],
      "name": "addOperator",
      "outputs": [],
      "stateMutability": "nonpayable",
      "type": "function"
    },
    {
      "inputs": [
        {
          "internalType": "address",
          "name": "_addr",
          "type": "address"
        }
      ],
      "name": "removeOperator",
      "outputs": [],
      "stateMutability": "nonpayable",
      "type": "function"
    },
    {
      "inputs": [
        {
          "internalType": "address",
          "name": "_user",
          "type": "address"
        },
        {
          "internalType": "address",
          "name": "rewardToken",
          "type": "address"
        }
      ],
      "name": "getUserInfo",
      "outputs": [
        {
          "internalType": "uint256",
          "name": "",
          "type": "uint256"
        },
        {
          "internalType": "uint256",
          "name": "",
          "type": "uint256"
        }
      ],
      "stateMutability": "view",
      "type": "function"
    }
  ],
  "bytecode": "0x60806040523480156200001157600080fd5b5060405162002dce38038062002dce833981810160405260208110156200003757600080fd5b810190808051906020019092919050505060006200005a6200014060201b60201c565b9050806000806101000a81548173ffffffffffffffffffffffffffffffffffffffff021916908373ffffffffffffffffffffffffffffffffffffffff1602179055508073ffffffffffffffffffffffffffffffffffffffff16600073ffffffffffffffffffffffffffffffffffffffff167f8be0079c531659141344cd1fd0a4f28419497f9722a3daafe3b4186f6b6457e060405160405180910390a35080600160006101000a81548173ffffffffffffffffffffffffffffffffffffffff021916908373ffffffffffffffffffffffffffffffffffffffff1602179055505062000148565b600033905090565b612c7680620001586000396000f3fe608060405234801561001057600080fd5b50600436106101215760003560e01c80639870d7fe116100ad578063db2e21bc11610071578063db2e21bc146104fa578063f2801fe714610504578063f2fde38b14610583578063f7b188a5146105c7578063fc0c546a146105d157610121565b80639870d7fe1461039c5780639a307391146103e0578063ac8a584a1461043a578063b6b55f251461047e578063cfc59d88146104ac57610121565b80635c975abb116100f45780635c975abb146102dc5780636b5c0c23146102fc578063715018a6146103545780638456cb591461035e5780638da5cb5b1461036857610121565b80631959a002146101265780632e1a7d4d1461017e578063318d9e5d146101ac578063451adf2b14610264575b600080fd5b6101686004803603602081101561013c57600080fd5b81019080803573ffffffffffffffffffffffffffffffffffffffff169060200190929190505050610605565b6040518082815260200191505060405180910390f35b6101aa6004803603602081101561019457600080fd5b8101908080359060200190929190505050610623565b005b610262600480360360208110156101c257600080fd5b81019080803590602001906401000000008111156101df57600080fd5b8201836020820111156101f157600080fd5b8035906020019184602083028401116401000000008311171561021357600080fd5b919080806020026020016040519081016040528093929190818152602001838360200280828437600081840152601f19601f82011690508083019250505050505050919291929050505061091f565b005b6102da6004803603608081101561027a57600080fd5b81019080803573ffffffffffffffffffffffffffffffffffffffff169060200190929190803573ffffffffffffffffffffffffffffffffffffffff1690602001909291908035906020019092919080359060200190929190505050610a20565b005b6102e4611230565b60405180821515815260200191505060405180910390f35b61033e6004803603602081101561031257600080fd5b81019080803573ffffffffffffffffffffffffffffffffffffffff169060200190929190505050611243565b6040518082815260200191505060405180910390f35b61035c61125b565b005b6103666113c8565b005b610370611552565b604051808273ffffffffffffffffffffffffffffffffffffffff16815260200191505060405180910390f35b6103de600480360360208110156103b257600080fd5b81019080803573ffffffffffffffffffffffffffffffffffffffff16906020019092919050505061157b565b005b610422600480360360208110156103f657600080fd5b81019080803573ffffffffffffffffffffffffffffffffffffffff1690602001909291905050506116d2565b60405180821515815260200191505060405180910390f35b61047c6004803603602081101561045057600080fd5b81019080803573ffffffffffffffffffffffffffffffffffffffff1690602001909291905050506116f2565b005b6104aa6004803603602081101561049457600080fd5b8101908080359060200190929190505050611849565b005b6104f8600480360360408110156104c257600080fd5b81019080803573ffffffffffffffffffffffffffffffffffffffff16906020019092919080359060200190929190505050611b23565b005b610502611f5b565b005b6105666004803603604081101561051a57600080fd5b81019080803573ffffffffffffffffffffffffffffffffffffffff169060200190929190803573ffffffffffffffffffffffffffffffffffffffff16906020019092919050505061214a565b604051808381526020018281526020019250505060405180910390f35b6105c56004803603602081101561059957600080fd5b81019080803573ffffffffffffffffffffffffffffffffffffffff16906020019092919050505061221b565b005b6105cf61240d565b005b6105d9612598565b604051808273ffffffffffffffffffffffffffffffffffffffff16815260200191505060405180910390f35b60026020528060005260406000206000915090508060000154905081565b600160149054906101000a900460ff16156106a6576040517f08c379a000000000000000000000000000000000000000000000000000000000815260040180806020018281038252600f8152602001807f636f6e7472616374204c6f636b6564000000000000000000000000000000000081525060200191505060405180910390fd5b6000811161071c576040517f08c379a000000000000000000000000000000000000000000000000000000000815260040180806020018281038252600b8152602001807f7a65726f20616d6f756e7400000000000000000000000000000000000000000081525060200191505060405180910390fd5b60003390506000600260008373ffffffffffffffffffffffffffffffffffffffff1673ffffffffffffffffffffffffffffffffffffffff168152602001908152602001600020905082816000015410156107de576040517f08c379a00000000000000000000000000000000000000000000000000000000081526004018080602001828103825260128152602001807f77697468647261773a206e6f7420676f6f64000000000000000000000000000081525060200191505060405180910390fd5b6107f58382600001546125be90919063ffffffff16565b8160000181905550600160009054906101000a900473ffffffffffffffffffffffffffffffffffffffff1673ffffffffffffffffffffffffffffffffffffffff1663a9059cbb83856040518363ffffffff1660e01b8152600401808373ffffffffffffffffffffffffffffffffffffffff16815260200182815260200192505050602060405180830381600087803b15801561089057600080fd5b505af11580156108a4573d6000803e3d6000fd5b505050506040513d60208110156108ba57600080fd5b8101908080519060200190929190505050508173ffffffffffffffffffffffffffffffffffffffff167f884edad9ce6fa2440d8a54cc123490eb96d2768479d49ff9c7366125a9424364846040518082815260200191505060405180910390a2505050565b600160149054906101000a900460ff16156109a2576040517f08c379a000000000000000000000000000000000000000000000000000000000815260040180806020018281038252600f8152602001807f636f6e7472616374204c6f636b6564000000000000000000000000000000000081525060200191505060405180910390fd5b6000600260003373ffffffffffffffffffffffffffffffffffffffff1673ffffffffffffffffffffffffffffffffffffffff168152602001908152602001600020905060005b8251811015610a1b57610a0e82848381518110610a0157fe5b6020026020010151612641565b80806001019150506109e8565b505050565b6000600160009054906101000a900473ffffffffffffffffffffffffffffffffffffffff1673ffffffffffffffffffffffffffffffffffffffff166370a08231306040518263ffffffff1660e01b8152600401808273ffffffffffffffffffffffffffffffffffffffff16815260200191505060206040518083038186803b158015610aab57600080fd5b505afa158015610abf573d6000803e3d6000fd5b505050506040513d6020811015610ad557600080fd5b810190808051906020019092919050505090506000811415610d0557600073ffffffffffffffffffffffffffffffffffffffff168573ffffffffffffffffffffffffffffffffffffffff1614610bf8578473ffffffffffffffffffffffffffffffffffffffff166323b872dd33610b4a611552565b866040518463ffffffff1660e01b8152600401808473ffffffffffffffffffffffffffffffffffffffff1681526020018373ffffffffffffffffffffffffffffffffffffffff1681526020018281526020019350505050602060405180830381600087803b158015610bbb57600080fd5b505af1158015610bcf573d6000803e3d6000fd5b505050506040513d6020811015610be557600080fd5b8101908080519060200190929190505050505b600073ffffffffffffffffffffffffffffffffffffffff168473ffffffffffffffffffffffffffffffffffffffff1614610cff578373ffffffffffffffffffffffffffffffffffffffff166323b872dd33610c51611552565b856040518463ffffffff1660e01b8152600401808473ffffffffffffffffffffffffffffffffffffffff1681526020018373ffffffffffffffffffffffffffffffffffffffff1681526020018281526020019350505050602060405180830381600087803b158015610cc257600080fd5b505af1158015610cd6573d6000803e3d6000fd5b505050506040513d6020811015610cec57600080fd5b8101908080519060200190929190505050505b5061122a565b6000600360008773ffffffffffffffffffffffffffffffffffffffff1673ffffffffffffffffffffffffffffffffffffffff168152602001908152602001600020541415610d9b577fd9078653fc0ab56789d31bc2c38fcaecf28034549baf737c02b719513837563b85604051808273ffffffffffffffffffffffffffffffffffffffff16815260200191505060405180910390a15b6000600360008673ffffffffffffffffffffffffffffffffffffffff1673ffffffffffffffffffffffffffffffffffffffff168152602001908152602001600020541415610e31577fd9078653fc0ab56789d31bc2c38fcaecf28034549baf737c02b719513837563b84604051808273ffffffffffffffffffffffffffffffffffffffff16815260200191505060405180910390a15b600073ffffffffffffffffffffffffffffffffffffffff168573ffffffffffffffffffffffffffffffffffffffff1614610fef578473ffffffffffffffffffffffffffffffffffffffff166323b872dd3330866040518463ffffffff1660e01b8152600401808473ffffffffffffffffffffffffffffffffffffffff1681526020018373ffffffffffffffffffffffffffffffffffffffff1681526020018281526020019350505050602060405180830381600087803b158015610ef457600080fd5b505af1158015610f08573d6000803e3d6000fd5b505050506040513d6020811015610f1e57600080fd5b810190808051906020019092919050505050610fab610f5d82610f4f64e8d4a510008761284690919063ffffffff16565b6128cc90919063ffffffff16565b600360008873ffffffffffffffffffffffffffffffffffffffff1673ffffffffffffffffffffffffffffffffffffffff1681526020019081526020016000205461295590919063ffffffff16565b600360008773ffffffffffffffffffffffffffffffffffffffff1673ffffffffffffffffffffffffffffffffffffffff168152602001908152602001600020819055505b600073ffffffffffffffffffffffffffffffffffffffff168473ffffffffffffffffffffffffffffffffffffffff16146111ad578373ffffffffffffffffffffffffffffffffffffffff166323b872dd3330856040518463ffffffff1660e01b8152600401808473ffffffffffffffffffffffffffffffffffffffff1681526020018373ffffffffffffffffffffffffffffffffffffffff1681526020018281526020019350505050602060405180830381600087803b1580156110b257600080fd5b505af11580156110c6573d6000803e3d6000fd5b505050506040513d60208110156110dc57600080fd5b81019080805190602001909291905050505061116961111b8261110d64e8d4a510008661284690919063ffffffff16565b6128cc90919063ffffffff16565b600360008773ffffffffffffffffffffffffffffffffffffffff1673ffffffffffffffffffffffffffffffffffffffff1681526020019081526020016000205461295590919063ffffffff16565b600360008673ffffffffffffffffffffffffffffffffffffffff1673ffffffffffffffffffffffffffffffffffffffff168152602001908152602001600020819055505b7f464108cc474515e518612456d1896ac7329d978cfd2353a6ee0ecda7d27b2cd985858585604051808573ffffffffffffffffffffffffffffffffffffffff1681526020018473ffffffffffffffffffffffffffffffffffffffff16815260200183815260200182815260200194505050505060405180910390a1505b50505050565b600160149054906101000a900460ff1681565b60036020528060005260406000206000915090505481565b6112636129dd565b73ffffffffffffffffffffffffffffffffffffffff16611281611552565b73ffffffffffffffffffffffffffffffffffffffff161461130a576040517f08c379a00000000000000000000000000000000000000000000000000000000081526004018080602001828103825260208152602001807f4f776e61626c653a2063616c6c6572206973206e6f7420746865206f776e657281525060200191505060405180910390fd5b600073ffffffffffffffffffffffffffffffffffffffff1660008054906101000a900473ffffffffffffffffffffffffffffffffffffffff1673ffffffffffffffffffffffffffffffffffffffff167f8be0079c531659141344cd1fd0a4f28419497f9722a3daafe3b4186f6b6457e060405160405180910390a360008060006101000a81548173ffffffffffffffffffffffffffffffffffffffff021916908373ffffffffffffffffffffffffffffffffffffffff160217905550565b600460003373ffffffffffffffffffffffffffffffffffffffff1673ffffffffffffffffffffffffffffffffffffffff16815260200190815260200160002060009054906101000a900460ff16611487576040517f08c379a000000000000000000000000000000000000000000000000000000000815260040180806020018281038252600d8152602001807f6f6e6c79206f70657261746f720000000000000000000000000000000000000081525060200191505060405180910390fd5b600160149054906101000a900460ff161561150a576040517f08c379a000000000000000000000000000000000000000000000000000000000815260040180806020018281038252600e8152602001807f616c72656164792070617573656400000000000000000000000000000000000081525060200191505060405180910390fd5b60018060146101000a81548160ff0219169083151502179055507f9e87fac88ff661f02d44f95383c817fece4bce600a3dab7a54406878b965e75260405160405180910390a1565b60008060009054906101000a900473ffffffffffffffffffffffffffffffffffffffff16905090565b6115836129dd565b73ffffffffffffffffffffffffffffffffffffffff166115a1611552565b73ffffffffffffffffffffffffffffffffffffffff161461162a576040517f08c379a00000000000000000000000000000000000000000000000000000000081526004018080602001828103825260208152602001807f4f776e61626c653a2063616c6c6572206973206e6f7420746865206f776e657281525060200191505060405180910390fd5b6001600460008373ffffffffffffffffffffffffffffffffffffffff1673ffffffffffffffffffffffffffffffffffffffff16815260200190815260200160002060006101000a81548160ff0219169083151502179055507f4c141abccf173677929dea054f218ed87362117834a8869ec9f68d8bdaaea1dc81604051808273ffffffffffffffffffffffffffffffffffffffff16815260200191505060405180910390a150565b60046020528060005260406000206000915054906101000a900460ff1681565b6116fa6129dd565b73ffffffffffffffffffffffffffffffffffffffff16611718611552565b73ffffffffffffffffffffffffffffffffffffffff16146117a1576040517f08c379a00000000000000000000000000000000000000000000000000000000081526004018080602001828103825260208152602001807f4f776e61626c653a2063616c6c6572206973206e6f7420746865206f776e657281525060200191505060405180910390fd5b6000600460008373ffffffffffffffffffffffffffffffffffffffff1673ffffffffffffffffffffffffffffffffffffffff16815260200190815260200160002060006101000a81548160ff0219169083151502179055507f6b4be2dd49eba45ba43390fbe7da13e2b965d255db41d6a0fcf6d2e15ac1fccb81604051808273ffffffffffffffffffffffffffffffffffffffff16815260200191505060405180910390a150565b600160149054906101000a900460ff16156118cc576040517f08c379a000000000000000000000000000000000000000000000000000000000815260040180806020018281038252600f8152602001807f636f6e7472616374204c6f636b6564000000000000000000000000000000000081525060200191505060405180910390fd5b60008111611942576040517f08c379a000000000000000000000000000000000000000000000000000000000815260040180806020018281038252600b8152602001807f7a65726f20616d6f756e7400000000000000000000000000000000000000000081525060200191505060405180910390fd5b60003390506000600260008373ffffffffffffffffffffffffffffffffffffffff1673ffffffffffffffffffffffffffffffffffffffff16815260200190815260200160002090506000816000015411156119c4576119c381600160009054906101000a900473ffffffffffffffffffffffffffffffffffffffff16612641565b5b600160009054906101000a900473ffffffffffffffffffffffffffffffffffffffff1673ffffffffffffffffffffffffffffffffffffffff166323b872dd8330866040518463ffffffff1660e01b8152600401808473ffffffffffffffffffffffffffffffffffffffff1681526020018373ffffffffffffffffffffffffffffffffffffffff1681526020018281526020019350505050602060405180830381600087803b158015611a7557600080fd5b505af1158015611a89573d6000803e3d6000fd5b505050506040513d6020811015611a9f57600080fd5b810190808051906020019092919050505050611ac883826000015461295590919063ffffffff16565b81600001819055508173ffffffffffffffffffffffffffffffffffffffff167fe1fffcc4923d04b559f4d29a8bfc6cda04eb5b0d3c460751c2402c5c5cc9109c846040518082815260200191505060405180910390a2505050565b6000600160009054906101000a900473ffffffffffffffffffffffffffffffffffffffff1673ffffffffffffffffffffffffffffffffffffffff166370a08231306040518263ffffffff1660e01b8152600401808273ffffffffffffffffffffffffffffffffffffffff16815260200191505060206040518083038186803b158015611bae57600080fd5b505afa158015611bc2573d6000803e3d6000fd5b505050506040513d6020811015611bd857600080fd5b810190808051906020019092919050505090506000811415611d0157600073ffffffffffffffffffffffffffffffffffffffff168373ffffffffffffffffffffffffffffffffffffffff1614611cfb578273ffffffffffffffffffffffffffffffffffffffff166323b872dd33611c4d611552565b856040518463ffffffff1660e01b8152600401808473ffffffffffffffffffffffffffffffffffffffff1681526020018373ffffffffffffffffffffffffffffffffffffffff1681526020018281526020019350505050602060405180830381600087803b158015611cbe57600080fd5b505af1158015611cd2573d6000803e3d6000fd5b505050506040513d6020811015611ce857600080fd5b8101908080519060200190929190505050505b50611f57565b600073ffffffffffffffffffffffffffffffffffffffff168373ffffffffffffffffffffffffffffffffffffffff1614611f55576000600360008573ffffffffffffffffffffffffffffffffffffffff1673ffffffffffffffffffffffffffffffffffffffff168152602001908152602001600020541415611dcb577fd9078653fc0ab56789d31bc2c38fcaecf28034549baf737c02b719513837563b83604051808273ffffffffffffffffffffffffffffffffffffffff16815260200191505060405180910390a15b8273ffffffffffffffffffffffffffffffffffffffff166323b872dd3330856040518463ffffffff1660e01b8152600401808473ffffffffffffffffffffffffffffffffffffffff1681526020018373ffffffffffffffffffffffffffffffffffffffff1681526020018281526020019350505050602060405180830381600087803b158015611e5a57600080fd5b505af1158015611e6e573d6000803e3d6000fd5b505050506040513d6020811015611e8457600080fd5b810190808051906020019092919050505050611f11611ec382611eb564e8d4a510008661284690919063ffffffff16565b6128cc90919063ffffffff16565b600360008673ffffffffffffffffffffffffffffffffffffffff1673ffffffffffffffffffffffffffffffffffffffff1681526020019081526020016000205461295590919063ffffffff16565b600360008573ffffffffffffffffffffffffffffffffffffffff1673ffffffffffffffffffffffffffffffffffffffff168152602001908152602001600020819055505b505b5050565b6000600260003373ffffffffffffffffffffffffffffffffffffffff1673ffffffffffffffffffffffffffffffffffffffff16815260200190815260200160002090506000816000015411612018576040517f08c379a000000000000000000000000000000000000000000000000000000000815260040180806020018281038252600b8152602001807f7a65726f20616d6f756e7400000000000000000000000000000000000000000081525060200191505060405180910390fd5b600160009054906101000a900473ffffffffffffffffffffffffffffffffffffffff1673ffffffffffffffffffffffffffffffffffffffff1663a9059cbb3383600001546040518363ffffffff1660e01b8152600401808373ffffffffffffffffffffffffffffffffffffffff16815260200182815260200192505050602060405180830381600087803b1580156120af57600080fd5b505af11580156120c3573d6000803e3d6000fd5b505050506040513d60208110156120d957600080fd5b810190808051906020019092919050505050600081600001819055503373ffffffffffffffffffffffffffffffffffffffff167f5fafa99d0643513820be26656b45130b01e1c03062e1266bf36f88cbd3bd969582600001546040518082815260200191505060405180910390a250565b600080600260008573ffffffffffffffffffffffffffffffffffffffff1673ffffffffffffffffffffffffffffffffffffffff16815260200190815260200160002060000154600260008673ffffffffffffffffffffffffffffffffffffffff1673ffffffffffffffffffffffffffffffffffffffff16815260200190815260200160002060010160008573ffffffffffffffffffffffffffffffffffffffff1673ffffffffffffffffffffffffffffffffffffffff16815260200190815260200160002054915091509250929050565b6122236129dd565b73ffffffffffffffffffffffffffffffffffffffff16612241611552565b73ffffffffffffffffffffffffffffffffffffffff16146122ca576040517f08c379a00000000000000000000000000000000000000000000000000000000081526004018080602001828103825260208152602001807f4f776e61626c653a2063616c6c6572206973206e6f7420746865206f776e657281525060200191505060405180910390fd5b600073ffffffffffffffffffffffffffffffffffffffff168173ffffffffffffffffffffffffffffffffffffffff161415612350576040517f08c379a0000000000000000000000000000000000000000000000000000000008152600401808060200182810382526026815260200180612bfa6026913960400191505060405180910390fd5b8073ffffffffffffffffffffffffffffffffffffffff1660008054906101000a900473ffffffffffffffffffffffffffffffffffffffff1673ffffffffffffffffffffffffffffffffffffffff167f8be0079c531659141344cd1fd0a4f28419497f9722a3daafe3b4186f6b6457e060405160405180910390a3806000806101000a81548173ffffffffffffffffffffffffffffffffffffffff021916908373ffffffffffffffffffffffffffffffffffffffff16021790555050565b600460003373ffffffffffffffffffffffffffffffffffffffff1673ffffffffffffffffffffffffffffffffffffffff16815260200190815260200160002060009054906101000a900460ff166124cc576040517f08c379a000000000000000000000000000000000000000000000000000000000815260040180806020018281038252600d8152602001807f6f6e6c79206f70657261746f720000000000000000000000000000000000000081525060200191505060405180910390fd5b600160149054906101000a900460ff161561254f576040517f08c379a00000000000000000000000000000000000000000000000000000000081526004018080602001828103825260108152602001807f616c726561647920756e5061757365640000000000000000000000000000000081525060200191505060405180910390fd5b6000600160146101000a81548160ff0219169083151502179055507f472cf038e2a5f33dbaa68760dbf94ab4e159535e6580c0ac63f8202c7c6c0bb260405160405180910390a1565b600160009054906101000a900473ffffffffffffffffffffffffffffffffffffffff1681565b600082821115612636576040517f08c379a000000000000000000000000000000000000000000000000000000000815260040180806020018281038252601e8152602001807f536166654d6174683a207375627472616374696f6e206f766572666c6f77000081525060200191505060405180910390fd5b818303905092915050565b600033905060008084600001541115612722576127148460010160008573ffffffffffffffffffffffffffffffffffffffff1673ffffffffffffffffffffffffffffffffffffffff1681526020019081526020016000205461270664e8d4a510006126f8600360008973ffffffffffffffffffffffffffffffffffffffff1673ffffffffffffffffffffffffffffffffffffffff16815260200190815260200160002054896000015461284690919063ffffffff16565b6128cc90919063ffffffff16565b6125be90919063ffffffff16565b90506127218383836129e5565b5b61278f64e8d4a51000612781600360008773ffffffffffffffffffffffffffffffffffffffff1673ffffffffffffffffffffffffffffffffffffffff16815260200190815260200160002054876000015461284690919063ffffffff16565b6128cc90919063ffffffff16565b8460010160008573ffffffffffffffffffffffffffffffffffffffff1673ffffffffffffffffffffffffffffffffffffffff168152602001908152602001600020819055508173ffffffffffffffffffffffffffffffffffffffff167f70eb43c4a8ae8c40502dcf22436c509c28d6ff421cf07c491be56984bd9870688483604051808373ffffffffffffffffffffffffffffffffffffffff1681526020018281526020019250505060405180910390a250505050565b60008083141561285957600090506128c6565b600082840290508284828161286a57fe5b04146128c1576040517f08c379a0000000000000000000000000000000000000000000000000000000008152600401808060200182810382526021815260200180612c206021913960400191505060405180910390fd5b809150505b92915050565b6000808211612943576040517f08c379a000000000000000000000000000000000000000000000000000000000815260040180806020018281038252601a8152602001807f536166654d6174683a206469766973696f6e206279207a65726f00000000000081525060200191505060405180910390fd5b81838161294c57fe5b04905092915050565b6000808284019050838110156129d3576040517f08c379a000000000000000000000000000000000000000000000000000000000815260040180806020018281038252601b8152602001807f536166654d6174683a206164646974696f6e206f766572666c6f77000000000081525060200191505060405180910390fd5b8091505092915050565b600033905090565b60008373ffffffffffffffffffffffffffffffffffffffff166370a08231306040518263ffffffff1660e01b8152600401808273ffffffffffffffffffffffffffffffffffffffff16815260200191505060206040518083038186803b158015612a4e57600080fd5b505afa158015612a62573d6000803e3d6000fd5b505050506040513d6020811015612a7857600080fd5b8101908080519060200190929190505050905080821115612b45578373ffffffffffffffffffffffffffffffffffffffff1663a9059cbb84836040518363ffffffff1660e01b8152600401808373ffffffffffffffffffffffffffffffffffffffff16815260200182815260200192505050602060405180830381600087803b158015612b0457600080fd5b505af1158015612b18573d6000803e3d6000fd5b505050506040513d6020811015612b2e57600080fd5b810190808051906020019092919050505050612bf3565b8373ffffffffffffffffffffffffffffffffffffffff1663a9059cbb84846040518363ffffffff1660e01b8152600401808373ffffffffffffffffffffffffffffffffffffffff16815260200182815260200192505050602060405180830381600087803b158015612bb657600080fd5b505af1158015612bca573d6000803e3d6000fd5b505050506040513d6020811015612be057600080fd5b8101908080519060200190929190505050505b5050505056fe4f776e61626c653a206e6577206f776e657220697320746865207a65726f2061646472657373536166654d6174683a206d756c7469706c69636174696f6e206f766572666c6f77a26469706673582212209be29ae561b8344129b488ddef6c364d97044ec7d10d996296ecc9ea3f58907c64736f6c634300060c0033",
  "immutableReferences": {},
  "source": "// SPDX-License-Identifier: MIT\npragma solidity 0.6.12;\n\nimport \"./IERC20MetaData.sol\";\nimport \"@openzeppelin/contracts/utils/EnumerableSet.sol\";\nimport \"@openzeppelin/contracts/math/SafeMath.sol\";\nimport \"@openzeppelin/contracts/access/Ownable.sol\";\n\ncontract MoroccoUSDTXBank is Ownable {\n    using SafeMath for uint256;\n    // Info of each user.\n    struct UserInfo {\n        uint256 amount;\n        mapping(address => uint256) rewardDebt;\n    }\n    IERC20MetaData public token; //staking token\n    bool public paused;\n\n    // Info of each user\n    mapping(address => UserInfo) public userInfo;\n    mapping(address => uint256) public accPerShare;\n\n    // operator record\n    mapping(address => bool) public operator;\n\n\n    event Deposit(address indexed user, uint256 amount);\n    event Withdraw(address indexed user, uint256 amount);\n    event EmergencyWithdraw(address indexed user, uint256 amount);\n    event AddReward(\n        address rewardToken0,\n        address rewardToken1,\n        uint256 reward0,\n        uint256 reward1\n    );\n    event Claim(address indexed user, address rewardToken, uint256 reward);\n    event Paused();\n    event UnPaused();\n    event AddOperator(address _operator);\n    event RemoveOperator(address _operator);\n    event RewardToken(address _rewardToken);\n\n    modifier isPaused() {\n        require(!paused, \"contract Locked\");\n        _;\n    }\n\n    modifier isOperator() {\n        require(operator[msg.sender], \"only operator\");\n        _;\n    }\n\n    constructor(IERC20MetaData _staking) public {\n        token = _staking;\n    }\n\n    function addrewardtoken(IERC20MetaData rewardToken, uint256 amount) public {\n        uint256 lpSupply = token.balanceOf(address(this));\n        if (lpSupply == 0) {\n            if (address(rewardToken) != address(0x00)) {\n                rewardToken.transferFrom(msg.sender, owner(), amount);\n            }\n            return;\n        }\n\n        if (address(rewardToken) != address(0x00)) {\n            if (accPerShare[address(rewardToken)] == 0) {\n                emit RewardToken(address(rewardToken));\n            }\n            rewardToken.transferFrom(msg.sender, address(this), amount);\n            accPerShare[address(rewardToken)] = accPerShare[address(\n                rewardToken\n            )]\n                .add(amount.mul(1e12).div(lpSupply));\n        }\n\n        // emit AddReward( address(rewardToken0), address(rewardToken1), amount0, amount1);\n    }\n\n    // Update reward variables\n    function addReward(\n        IERC20MetaData rewardToken0,\n        IERC20MetaData rewardToken1,\n        uint256 amount0,\n        uint256 amount1\n    ) public {\n        uint256 lpSupply = token.balanceOf(address(this));\n        if (lpSupply == 0) {\n            if (address(rewardToken0) != address(0x00)) {\n                rewardToken0.transferFrom(msg.sender, owner(), amount0);\n            }\n            if (address(rewardToken1) != address(0x00)) {\n                rewardToken1.transferFrom(msg.sender, owner(), amount1);\n            }\n            return;\n        }\n        if (accPerShare[address(rewardToken0)] == 0) {\n            emit RewardToken(address(rewardToken0));\n        }\n        if (accPerShare[address(rewardToken1)] == 0) {\n            emit RewardToken(address(rewardToken1));\n        }\n\n        if (address(rewardToken0) != address(0x00)) {\n            rewardToken0.transferFrom(msg.sender, address(this), amount0);\n            accPerShare[address(rewardToken0)] = accPerShare[address(\n                rewardToken0\n            )]\n                .add(amount0.mul(1e12).div(lpSupply));\n        }\n        if (address(rewardToken1) != address(0x00)) {\n            rewardToken1.transferFrom(msg.sender, address(this), amount1);\n            accPerShare[address(rewardToken1)] = accPerShare[address(\n                rewardToken1\n            )]\n                .add(amount1.mul(1e12).div(lpSupply));\n        }\n\n        emit AddReward(\n            address(rewardToken0),\n            address(rewardToken1),\n            amount0,\n            amount1\n        );\n    }\n\n    function deposit(uint256 _amount) public isPaused {\n        require(_amount > 0, \"zero amount\");\n        address _userAddr = msg.sender;\n        UserInfo storage user = userInfo[_userAddr];\n        if (user.amount > 0) {\n            _claimReward(user, address(token));\n        }\n        token.transferFrom(address(_userAddr), address(this), _amount);\n        user.amount = user.amount.add(_amount);\n        emit Deposit(_userAddr, _amount);\n    }\n\n    function claim(address[] memory rewardTokens) public isPaused {\n        UserInfo storage user = userInfo[msg.sender];\n        for (uint256 i = 0; i < rewardTokens.length; i++) {\n            _claimReward(user, rewardTokens[i]);\n        }\n    }\n\n    function _claimReward(UserInfo storage user, address rewardToken) private {\n        address _userAddr = msg.sender;\n        uint256 pendingReward;\n        if (user.amount > 0) {\n            pendingReward = user\n                .amount\n                .mul(accPerShare[rewardToken])\n                .div(1e12)\n                .sub(user.rewardDebt[rewardToken]);\n            safeRewardTransfer(IERC20MetaData(rewardToken), _userAddr, pendingReward);\n        }\n\n        user.rewardDebt[rewardToken] = user\n            .amount\n            .mul(accPerShare[rewardToken])\n            .div(1e12);\n\n        emit Claim(_userAddr, rewardToken, pendingReward);\n    }\n\n    function withdraw(uint256 _amount) public isPaused {\n        require(_amount > 0, \"zero amount\");\n        address _userAddr = msg.sender;\n        UserInfo storage user = userInfo[_userAddr];\n        require(user.amount >= _amount, \"withdraw: not good\");\n\n        user.amount = user.amount.sub(_amount);\n        token.transfer(address(_userAddr), _amount);\n        emit Withdraw(_userAddr, _amount);\n    }\n\n    // Withdraw without caring about rewards. EMERGENCY ONLY.\n    function emergencyWithdraw() public {\n        UserInfo storage user = userInfo[msg.sender];\n        require(user.amount > 0, \"zero amount\");\n        token.transfer(address(msg.sender), user.amount);\n        user.amount = 0;\n        emit EmergencyWithdraw(msg.sender, user.amount);\n    }\n\n    // Safe transfer function\n    function safeRewardTransfer(\n        IERC20MetaData _reward,\n        address _to,\n        uint256 _amount\n    ) internal {\n        uint256 _rewardBal = _reward.balanceOf(address(this));\n        if (_amount > _rewardBal) {\n            _reward.transfer(_to, _rewardBal);\n        } else {\n            _reward.transfer(_to, _amount);\n        }\n    }\n\n    function pause() external isOperator {\n        require(!paused, \"already paused\");\n        paused = true;\n        emit Paused();\n    }\n\n    function unPause() external isOperator {\n        require(!paused, \"already unPaused\");\n        paused = false;\n        emit UnPaused();\n    }\n\n    function addOperator(address _addr) external onlyOwner {\n        operator[_addr] = true;\n        emit AddOperator(_addr);\n    }\n\n    function removeOperator(address _addr) external onlyOwner {\n        operator[_addr] = false;\n        emit RemoveOperator(_addr);\n    }\n\n    function getUserInfo(address _user, address rewardToken)\n        external\n        view\n        returns (uint256, uint256)\n    {\n        return (\n            userInfo[_user].amount,\n            userInfo[_user].rewardDebt[rewardToken]\n        );\n    }\n}\n",
  "sourcePath": "E:\\Work\\Projects\\20220216_spiderswap_Moroco\\MoroccoSwap\\contracts\\Farm\\MoroccoUSDTXBank.sol",
  "compiler": {
    "name": "solc",
    "version": "0.6.12+commit.27d51765.Emscripten.clang"
  },
  "schemaVersion": "3.4.3",
  "updatedAt": "2022-04-08T09:36:12.110Z",
  "devdoc": {
    "kind": "dev",
    "methods": {
      "owner()": {
        "details": "Returns the address of the current owner."
      },
      "renounceOwnership()": {
        "details": "Leaves the contract without owner. It will not be possible to call `onlyOwner` functions anymore. Can only be called by the current owner. NOTE: Renouncing ownership will leave the contract without an owner, thereby removing any functionality that is only available to the owner."
      },
      "transferOwnership(address)": {
        "details": "Transfers ownership of the contract to a new account (`newOwner`). Can only be called by the current owner."
      }
    },
    "version": 1
  },
  "userdoc": {
    "kind": "user",
    "methods": {},
    "version": 1
  }
}