{
  "contractName": "MoroccoSwapFarm",
  "abi": [
    {
      "inputs": [
        {
          "internalType": "address",
          "name": "_factory",
          "type": "address"
        },
        {
          "internalType": "address",
          "name": "_owner",
          "type": "address"
        }
      ],
      "stateMutability": "nonpayable",
      "type": "constructor"
    },
    {
      "anonymous": false,
      "inputs": [
        {
          "indexed": false,
          "internalType": "contract IERC20MetaData",
          "name": "_lpToken",
          "type": "address"
        },
        {
          "indexed": false,
          "internalType": "contract IERC20MetaData",
          "name": "_rewardToken0",
          "type": "address"
        },
        {
          "indexed": false,
          "internalType": "contract IERC20MetaData",
          "name": "_rewardToken1",
          "type": "address"
        }
      ],
      "name": "AddLpInfo",
      "type": "event"
    },
    {
      "anonymous": false,
      "inputs": [
        {
          "indexed": false,
          "internalType": "contract IERC20MetaData",
          "name": "_lpToken",
          "type": "address"
        }
      ],
      "name": "AddLpInfo",
      "type": "event"
    },
    {
      "anonymous": false,
      "inputs": [
        {
          "indexed": false,
          "internalType": "address",
          "name": "_operator",
          "type": "address"
        }
      ],
      "name": "AddOperator",
      "type": "event"
    },
    {
      "anonymous": false,
      "inputs": [
        {
          "indexed": false,
          "internalType": "address",
          "name": "lp",
          "type": "address"
        },
        {
          "indexed": false,
          "internalType": "address",
          "name": "rewardToken0",
          "type": "address"
        },
        {
          "indexed": false,
          "internalType": "address",
          "name": "rewardToken1",
          "type": "address"
        },
        {
          "indexed": false,
          "internalType": "uint256",
          "name": "reward0",
          "type": "uint256"
        },
        {
          "indexed": false,
          "internalType": "uint256",
          "name": "reward1",
          "type": "uint256"
        }
      ],
      "name": "AddReward",
      "type": "event"
    },
    {
      "anonymous": false,
      "inputs": [
        {
          "indexed": true,
          "internalType": "address",
          "name": "user",
          "type": "address"
        },
        {
          "indexed": true,
          "internalType": "uint256",
          "name": "pid",
          "type": "uint256"
        },
        {
          "indexed": false,
          "internalType": "uint256",
          "name": "reward0",
          "type": "uint256"
        },
        {
          "indexed": false,
          "internalType": "uint256",
          "name": "reward1",
          "type": "uint256"
        }
      ],
      "name": "Claim",
      "type": "event"
    },
    {
      "anonymous": false,
      "inputs": [
        {
          "indexed": true,
          "internalType": "address",
          "name": "user",
          "type": "address"
        },
        {
          "indexed": true,
          "internalType": "uint256",
          "name": "pid",
          "type": "uint256"
        },
        {
          "indexed": false,
          "internalType": "uint256",
          "name": "amount",
          "type": "uint256"
        }
      ],
      "name": "Deposit",
      "type": "event"
    },
    {
      "anonymous": false,
      "inputs": [
        {
          "indexed": true,
          "internalType": "address",
          "name": "user",
          "type": "address"
        },
        {
          "indexed": true,
          "internalType": "uint256",
          "name": "pid",
          "type": "uint256"
        },
        {
          "indexed": false,
          "internalType": "uint256",
          "name": "amount",
          "type": "uint256"
        }
      ],
      "name": "EmergencyWithdraw",
      "type": "event"
    },
    {
      "anonymous": false,
      "inputs": [
        {
          "indexed": true,
          "internalType": "address",
          "name": "previousOwner",
          "type": "address"
        },
        {
          "indexed": true,
          "internalType": "address",
          "name": "newOwner",
          "type": "address"
        }
      ],
      "name": "OwnershipTransferred",
      "type": "event"
    },
    {
      "anonymous": false,
      "inputs": [],
      "name": "Paused",
      "type": "event"
    },
    {
      "anonymous": false,
      "inputs": [
        {
          "indexed": false,
          "internalType": "address",
          "name": "_operator",
          "type": "address"
        }
      ],
      "name": "RemoveOperator",
      "type": "event"
    },
    {
      "anonymous": false,
      "inputs": [],
      "name": "UnPaused",
      "type": "event"
    },
    {
      "anonymous": false,
      "inputs": [
        {
          "indexed": true,
          "internalType": "address",
          "name": "user",
          "type": "address"
        },
        {
          "indexed": true,
          "internalType": "uint256",
          "name": "pid",
          "type": "uint256"
        },
        {
          "indexed": false,
          "internalType": "uint256",
          "name": "amount",
          "type": "uint256"
        }
      ],
      "name": "Withdraw",
      "type": "event"
    },
    {
      "inputs": [
        {
          "internalType": "address",
          "name": "",
          "type": "address"
        }
      ],
      "name": "lpIndex",
      "outputs": [
        {
          "internalType": "uint256",
          "name": "",
          "type": "uint256"
        }
      ],
      "stateMutability": "view",
      "type": "function"
    },
    {
      "inputs": [
        {
          "internalType": "address",
          "name": "",
          "type": "address"
        }
      ],
      "name": "lpStatus",
      "outputs": [
        {
          "internalType": "bool",
          "name": "",
          "type": "bool"
        }
      ],
      "stateMutability": "view",
      "type": "function"
    },
    {
      "inputs": [
        {
          "internalType": "address",
          "name": "",
          "type": "address"
        }
      ],
      "name": "operator",
      "outputs": [
        {
          "internalType": "bool",
          "name": "",
          "type": "bool"
        }
      ],
      "stateMutability": "view",
      "type": "function"
    },
    {
      "inputs": [],
      "name": "owner",
      "outputs": [
        {
          "internalType": "address",
          "name": "",
          "type": "address"
        }
      ],
      "stateMutability": "view",
      "type": "function"
    },
    {
      "inputs": [],
      "name": "paused",
      "outputs": [
        {
          "internalType": "bool",
          "name": "",
          "type": "bool"
        }
      ],
      "stateMutability": "view",
      "type": "function"
    },
    {
      "inputs": [
        {
          "internalType": "uint256",
          "name": "",
          "type": "uint256"
        }
      ],
      "name": "poolInfo",
      "outputs": [
        {
          "internalType": "contract IERC20MetaData",
          "name": "lpToken",
          "type": "address"
        },
        {
          "internalType": "uint256",
          "name": "lastRewardBlock",
          "type": "uint256"
        },
        {
          "internalType": "uint256",
          "name": "accPerShare0",
          "type": "uint256"
        },
        {
          "internalType": "uint256",
          "name": "accPerShare1",
          "type": "uint256"
        },
        {
          "internalType": "contract IERC20MetaData",
          "name": "rewardToken0",
          "type": "address"
        },
        {
          "internalType": "contract IERC20MetaData",
          "name": "rewardToken1",
          "type": "address"
        },
        {
          "internalType": "uint256",
          "name": "accFarmPerShare",
          "type": "uint256"
        }
      ],
      "stateMutability": "view",
      "type": "function"
    },
    {
      "inputs": [],
      "name": "renounceOwnership",
      "outputs": [],
      "stateMutability": "nonpayable",
      "type": "function"
    },
    {
      "inputs": [
        {
          "internalType": "address",
          "name": "newOwner",
          "type": "address"
        }
      ],
      "name": "transferOwnership",
      "outputs": [],
      "stateMutability": "nonpayable",
      "type": "function"
    },
    {
      "inputs": [
        {
          "internalType": "uint256",
          "name": "",
          "type": "uint256"
        },
        {
          "internalType": "address",
          "name": "",
          "type": "address"
        }
      ],
      "name": "userInfo",
      "outputs": [
        {
          "internalType": "uint256",
          "name": "amount",
          "type": "uint256"
        },
        {
          "internalType": "uint256",
          "name": "rewardDebt0",
          "type": "uint256"
        },
        {
          "internalType": "uint256",
          "name": "rewardDebt1",
          "type": "uint256"
        },
        {
          "internalType": "uint256",
          "name": "rewardFarmDebt",
          "type": "uint256"
        },
        {
          "internalType": "uint256",
          "name": "rewardAntiDebt",
          "type": "uint256"
        }
      ],
      "stateMutability": "view",
      "type": "function"
    },
    {
      "inputs": [
        {
          "internalType": "contract IERC20MetaData",
          "name": "_lpToken",
          "type": "address"
        },
        {
          "internalType": "contract IERC20MetaData",
          "name": "_rewardToken0",
          "type": "address"
        },
        {
          "internalType": "contract IERC20MetaData",
          "name": "_rewardToken1",
          "type": "address"
        }
      ],
      "name": "addLPInfo",
      "outputs": [],
      "stateMutability": "nonpayable",
      "type": "function"
    },
    {
      "inputs": [
        {
          "internalType": "address",
          "name": "_lp",
          "type": "address"
        },
        {
          "internalType": "address",
          "name": "token",
          "type": "address"
        },
        {
          "internalType": "uint256",
          "name": "amount",
          "type": "uint256"
        }
      ],
      "name": "addrewardtoken",
      "outputs": [],
      "stateMutability": "nonpayable",
      "type": "function"
    },
    {
      "inputs": [
        {
          "internalType": "address",
          "name": "_lp",
          "type": "address"
        },
        {
          "internalType": "address",
          "name": "token0",
          "type": "address"
        },
        {
          "internalType": "uint256",
          "name": "amount0",
          "type": "uint256"
        },
        {
          "internalType": "uint256",
          "name": "amount1",
          "type": "uint256"
        }
      ],
      "name": "addReward",
      "outputs": [],
      "stateMutability": "nonpayable",
      "type": "function"
    },
    {
      "inputs": [
        {
          "internalType": "uint256",
          "name": "_pid",
          "type": "uint256"
        },
        {
          "internalType": "uint256",
          "name": "_amount",
          "type": "uint256"
        }
      ],
      "name": "deposit",
      "outputs": [],
      "stateMutability": "nonpayable",
      "type": "function"
    },
    {
      "inputs": [
        {
          "internalType": "uint256",
          "name": "_pid",
          "type": "uint256"
        }
      ],
      "name": "claimReward",
      "outputs": [],
      "stateMutability": "nonpayable",
      "type": "function"
    },
    {
      "inputs": [
        {
          "internalType": "uint256",
          "name": "_pid",
          "type": "uint256"
        },
        {
          "internalType": "uint256",
          "name": "_amount",
          "type": "uint256"
        }
      ],
      "name": "withdraw",
      "outputs": [],
      "stateMutability": "nonpayable",
      "type": "function"
    },
    {
      "inputs": [
        {
          "internalType": "uint256",
          "name": "_pid",
          "type": "uint256"
        }
      ],
      "name": "emergencyWithdraw",
      "outputs": [],
      "stateMutability": "nonpayable",
      "type": "function"
    },
    {
      "inputs": [],
      "name": "poolLength",
      "outputs": [
        {
          "internalType": "uint256",
          "name": "",
          "type": "uint256"
        }
      ],
      "stateMutability": "view",
      "type": "function"
    },
    {
      "inputs": [],
      "name": "pause",
      "outputs": [],
      "stateMutability": "nonpayable",
      "type": "function"
    },
    {
      "inputs": [],
      "name": "unPause",
      "outputs": [],
      "stateMutability": "nonpayable",
      "type": "function"
    },
    {
      "inputs": [
        {
          "internalType": "address",
          "name": "_addr",
          "type": "address"
        }
      ],
      "name": "addOperator",
      "outputs": [],
      "stateMutability": "nonpayable",
      "type": "function"
    },
    {
      "inputs": [
        {
          "internalType": "address",
          "name": "_addr",
          "type": "address"
        }
      ],
      "name": "removeOperator",
      "outputs": [],
      "stateMutability": "nonpayable",
      "type": "function"
    }
  ],
  "bytecode": "0x60806040523480156200001157600080fd5b5060405162003ad838038062003ad8833981810160405260408110156200003757600080fd5b8101908080519060200190929190805190602001909291905050506000620000646200036060201b60201c565b9050806000806101000a81548173ffffffffffffffffffffffffffffffffffffffff021916908373ffffffffffffffffffffffffffffffffffffffff1602179055508073ffffffffffffffffffffffffffffffffffffffff16600073ffffffffffffffffffffffffffffffffffffffff167f8be0079c531659141344cd1fd0a4f28419497f9722a3daafe3b4186f6b6457e060405160405180910390a350600073ffffffffffffffffffffffffffffffffffffffff168273ffffffffffffffffffffffffffffffffffffffff161415620001a6576040517f08c379a000000000000000000000000000000000000000000000000000000000815260040180806020018281038252600c8152602001807f7a65726f2061646472657373000000000000000000000000000000000000000081525060200191505060405180910390fd5b600073ffffffffffffffffffffffffffffffffffffffff168173ffffffffffffffffffffffffffffffffffffffff1614156200024a576040517f08c379a000000000000000000000000000000000000000000000000000000000815260040180806020018281038252600c8152602001807f7a65726f2061646472657373000000000000000000000000000000000000000081525060200191505060405180910390fd5b6001600560008473ffffffffffffffffffffffffffffffffffffffff1673ffffffffffffffffffffffffffffffffffffffff16815260200190815260200160002060006101000a81548160ff0219169083151502179055506001600560008373ffffffffffffffffffffffffffffffffffffffff1673ffffffffffffffffffffffffffffffffffffffff16815260200190815260200160002060006101000a81548160ff0219169083151502179055506200030b816200036860201b60201c565b7f4c141abccf173677929dea054f218ed87362117834a8869ec9f68d8bdaaea1dc82604051808273ffffffffffffffffffffffffffffffffffffffff16815260200191505060405180910390a1505062000596565b600033905090565b620003786200036060201b60201c565b73ffffffffffffffffffffffffffffffffffffffff166200039e6200056d60201b60201c565b73ffffffffffffffffffffffffffffffffffffffff161462000428576040517f08c379a00000000000000000000000000000000000000000000000000000000081526004018080602001828103825260208152602001807f4f776e61626c653a2063616c6c6572206973206e6f7420746865206f776e657281525060200191505060405180910390fd5b600073ffffffffffffffffffffffffffffffffffffffff168173ffffffffffffffffffffffffffffffffffffffff161415620004b0576040517f08c379a000000000000000000000000000000000000000000000000000000000815260040180806020018281038252602681526020018062003ab26026913960400191505060405180910390fd5b8073ffffffffffffffffffffffffffffffffffffffff1660008054906101000a900473ffffffffffffffffffffffffffffffffffffffff1673ffffffffffffffffffffffffffffffffffffffff167f8be0079c531659141344cd1fd0a4f28419497f9722a3daafe3b4186f6b6457e060405160405180910390a3806000806101000a81548173ffffffffffffffffffffffffffffffffffffffff021916908373ffffffffffffffffffffffffffffffffffffffff16021790555050565b60008060009054906101000a900473ffffffffffffffffffffffffffffffffffffffff16905090565b61350c80620005a66000396000f3fe608060405234801561001057600080fd5b50600436106101375760003560e01c80638da5cb5b116100b8578063ae169a501161007c578063ae169a50146105a0578063ca278f47146105ce578063d353684414610628578063e2bbb15814610680578063f2fde38b146106b8578063f7b188a5146106fc57610137565b80638da5cb5b1461040c57806393f1a40b146104405780639870d7fe146104be5780639a30739114610502578063ac8a584a1461055c57610137565b80635312ea8e116100ff5780635312ea8e1461033c5780635c975abb1461036a578063715018a61461038a5780638456cb59146103945780638c4c30f81461039e57610137565b8063081e3eda1461013c5780631526fe271461015a5780631e3abbcb14610208578063441a3e701461028c578063451adf2b146102c4575b600080fd5b610144610706565b6040518082815260200191505060405180910390f35b6101866004803603602081101561017057600080fd5b8101908080359060200190929190505050610713565b604051808873ffffffffffffffffffffffffffffffffffffffff1681526020018781526020018681526020018581526020018473ffffffffffffffffffffffffffffffffffffffff1681526020018373ffffffffffffffffffffffffffffffffffffffff16815260200182815260200197505050505050505060405180910390f35b61028a6004803603606081101561021e57600080fd5b81019080803573ffffffffffffffffffffffffffffffffffffffff169060200190929190803573ffffffffffffffffffffffffffffffffffffffff169060200190929190803573ffffffffffffffffffffffffffffffffffffffff1690602001909291905050506107c2565b005b6102c2600480360360408110156102a257600080fd5b810190808035906020019092919080359060200190929190505050610bac565b005b61033a600480360360808110156102da57600080fd5b81019080803573ffffffffffffffffffffffffffffffffffffffff169060200190929190803573ffffffffffffffffffffffffffffffffffffffff1690602001909291908035906020019092919080359060200190929190505050610fa6565b005b6103686004803603602081101561035257600080fd5b81019080803590602001909291905050506116e4565b005b610372611920565b60405180821515815260200191505060405180910390f35b610392611933565b005b61039c611aa0565b005b61040a600480360360608110156103b457600080fd5b81019080803573ffffffffffffffffffffffffffffffffffffffff169060200190929190803573ffffffffffffffffffffffffffffffffffffffff16906020019092919080359060200190929190505050611c2b565b005b610414612244565b604051808273ffffffffffffffffffffffffffffffffffffffff16815260200191505060405180910390f35b61048c6004803603604081101561045657600080fd5b8101908080359060200190929190803573ffffffffffffffffffffffffffffffffffffffff16906020019092919050505061226d565b604051808681526020018581526020018481526020018381526020018281526020019550505050505060405180910390f35b610500600480360360208110156104d457600080fd5b81019080803573ffffffffffffffffffffffffffffffffffffffff1690602001909291905050506122b0565b005b6105446004803603602081101561051857600080fd5b81019080803573ffffffffffffffffffffffffffffffffffffffff169060200190929190505050612407565b60405180821515815260200191505060405180910390f35b61059e6004803603602081101561057257600080fd5b81019080803573ffffffffffffffffffffffffffffffffffffffff169060200190929190505050612427565b005b6105cc600480360360208110156105b657600080fd5b810190808035906020019092919050505061257e565b005b610610600480360360208110156105e457600080fd5b81019080803573ffffffffffffffffffffffffffffffffffffffff1690602001909291905050506128cd565b60405180821515815260200191505060405180910390f35b61066a6004803603602081101561063e57600080fd5b81019080803573ffffffffffffffffffffffffffffffffffffffff1690602001909291905050506128ed565b6040518082815260200191505060405180910390f35b6106b66004803603604081101561069657600080fd5b810190808035906020019092919080359060200190929190505050612905565b005b6106fa600480360360208110156106ce57600080fd5b81019080803573ffffffffffffffffffffffffffffffffffffffff169060200190929190505050612cdd565b005b610704612ecf565b005b6000600180549050905090565b6001818154811061072057fe5b90600052602060002090600702016000915090508060000160009054906101000a900473ffffffffffffffffffffffffffffffffffffffff16908060010154908060020154908060030154908060040160009054906101000a900473ffffffffffffffffffffffffffffffffffffffff16908060050160009054906101000a900473ffffffffffffffffffffffffffffffffffffffff16908060060154905087565b600560003373ffffffffffffffffffffffffffffffffffffffff1673ffffffffffffffffffffffffffffffffffffffff16815260200190815260200160002060009054906101000a900460ff16610881576040517f08c379a000000000000000000000000000000000000000000000000000000000815260040180806020018281038252600d8152602001807f6f6e6c79206f70657261746f720000000000000000000000000000000000000081525060200191505060405180910390fd5b600460008473ffffffffffffffffffffffffffffffffffffffff1673ffffffffffffffffffffffffffffffffffffffff16815260200190815260200160002060009054906101000a900460ff16610ba75760006108dc610706565b905060016040518060e001604052808673ffffffffffffffffffffffffffffffffffffffff16815260200143815260200160008152602001600081526020018573ffffffffffffffffffffffffffffffffffffffff1681526020018473ffffffffffffffffffffffffffffffffffffffff1681526020016000815250908060018154018082558091505060019003906000526020600020906007020160009091909190915060008201518160000160006101000a81548173ffffffffffffffffffffffffffffffffffffffff021916908373ffffffffffffffffffffffffffffffffffffffff16021790555060208201518160010155604082015181600201556060820151816003015560808201518160040160006101000a81548173ffffffffffffffffffffffffffffffffffffffff021916908373ffffffffffffffffffffffffffffffffffffffff16021790555060a08201518160050160006101000a81548173ffffffffffffffffffffffffffffffffffffffff021916908373ffffffffffffffffffffffffffffffffffffffff16021790555060c08201518160060155505080600360008673ffffffffffffffffffffffffffffffffffffffff1673ffffffffffffffffffffffffffffffffffffffff168152602001908152602001600020819055506001600460008673ffffffffffffffffffffffffffffffffffffffff1673ffffffffffffffffffffffffffffffffffffffff16815260200190815260200160002060006101000a81548160ff0219169083151502179055507f3fd5169d67ebfb26d143c5f71959a5a44f3f6c095295bc8669214aa7de5ddf06848484604051808473ffffffffffffffffffffffffffffffffffffffff1681526020018373ffffffffffffffffffffffffffffffffffffffff1681526020018273ffffffffffffffffffffffffffffffffffffffff168152602001935050505060405180910390a1505b505050565b600060149054906101000a900460ff1615610c2f576040517f08c379a000000000000000000000000000000000000000000000000000000000815260040180806020018281038252600f8152602001807f636f6e7472616374204c6f636b6564000000000000000000000000000000000081525060200191505060405180910390fd5b81610c38610706565b8110610cac576040517f08c379a000000000000000000000000000000000000000000000000000000000815260040180806020018281038252600e8152602001807f706f6f6c206e6f7420657869737400000000000000000000000000000000000081525060200191505060405180910390fd5b60008211610d22576040517f08c379a000000000000000000000000000000000000000000000000000000000815260040180806020018281038252600b8152602001807f7a65726f20616d6f756e7400000000000000000000000000000000000000000081525060200191505060405180910390fd5b600060018481548110610d3157fe5b9060005260206000209060070201905060006002600086815260200190815260200160002060003373ffffffffffffffffffffffffffffffffffffffff1673ffffffffffffffffffffffffffffffffffffffff16815260200190815260200160002090508381600001541015610e0f576040517f08c379a00000000000000000000000000000000000000000000000000000000081526004018080602001828103825260128152602001807f77697468647261773a206e6f7420676f6f64000000000000000000000000000081525060200191505060405180910390fd5b600081600001541115610e2657610e258561257e565b5b610e3d84826000015461305990919063ffffffff16565b8160000181905550610e7764e8d4a51000610e69846002015484600001546130dc90919063ffffffff16565b61316290919063ffffffff16565b81600101819055508160000160009054906101000a900473ffffffffffffffffffffffffffffffffffffffff1673ffffffffffffffffffffffffffffffffffffffff1663a9059cbb33866040518363ffffffff1660e01b8152600401808373ffffffffffffffffffffffffffffffffffffffff16815260200182815260200192505050602060405180830381600087803b158015610f1457600080fd5b505af1158015610f28573d6000803e3d6000fd5b505050506040513d6020811015610f3e57600080fd5b810190808051906020019092919050505050843373ffffffffffffffffffffffffffffffffffffffff167ff279e6a1f5e320cca91135676d9cb6e44ca8a08c0b88342bcdb1144f6511b568866040518082815260200191505060405180910390a35050505050565b6000600360008673ffffffffffffffffffffffffffffffffffffffff1673ffffffffffffffffffffffffffffffffffffffff168152602001908152602001600020549050600060018281548110610ff957fe5b9060005260206000209060070201905060008160000160009054906101000a900473ffffffffffffffffffffffffffffffffffffffff1673ffffffffffffffffffffffffffffffffffffffff166370a08231306040518263ffffffff1660e01b8152600401808273ffffffffffffffffffffffffffffffffffffffff16815260200191505060206040518083038186803b15801561109657600080fd5b505afa1580156110aa573d6000803e3d6000fd5b505050506040513d60208110156110c057600080fd5b810190808051906020019092919050505090506000808773ffffffffffffffffffffffffffffffffffffffff168460040160009054906101000a900473ffffffffffffffffffffffffffffffffffffffff1673ffffffffffffffffffffffffffffffffffffffff16141561113957869150859050611140565b8591508690505b6000831415611348574384600101819055508360040160009054906101000a900473ffffffffffffffffffffffffffffffffffffffff1673ffffffffffffffffffffffffffffffffffffffff166323b872dd3361119b612244565b856040518463ffffffff1660e01b8152600401808473ffffffffffffffffffffffffffffffffffffffff1681526020018373ffffffffffffffffffffffffffffffffffffffff1681526020018281526020019350505050602060405180830381600087803b15801561120c57600080fd5b505af1158015611220573d6000803e3d6000fd5b505050506040513d602081101561123657600080fd5b8101908080519060200190929190505050508360050160009054906101000a900473ffffffffffffffffffffffffffffffffffffffff1673ffffffffffffffffffffffffffffffffffffffff166323b872dd33611291612244565b846040518463ffffffff1660e01b8152600401808473ffffffffffffffffffffffffffffffffffffffff1681526020018373ffffffffffffffffffffffffffffffffffffffff1681526020018281526020019350505050602060405180830381600087803b15801561130257600080fd5b505af1158015611316573d6000803e3d6000fd5b505050506040513d602081101561132c57600080fd5b81019080805190602001909291905050505050505050506116de565b6000821115611489578360040160009054906101000a900473ffffffffffffffffffffffffffffffffffffffff1673ffffffffffffffffffffffffffffffffffffffff166323b872dd3330856040518463ffffffff1660e01b8152600401808473ffffffffffffffffffffffffffffffffffffffff1681526020018373ffffffffffffffffffffffffffffffffffffffff1681526020018281526020019350505050602060405180830381600087803b15801561140457600080fd5b505af1158015611418573d6000803e3d6000fd5b505050506040513d602081101561142e57600080fd5b81019080805190602001909291905050505061148061146d8461145f64e8d4a51000866130dc90919063ffffffff16565b61316290919063ffffffff16565b85600201546131eb90919063ffffffff16565b84600201819055505b60008111156115ca578360050160009054906101000a900473ffffffffffffffffffffffffffffffffffffffff1673ffffffffffffffffffffffffffffffffffffffff166323b872dd3330846040518463ffffffff1660e01b8152600401808473ffffffffffffffffffffffffffffffffffffffff1681526020018373ffffffffffffffffffffffffffffffffffffffff1681526020018281526020019350505050602060405180830381600087803b15801561154557600080fd5b505af1158015611559573d6000803e3d6000fd5b505050506040513d602081101561156f57600080fd5b8101908080519060200190929190505050506115c16115ae846115a064e8d4a51000856130dc90919063ffffffff16565b61316290919063ffffffff16565b85600301546131eb90919063ffffffff16565b84600301819055505b4384600101819055507f2f08c07c1b721adb84352937c30fdb5f5a90f1faeb9241da443c1fbec3eaed718460000160009054906101000a900473ffffffffffffffffffffffffffffffffffffffff168560040160009054906101000a900473ffffffffffffffffffffffffffffffffffffffff168660050160009054906101000a900473ffffffffffffffffffffffffffffffffffffffff168585604051808673ffffffffffffffffffffffffffffffffffffffff1681526020018573ffffffffffffffffffffffffffffffffffffffff1681526020018473ffffffffffffffffffffffffffffffffffffffff1681526020018381526020018281526020019550505050505060405180910390a150505050505b50505050565b806116ed610706565b8110611761576040517f08c379a000000000000000000000000000000000000000000000000000000000815260040180806020018281038252600e8152602001807f706f6f6c206e6f7420657869737400000000000000000000000000000000000081525060200191505060405180910390fd5b60006001838154811061177057fe5b9060005260206000209060070201905060006002600085815260200190815260200160002060003373ffffffffffffffffffffffffffffffffffffffff1673ffffffffffffffffffffffffffffffffffffffff16815260200190815260200160002090508160000160009054906101000a900473ffffffffffffffffffffffffffffffffffffffff1673ffffffffffffffffffffffffffffffffffffffff1663a9059cbb3383600001546040518363ffffffff1660e01b8152600401808373ffffffffffffffffffffffffffffffffffffffff16815260200182815260200192505050602060405180830381600087803b15801561186d57600080fd5b505af1158015611881573d6000803e3d6000fd5b505050506040513d602081101561189757600080fd5b810190808051906020019092919050505050833373ffffffffffffffffffffffffffffffffffffffff167fbb757047c2b5f3974fe26b7c10f732e7bce710b0952a71082702781e62ae059583600001546040518082815260200191505060405180910390a360008160000181905550600081600101819055506000816002018190555050505050565b600060149054906101000a900460ff1681565b61193b613273565b73ffffffffffffffffffffffffffffffffffffffff16611959612244565b73ffffffffffffffffffffffffffffffffffffffff16146119e2576040517f08c379a00000000000000000000000000000000000000000000000000000000081526004018080602001828103825260208152602001807f4f776e61626c653a2063616c6c6572206973206e6f7420746865206f776e657281525060200191505060405180910390fd5b600073ffffffffffffffffffffffffffffffffffffffff1660008054906101000a900473ffffffffffffffffffffffffffffffffffffffff1673ffffffffffffffffffffffffffffffffffffffff167f8be0079c531659141344cd1fd0a4f28419497f9722a3daafe3b4186f6b6457e060405160405180910390a360008060006101000a81548173ffffffffffffffffffffffffffffffffffffffff021916908373ffffffffffffffffffffffffffffffffffffffff160217905550565b600560003373ffffffffffffffffffffffffffffffffffffffff1673ffffffffffffffffffffffffffffffffffffffff16815260200190815260200160002060009054906101000a900460ff16611b5f576040517f08c379a000000000000000000000000000000000000000000000000000000000815260040180806020018281038252600d8152602001807f6f6e6c79206f70657261746f720000000000000000000000000000000000000081525060200191505060405180910390fd5b600060149054906101000a900460ff1615611be2576040517f08c379a000000000000000000000000000000000000000000000000000000000815260040180806020018281038252600e8152602001807f616c72656164792070617573656400000000000000000000000000000000000081525060200191505060405180910390fd5b6001600060146101000a81548160ff0219169083151502179055507f9e87fac88ff661f02d44f95383c817fece4bce600a3dab7a54406878b965e75260405160405180910390a1565b6000600360008573ffffffffffffffffffffffffffffffffffffffff1673ffffffffffffffffffffffffffffffffffffffff168152602001908152602001600020549050600060018281548110611c7e57fe5b9060005260206000209060070201905060008160000160009054906101000a900473ffffffffffffffffffffffffffffffffffffffff1673ffffffffffffffffffffffffffffffffffffffff166370a08231306040518263ffffffff1660e01b8152600401808273ffffffffffffffffffffffffffffffffffffffff16815260200191505060206040518083038186803b158015611d1b57600080fd5b505afa158015611d2f573d6000803e3d6000fd5b505050506040513d6020811015611d4557600080fd5b810190808051906020019092919050505090506000811415611e44574382600101819055508473ffffffffffffffffffffffffffffffffffffffff166323b872dd33611d8f612244565b876040518463ffffffff1660e01b8152600401808473ffffffffffffffffffffffffffffffffffffffff1681526020018373ffffffffffffffffffffffffffffffffffffffff1681526020018281526020019350505050602060405180830381600087803b158015611e0057600080fd5b505af1158015611e14573d6000803e3d6000fd5b505050506040513d6020811015611e2a57600080fd5b81019080805190602001909291905050505050505061223f565b6000841115612173578160040160009054906101000a900473ffffffffffffffffffffffffffffffffffffffff1673ffffffffffffffffffffffffffffffffffffffff168573ffffffffffffffffffffffffffffffffffffffff161415611fe1578160040160009054906101000a900473ffffffffffffffffffffffffffffffffffffffff1673ffffffffffffffffffffffffffffffffffffffff166323b872dd3330876040518463ffffffff1660e01b8152600401808473ffffffffffffffffffffffffffffffffffffffff1681526020018373ffffffffffffffffffffffffffffffffffffffff1681526020018281526020019350505050602060405180830381600087803b158015611f5857600080fd5b505af1158015611f6c573d6000803e3d6000fd5b505050506040513d6020811015611f8257600080fd5b810190808051906020019092919050505050611fd4611fc182611fb364e8d4a51000886130dc90919063ffffffff16565b61316290919063ffffffff16565b83600201546131eb90919063ffffffff16565b8260020181905550612172565b8160050160009054906101000a900473ffffffffffffffffffffffffffffffffffffffff1673ffffffffffffffffffffffffffffffffffffffff168573ffffffffffffffffffffffffffffffffffffffff161415612171578160050160009054906101000a900473ffffffffffffffffffffffffffffffffffffffff1673ffffffffffffffffffffffffffffffffffffffff166323b872dd3330876040518463ffffffff1660e01b8152600401808473ffffffffffffffffffffffffffffffffffffffff1681526020018373ffffffffffffffffffffffffffffffffffffffff1681526020018281526020019350505050602060405180830381600087803b1580156120ec57600080fd5b505af1158015612100573d6000803e3d6000fd5b505050506040513d602081101561211657600080fd5b8101908080519060200190929190505050506121686121558261214764e8d4a51000886130dc90919063ffffffff16565b61316290919063ffffffff16565b83600301546131eb90919063ffffffff16565b82600301819055505b5b5b4382600101819055507f2f08c07c1b721adb84352937c30fdb5f5a90f1faeb9241da443c1fbec3eaed718260000160009054906101000a900473ffffffffffffffffffffffffffffffffffffffff16866000876000604051808673ffffffffffffffffffffffffffffffffffffffff1681526020018573ffffffffffffffffffffffffffffffffffffffff1681526020018473ffffffffffffffffffffffffffffffffffffffff1681526020018381526020018281526020019550505050505060405180910390a15050505b505050565b60008060009054906101000a900473ffffffffffffffffffffffffffffffffffffffff16905090565b6002602052816000526040600020602052806000526040600020600091509150508060000154908060010154908060020154908060030154908060040154905085565b6122b8613273565b73ffffffffffffffffffffffffffffffffffffffff166122d6612244565b73ffffffffffffffffffffffffffffffffffffffff161461235f576040517f08c379a00000000000000000000000000000000000000000000000000000000081526004018080602001828103825260208152602001807f4f776e61626c653a2063616c6c6572206973206e6f7420746865206f776e657281525060200191505060405180910390fd5b6001600560008373ffffffffffffffffffffffffffffffffffffffff1673ffffffffffffffffffffffffffffffffffffffff16815260200190815260200160002060006101000a81548160ff0219169083151502179055507f4c141abccf173677929dea054f218ed87362117834a8869ec9f68d8bdaaea1dc81604051808273ffffffffffffffffffffffffffffffffffffffff16815260200191505060405180910390a150565b60056020528060005260406000206000915054906101000a900460ff1681565b61242f613273565b73ffffffffffffffffffffffffffffffffffffffff1661244d612244565b73ffffffffffffffffffffffffffffffffffffffff16146124d6576040517f08c379a00000000000000000000000000000000000000000000000000000000081526004018080602001828103825260208152602001807f4f776e61626c653a2063616c6c6572206973206e6f7420746865206f776e657281525060200191505060405180910390fd5b6000600560008373ffffffffffffffffffffffffffffffffffffffff1673ffffffffffffffffffffffffffffffffffffffff16815260200190815260200160002060006101000a81548160ff0219169083151502179055507f6b4be2dd49eba45ba43390fbe7da13e2b965d255db41d6a0fcf6d2e15ac1fccb81604051808273ffffffffffffffffffffffffffffffffffffffff16815260200191505060405180910390a150565b600060149054906101000a900460ff1615612601576040517f08c379a000000000000000000000000000000000000000000000000000000000815260040180806020018281038252600f8152602001807f636f6e7472616374204c6f636b6564000000000000000000000000000000000081525060200191505060405180910390fd5b8061260a610706565b811061267e576040517f08c379a000000000000000000000000000000000000000000000000000000000815260040180806020018281038252600e8152602001807f706f6f6c206e6f7420657869737400000000000000000000000000000000000081525060200191505060405180910390fd5b600033905060006001848154811061269257fe5b9060005260206000209060070201905060006002600086815260200190815260200160002060008473ffffffffffffffffffffffffffffffffffffffff1673ffffffffffffffffffffffffffffffffffffffff16815260200190815260200160002090506000806000836000015411156127f95761274e836001015461274064e8d4a51000612732886002015488600001546130dc90919063ffffffff16565b61316290919063ffffffff16565b61305990919063ffffffff16565b915061277f8460040160009054906101000a900473ffffffffffffffffffffffffffffffffffffffff16868461327b565b6127c783600201546127b964e8d4a510006127ab886003015488600001546130dc90919063ffffffff16565b61316290919063ffffffff16565b61305990919063ffffffff16565b90506127f88460050160009054906101000a900473ffffffffffffffffffffffffffffffffffffffff16868361327b565b5b61282b64e8d4a5100061281d866002015486600001546130dc90919063ffffffff16565b61316290919063ffffffff16565b836001018190555061286564e8d4a51000612857866003015486600001546130dc90919063ffffffff16565b61316290919063ffffffff16565b8360020181905550868573ffffffffffffffffffffffffffffffffffffffff167f45c072aa05b9853b5a993de7a28bc332ee01404a628cec1a23ce0f659f842ef18484604051808381526020018281526020019250505060405180910390a350505050505050565b60046020528060005260406000206000915054906101000a900460ff1681565b60036020528060005260406000206000915090505481565b600060149054906101000a900460ff1615612988576040517f08c379a000000000000000000000000000000000000000000000000000000000815260040180806020018281038252600f8152602001807f636f6e7472616374204c6f636b6564000000000000000000000000000000000081525060200191505060405180910390fd5b81612991610706565b8110612a05576040517f08c379a000000000000000000000000000000000000000000000000000000000815260040180806020018281038252600e8152602001807f706f6f6c206e6f7420657869737400000000000000000000000000000000000081525060200191505060405180910390fd5b60008211612a7b576040517f08c379a000000000000000000000000000000000000000000000000000000000815260040180806020018281038252600b8152602001807f7a65726f20616d6f756e7400000000000000000000000000000000000000000081525060200191505060405180910390fd5b600060018481548110612a8a57fe5b9060005260206000209060070201905060006002600086815260200190815260200160002060003373ffffffffffffffffffffffffffffffffffffffff1673ffffffffffffffffffffffffffffffffffffffff1681526020019081526020016000209050600081600001541115612b0557612b048561257e565b5b8160000160009054906101000a900473ffffffffffffffffffffffffffffffffffffffff1673ffffffffffffffffffffffffffffffffffffffff166323b872dd3330876040518463ffffffff1660e01b8152600401808473ffffffffffffffffffffffffffffffffffffffff1681526020018373ffffffffffffffffffffffffffffffffffffffff1681526020018281526020019350505050602060405180830381600087803b158015612bb857600080fd5b505af1158015612bcc573d6000803e3d6000fd5b505050506040513d6020811015612be257600080fd5b810190808051906020019092919050505050612c0b8482600001546131eb90919063ffffffff16565b8160000181905550612c4564e8d4a51000612c37846002015484600001546130dc90919063ffffffff16565b61316290919063ffffffff16565b8160010181905550612c7f64e8d4a51000612c71846003015484600001546130dc90919063ffffffff16565b61316290919063ffffffff16565b8160020181905550843373ffffffffffffffffffffffffffffffffffffffff167f90890809c654f11d6e72a28fa60149770a0d11ec6c92319d6ceb2bb0a4ea1a15866040518082815260200191505060405180910390a35050505050565b612ce5613273565b73ffffffffffffffffffffffffffffffffffffffff16612d03612244565b73ffffffffffffffffffffffffffffffffffffffff1614612d8c576040517f08c379a00000000000000000000000000000000000000000000000000000000081526004018080602001828103825260208152602001807f4f776e61626c653a2063616c6c6572206973206e6f7420746865206f776e657281525060200191505060405180910390fd5b600073ffffffffffffffffffffffffffffffffffffffff168173ffffffffffffffffffffffffffffffffffffffff161415612e12576040517f08c379a00000000000000000000000000000000000000000000000000000000081526004018080602001828103825260268152602001806134906026913960400191505060405180910390fd5b8073ffffffffffffffffffffffffffffffffffffffff1660008054906101000a900473ffffffffffffffffffffffffffffffffffffffff1673ffffffffffffffffffffffffffffffffffffffff167f8be0079c531659141344cd1fd0a4f28419497f9722a3daafe3b4186f6b6457e060405160405180910390a3806000806101000a81548173ffffffffffffffffffffffffffffffffffffffff021916908373ffffffffffffffffffffffffffffffffffffffff16021790555050565b600560003373ffffffffffffffffffffffffffffffffffffffff1673ffffffffffffffffffffffffffffffffffffffff16815260200190815260200160002060009054906101000a900460ff16612f8e576040517f08c379a000000000000000000000000000000000000000000000000000000000815260040180806020018281038252600d8152602001807f6f6e6c79206f70657261746f720000000000000000000000000000000000000081525060200191505060405180910390fd5b600060149054906101000a900460ff1615613011576040517f08c379a00000000000000000000000000000000000000000000000000000000081526004018080602001828103825260108152602001807f616c726561647920756e5061757365640000000000000000000000000000000081525060200191505060405180910390fd5b60008060146101000a81548160ff0219169083151502179055507f472cf038e2a5f33dbaa68760dbf94ab4e159535e6580c0ac63f8202c7c6c0bb260405160405180910390a1565b6000828211156130d1576040517f08c379a000000000000000000000000000000000000000000000000000000000815260040180806020018281038252601e8152602001807f536166654d6174683a207375627472616374696f6e206f766572666c6f77000081525060200191505060405180910390fd5b818303905092915050565b6000808314156130ef576000905061315c565b600082840290508284828161310057fe5b0414613157576040517f08c379a00000000000000000000000000000000000000000000000000000000081526004018080602001828103825260218152602001806134b66021913960400191505060405180910390fd5b809150505b92915050565b60008082116131d9576040517f08c379a000000000000000000000000000000000000000000000000000000000815260040180806020018281038252601a8152602001807f536166654d6174683a206469766973696f6e206279207a65726f00000000000081525060200191505060405180910390fd5b8183816131e257fe5b04905092915050565b600080828401905083811015613269576040517f08c379a000000000000000000000000000000000000000000000000000000000815260040180806020018281038252601b8152602001807f536166654d6174683a206164646974696f6e206f766572666c6f77000000000081525060200191505060405180910390fd5b8091505092915050565b600033905090565b60008373ffffffffffffffffffffffffffffffffffffffff166370a08231306040518263ffffffff1660e01b8152600401808273ffffffffffffffffffffffffffffffffffffffff16815260200191505060206040518083038186803b1580156132e457600080fd5b505afa1580156132f8573d6000803e3d6000fd5b505050506040513d602081101561330e57600080fd5b81019080805190602001909291905050509050808211156133db578373ffffffffffffffffffffffffffffffffffffffff1663a9059cbb84836040518363ffffffff1660e01b8152600401808373ffffffffffffffffffffffffffffffffffffffff16815260200182815260200192505050602060405180830381600087803b15801561339a57600080fd5b505af11580156133ae573d6000803e3d6000fd5b505050506040513d60208110156133c457600080fd5b810190808051906020019092919050505050613489565b8373ffffffffffffffffffffffffffffffffffffffff1663a9059cbb84846040518363ffffffff1660e01b8152600401808373ffffffffffffffffffffffffffffffffffffffff16815260200182815260200192505050602060405180830381600087803b15801561344c57600080fd5b505af1158015613460573d6000803e3d6000fd5b505050506040513d602081101561347657600080fd5b8101908080519060200190929190505050505b5050505056fe4f776e61626c653a206e6577206f776e657220697320746865207a65726f2061646472657373536166654d6174683a206d756c7469706c69636174696f6e206f766572666c6f77a26469706673582212202fc36e80f272eb3df37d0d6de17e318bdad21808af5b509ac246008d91eb6db964736f6c634300060c00334f776e61626c653a206e6577206f776e657220697320746865207a65726f2061646472657373",
  "immutableReferences": {},
  "source": "// SPDX-License-Identifier: MIT\npragma solidity 0.6.12;\n\nimport \"./IERC20MetaData.sol\";\nimport \"@openzeppelin/contracts/utils/EnumerableSet.sol\";\nimport \"@openzeppelin/contracts/math/SafeMath.sol\";\nimport \"@openzeppelin/contracts/access/Ownable.sol\";\n\ncontract MoroccoSwapFarm is Ownable {\n    using SafeMath for uint256;\n    // Info of each user.\n    struct UserInfo {\n        uint256 amount;\n        uint256 rewardDebt0;\n        uint256 rewardDebt1;\n        uint256 rewardFarmDebt;\n        uint256 rewardAntiDebt;\n    }\n    // Info of each pool.\n    struct PoolInfo {\n        IERC20MetaData lpToken; // Address of LP token contract.\n        uint256 lastRewardBlock;\n        uint256 accPerShare0;\n        uint256 accPerShare1;\n        IERC20MetaData rewardToken0;\n        IERC20MetaData rewardToken1;\n        uint256 accFarmPerShare;\n    }\n\n    bool public paused;\n    // Info of each pool.\n    PoolInfo[] public poolInfo;\n    // Info of each user that stakes LP tokens.\n    mapping(uint256 => mapping(address => UserInfo)) public userInfo;\n    // Lp address with id\n    mapping(address => uint256) public lpIndex;\n    mapping(address => bool) public lpStatus;\n    // operator record\n    mapping(address => bool) public operator;\n\n\n    event Deposit(address indexed user, uint256 indexed pid, uint256 amount);\n    event Withdraw(address indexed user, uint256 indexed pid, uint256 amount);\n    event EmergencyWithdraw(\n        address indexed user,\n        uint256 indexed pid,\n        uint256 amount\n    );\n    event AddReward(\n        address lp,\n        address rewardToken0,\n        address rewardToken1,\n        uint256 reward0,\n        uint256 reward1\n    );\n    event Claim(\n        address indexed user,\n        uint256 indexed pid,\n        uint256 reward0,\n        uint256 reward1\n    );\n    event Paused();\n    event UnPaused();\n    event AddOperator(address _operator);\n    event RemoveOperator(address _operator);\n    event AddLpInfo(\n        IERC20MetaData _lpToken,\n        IERC20MetaData _rewardToken0,\n        IERC20MetaData _rewardToken1\n    );\n    event AddLpInfo(IERC20MetaData _lpToken);\n   \n   \n    modifier isPaused() {\n        require(!paused, \"contract Locked\");\n        _;\n    }\n\n    modifier isPoolExist(uint256 poolId) {\n        require(poolId < poolLength(), \"pool not exist\");\n        _;\n    }\n\n    modifier isOperator() {\n        require(operator[msg.sender], \"only operator\");\n        _;\n    }\n\n    constructor(\n        address _factory,\n        address _owner\n        ) public {\n        require(_factory != address(0x000), \"zero address\");\n        require(address(_owner) != address(0x000), \"zero address\");\n\n        operator[_factory] = true;\n        operator[_owner] = true;\n        transferOwnership(_owner);\n        emit AddOperator(_factory);\n    }\n\n    function addLPInfo(\n        IERC20MetaData _lpToken,\n        IERC20MetaData _rewardToken0,\n        IERC20MetaData _rewardToken1\n    ) public isOperator {\n        if (!lpStatus[address(_lpToken)]) {\n            uint256 currentIndex = poolLength();\n            poolInfo.push(\n                PoolInfo({\n                    lpToken: _lpToken,\n                    lastRewardBlock: block.number,\n                    accPerShare0: 0,\n                    accPerShare1: 0,\n                    rewardToken0: _rewardToken0,\n                    rewardToken1: _rewardToken1,\n                    accFarmPerShare: 0\n                })\n            );\n            lpIndex[address(_lpToken)] = currentIndex;\n            lpStatus[address(_lpToken)] = true;\n            emit AddLpInfo(_lpToken, _rewardToken0, _rewardToken1);\n        }\n    }\n\n    function addrewardtoken(\n        address _lp,\n        address token,\n        uint256 amount\n    ) public {\n        uint256 _pid = lpIndex[_lp];\n        PoolInfo storage pool = poolInfo[_pid];\n\n        uint256 lpSupply = pool.lpToken.balanceOf(address(this));\n\n        if (lpSupply == 0) {\n            pool.lastRewardBlock = block.number;\n            IERC20MetaData(token).transferFrom(msg.sender, owner(), amount);\n            return;\n        }\n\n        if (amount > 0) {\n            if (token == address(pool.rewardToken0)) {\n                pool.rewardToken0.transferFrom(\n                    msg.sender,\n                    address(this),\n                    amount\n                );\n                pool.accPerShare0 = pool.accPerShare0.add(\n                    amount.mul(1e12).div(lpSupply)\n                );\n            } else if (token == address(pool.rewardToken1)) {\n                pool.rewardToken1.transferFrom(\n                    msg.sender,\n                    address(this),\n                    amount\n                );\n                pool.accPerShare1 = pool.accPerShare1.add(\n                    amount.mul(1e12).div(lpSupply)\n                );\n            }\n        }\n\n        pool.lastRewardBlock = block.number;\n        emit AddReward(address(pool.lpToken), token, address(0x000), amount, 0);\n    }\n\n    // Update reward variables of the given pool to be up-to-date.\n    function addReward(\n        address _lp,\n        address token0,\n        \n        uint256 amount0,\n        uint256 amount1\n    ) public {\n        uint256 _pid = lpIndex[_lp];\n        PoolInfo storage pool = poolInfo[_pid];\n\n        uint256 lpSupply = pool.lpToken.balanceOf(address(this));\n        uint256 reward0;\n        uint256 reward1;\n        if (address(pool.rewardToken0) == token0) {\n            reward0 = amount0;\n            reward1 = amount1;\n        } else {\n            reward0 = amount1;\n            reward1 = amount0;\n        }\n\n        if (lpSupply == 0) {\n            pool.lastRewardBlock = block.number;\n            pool.rewardToken0.transferFrom(msg.sender, owner(), reward0);\n            pool.rewardToken1.transferFrom(msg.sender, owner(), reward1);\n            return;\n        }\n\n        if (reward0 > 0) {\n            pool.rewardToken0.transferFrom(msg.sender, address(this), reward0);\n            pool.accPerShare0 = pool.accPerShare0.add(\n                reward0.mul(1e12).div(lpSupply)\n            );\n        }\n        if (reward1 > 0) {\n            pool.rewardToken1.transferFrom(msg.sender, address(this), reward1);\n            pool.accPerShare1 = pool.accPerShare1.add(\n                reward1.mul(1e12).div(lpSupply)\n            );\n        }\n        pool.lastRewardBlock = block.number;\n        emit AddReward(\n            address(pool.lpToken),\n            address(pool.rewardToken0),\n            address(pool.rewardToken1),\n            reward0,\n            reward1\n        );\n    }\n\n    function deposit(uint256 _pid, uint256 _amount)\n        public\n        isPaused\n        isPoolExist(_pid)\n    {\n        require(_amount > 0, \"zero amount\");\n        PoolInfo storage pool = poolInfo[_pid];\n        UserInfo storage user = userInfo[_pid][msg.sender];\n        if (user.amount > 0) {\n            claimReward(_pid);\n        }\n        pool.lpToken.transferFrom(\n            address(msg.sender),\n            address(this),\n            _amount\n        );\n        user.amount = user.amount.add(_amount);\n        user.rewardDebt0 = user.amount.mul(pool.accPerShare0).div(1e12);\n        user.rewardDebt1 = user.amount.mul(pool.accPerShare1).div(1e12);\n        emit Deposit(msg.sender, _pid, _amount);\n    }\n\n    function claimReward(uint256 _pid) public isPaused isPoolExist(_pid) {\n        address _userAddr = msg.sender;\n        PoolInfo storage pool = poolInfo[_pid];\n        UserInfo storage user = userInfo[_pid][_userAddr];\n        uint256 pendingReward0;\n        uint256 pendingReward1;\n\n        if (user.amount > 0) {\n            pendingReward0 = user.amount.mul(pool.accPerShare0).div(1e12).sub(\n                user.rewardDebt0\n            );\n            safeRewardTransfer(pool.rewardToken0, _userAddr, pendingReward0);\n            pendingReward1 = user.amount.mul(pool.accPerShare1).div(1e12).sub(\n                user.rewardDebt1\n            );\n            safeRewardTransfer(pool.rewardToken1, _userAddr, pendingReward1);\n                }\n        user.rewardDebt0 = user.amount.mul(pool.accPerShare0).div(1e12);\n        user.rewardDebt1 = user.amount.mul(pool.accPerShare1).div(1e12);\n        emit Claim(_userAddr, _pid, pendingReward0, pendingReward1);\n    }\n\n    function withdraw(uint256 _pid, uint256 _amount)\n        public\n        isPaused\n        isPoolExist(_pid)\n    {\n        require(_amount > 0, \"zero amount\");\n        PoolInfo storage pool = poolInfo[_pid];\n        UserInfo storage user = userInfo[_pid][msg.sender];\n        require(user.amount >= _amount, \"withdraw: not good\");\n\n        if (user.amount > 0) {\n            claimReward(_pid);\n          \n        }\n\n        user.amount = user.amount.sub(_amount);\n        user.rewardDebt0 = user.amount.mul(pool.accPerShare0).div(1e12);\n        pool.lpToken.transfer(address(msg.sender), _amount);\n        emit Withdraw(msg.sender, _pid, _amount);\n    }\n\n    // Withdraw without caring about rewards. EMERGENCY ONLY.\n    function emergencyWithdraw(uint256 _pid) public isPoolExist(_pid) {\n        PoolInfo storage pool = poolInfo[_pid];\n        UserInfo storage user = userInfo[_pid][msg.sender];\n        pool.lpToken.transfer(address(msg.sender), user.amount);\n        emit EmergencyWithdraw(msg.sender, _pid, user.amount);\n        user.amount = 0;\n        user.rewardDebt0 = 0;\n        user.rewardDebt1 = 0;\n    }\n\n    // Safe transfer function\n    function safeRewardTransfer(\n        IERC20MetaData _reward,\n        address _to,\n        uint256 _amount\n    ) internal {\n        uint256 _rewardBal = _reward.balanceOf(address(this));\n        if (_amount > _rewardBal) {\n            _reward.transfer(_to, _rewardBal);\n        } else {\n            _reward.transfer(_to, _amount);\n        }\n    }\n\n    function poolLength() public view returns (uint256) {\n        return poolInfo.length;\n    }\n\n    function pause() external isOperator {\n        require(!paused, \"already paused\");\n        paused = true;\n        emit Paused();\n    }\n\n    function unPause() external isOperator {\n        require(!paused, \"already unPaused\");\n        paused = false;\n        emit UnPaused();\n    }\n\n    function addOperator(address _addr) external onlyOwner {\n        operator[_addr] = true;\n        emit AddOperator(_addr);\n    }\n\n    function removeOperator(address _addr) external onlyOwner {\n        operator[_addr] = false;\n        emit RemoveOperator(_addr);\n    }\n\n\n}\n",
  "sourcePath": "E:\\Work\\Projects\\20220216_spiderswap_Moroco\\MoroccoSwap\\contracts\\Farm\\MoroccoSwapFarm.sol",
  "compiler": {
    "name": "solc",
    "version": "0.6.12+commit.27d51765.Emscripten.clang"
  },
  "schemaVersion": "3.4.3",
  "updatedAt": "2022-04-08T09:36:12.033Z",
  "devdoc": {
    "kind": "dev",
    "methods": {
      "owner()": {
        "details": "Returns the address of the current owner."
      },
      "renounceOwnership()": {
        "details": "Leaves the contract without owner. It will not be possible to call `onlyOwner` functions anymore. Can only be called by the current owner. NOTE: Renouncing ownership will leave the contract without an owner, thereby removing any functionality that is only available to the owner."
      },
      "transferOwnership(address)": {
        "details": "Transfers ownership of the contract to a new account (`newOwner`). Can only be called by the current owner."
      }
    },
    "version": 1
  },
  "userdoc": {
    "kind": "user",
    "methods": {},
    "version": 1
  }
}