{
  "contractName": "MoroccoSwapV2Factory",
  "abi": [
    {
      "inputs": [
        {
          "internalType": "address",
          "name": "_feeToSetter",
          "type": "address"
        }
      ],
      "stateMutability": "nonpayable",
      "type": "constructor"
    },
    {
      "anonymous": false,
      "inputs": [
        {
          "indexed": true,
          "internalType": "address",
          "name": "token0",
          "type": "address"
        },
        {
          "indexed": true,
          "internalType": "address",
          "name": "token1",
          "type": "address"
        },
        {
          "indexed": false,
          "internalType": "address",
          "name": "pair",
          "type": "address"
        },
        {
          "indexed": false,
          "internalType": "uint256",
          "name": "",
          "type": "uint256"
        }
      ],
      "name": "PairCreated",
      "type": "event"
    },
    {
      "inputs": [],
      "name": "DEADADDRESS",
      "outputs": [
        {
          "internalType": "address",
          "name": "",
          "type": "address"
        }
      ],
      "stateMutability": "view",
      "type": "function"
    },
    {
      "inputs": [],
      "name": "InOutTotalFee",
      "outputs": [
        {
          "internalType": "uint256",
          "name": "",
          "type": "uint256"
        }
      ],
      "stateMutability": "view",
      "type": "function"
    },
    {
      "inputs": [],
      "name": "InoutTax",
      "outputs": [
        {
          "internalType": "uint256",
          "name": "",
          "type": "uint256"
        }
      ],
      "stateMutability": "view",
      "type": "function"
    },
    {
      "inputs": [],
      "name": "PERCENT100",
      "outputs": [
        {
          "internalType": "uint256",
          "name": "",
          "type": "uint256"
        }
      ],
      "stateMutability": "view",
      "type": "function"
    },
    {
      "inputs": [
        {
          "internalType": "uint256",
          "name": "",
          "type": "uint256"
        }
      ],
      "name": "allPairs",
      "outputs": [
        {
          "internalType": "address",
          "name": "",
          "type": "address"
        }
      ],
      "stateMutability": "view",
      "type": "function"
    },
    {
      "inputs": [],
      "name": "feeTo",
      "outputs": [
        {
          "internalType": "address",
          "name": "",
          "type": "address"
        }
      ],
      "stateMutability": "view",
      "type": "function"
    },
    {
      "inputs": [],
      "name": "feeToSetter",
      "outputs": [
        {
          "internalType": "address",
          "name": "",
          "type": "address"
        }
      ],
      "stateMutability": "view",
      "type": "function"
    },
    {
      "inputs": [],
      "name": "feeTransfer",
      "outputs": [
        {
          "internalType": "address",
          "name": "",
          "type": "address"
        }
      ],
      "stateMutability": "view",
      "type": "function"
    },
    {
      "inputs": [
        {
          "internalType": "address",
          "name": "",
          "type": "address"
        },
        {
          "internalType": "address",
          "name": "",
          "type": "address"
        }
      ],
      "name": "getPair",
      "outputs": [
        {
          "internalType": "address",
          "name": "",
          "type": "address"
        }
      ],
      "stateMutability": "view",
      "type": "function"
    },
    {
      "inputs": [],
      "name": "lockFee",
      "outputs": [
        {
          "internalType": "uint256",
          "name": "",
          "type": "uint256"
        }
      ],
      "stateMutability": "view",
      "type": "function"
    },
    {
      "inputs": [],
      "name": "pause",
      "outputs": [
        {
          "internalType": "bool",
          "name": "",
          "type": "bool"
        }
      ],
      "stateMutability": "view",
      "type": "function"
    },
    {
      "inputs": [],
      "name": "router",
      "outputs": [
        {
          "internalType": "address",
          "name": "",
          "type": "address"
        }
      ],
      "stateMutability": "view",
      "type": "function"
    },
    {
      "inputs": [],
      "name": "swapTax",
      "outputs": [
        {
          "internalType": "uint256",
          "name": "",
          "type": "uint256"
        }
      ],
      "stateMutability": "view",
      "type": "function"
    },
    {
      "inputs": [],
      "name": "allPairsLength",
      "outputs": [
        {
          "internalType": "uint256",
          "name": "",
          "type": "uint256"
        }
      ],
      "stateMutability": "view",
      "type": "function"
    },
    {
      "inputs": [],
      "name": "pairCodeHash",
      "outputs": [
        {
          "internalType": "bytes32",
          "name": "",
          "type": "bytes32"
        }
      ],
      "stateMutability": "pure",
      "type": "function"
    },
    {
      "inputs": [
        {
          "internalType": "address",
          "name": "tokenA",
          "type": "address"
        },
        {
          "internalType": "address",
          "name": "tokenB",
          "type": "address"
        }
      ],
      "name": "createPair",
      "outputs": [
        {
          "internalType": "address",
          "name": "pair",
          "type": "address"
        }
      ],
      "stateMutability": "nonpayable",
      "type": "function"
    },
    {
      "inputs": [
        {
          "internalType": "address",
          "name": "_feeToSetter",
          "type": "address"
        }
      ],
      "name": "setFeeToSetter",
      "outputs": [],
      "stateMutability": "nonpayable",
      "type": "function"
    },
    {
      "inputs": [
        {
          "internalType": "bool",
          "name": "_newStatus",
          "type": "bool"
        }
      ],
      "name": "pauseFee",
      "outputs": [],
      "stateMutability": "nonpayable",
      "type": "function"
    },
    {
      "inputs": [
        {
          "internalType": "address",
          "name": "_router",
          "type": "address"
        }
      ],
      "name": "setRouter",
      "outputs": [],
      "stateMutability": "nonpayable",
      "type": "function"
    },
    {
      "inputs": [
        {
          "internalType": "address",
          "name": "_feeTransfer",
          "type": "address"
        }
      ],
      "name": "setFeeTransfer",
      "outputs": [],
      "stateMutability": "nonpayable",
      "type": "function"
    }
  ],
  "bytecode": "0x60806040526130d46004556109c46005556175306006556109c46007556000600860006101000a81548160ff02191690831515021790555034801561004357600080fd5b50604051615fa4380380615fa48339818101604052602081101561006657600080fd5b8101908080519060200190929190505050600073ffffffffffffffffffffffffffffffffffffffff168173ffffffffffffffffffffffffffffffffffffffff16141561011a576040517f08c379a000000000000000000000000000000000000000000000000000000000815260040180806020018281038252600c8152602001807f5a65726f2061646472657373000000000000000000000000000000000000000081525060200191505060405180910390fd5b80600160006101000a81548173ffffffffffffffffffffffffffffffffffffffff021916908373ffffffffffffffffffffffffffffffffffffffff16021790555050615e398061016b6000396000f3fe608060405234801561001057600080fd5b506004361061012c5760003560e01c80639aab9248116100ad578063c0d7865511610071578063c0d78655146103e5578063c9c6539614610429578063e6a43905146104b7578063f887ea4014610545578063f9440ed8146105795761012c565b80639aab9248146103035780639e052fdc14610321578063a2e74af614610365578063b0392fe3146103a9578063b78f7d67146103c75761012c565b80632f667ea4116100f45780632f667ea41461025557806356a0623514610289578063574f2ba3146102a75780636b663cd0146102c55780638456cb59146102e35761012c565b8063017e7e5814610131578063094b7415146101655780631803e284146101995780631e3dd18b146101cd57806329673cd814610225575b600080fd5b610139610597565b604051808273ffffffffffffffffffffffffffffffffffffffff16815260200191505060405180910390f35b61016d6105bb565b604051808273ffffffffffffffffffffffffffffffffffffffff16815260200191505060405180910390f35b6101a16105e1565b604051808273ffffffffffffffffffffffffffffffffffffffff16815260200191505060405180910390f35b6101f9600480360360208110156101e357600080fd5b81019080803590602001909291905050506105e7565b604051808273ffffffffffffffffffffffffffffffffffffffff16815260200191505060405180910390f35b6102536004803603602081101561023b57600080fd5b81019080803515159060200190929190505050610623565b005b61025d61078c565b604051808273ffffffffffffffffffffffffffffffffffffffff16815260200191505060405180910390f35b6102916107b2565b6040518082815260200191505060405180910390f35b6102af6107b8565b6040518082815260200191505060405180910390f35b6102cd6107c5565b6040518082815260200191505060405180910390f35b6102eb6107cb565b60405180821515815260200191505060405180910390f35b61030b6107de565b6040518082815260200191505060405180910390f35b6103636004803603602081101561033757600080fd5b81019080803573ffffffffffffffffffffffffffffffffffffffff169060200190929190505050610810565b005b6103a76004803603602081101561037b57600080fd5b81019080803573ffffffffffffffffffffffffffffffffffffffff169060200190929190505050610917565b005b6103b1610a1e565b6040518082815260200191505060405180910390f35b6103cf610a25565b6040518082815260200191505060405180910390f35b610427600480360360208110156103fb57600080fd5b81019080803573ffffffffffffffffffffffffffffffffffffffff169060200190929190505050610a2b565b005b61048b6004803603604081101561043f57600080fd5b81019080803573ffffffffffffffffffffffffffffffffffffffff169060200190929190803573ffffffffffffffffffffffffffffffffffffffff169060200190929190505050610b32565b604051808273ffffffffffffffffffffffffffffffffffffffff16815260200191505060405180910390f35b610519600480360360408110156104cd57600080fd5b81019080803573ffffffffffffffffffffffffffffffffffffffff169060200190929190803573ffffffffffffffffffffffffffffffffffffffff169060200190929190505050611335565b604051808273ffffffffffffffffffffffffffffffffffffffff16815260200191505060405180910390f35b61054d611377565b604051808273ffffffffffffffffffffffffffffffffffffffff16815260200191505060405180910390f35b61058161139d565b6040518082815260200191505060405180910390f35b60008054906101000a900473ffffffffffffffffffffffffffffffffffffffff1681565b600160009054906101000a900473ffffffffffffffffffffffffffffffffffffffff1681565b61dead81565b600a81815481106105f457fe5b906000526020600020016000915054906101000a900473ffffffffffffffffffffffffffffffffffffffff1681565b600160009054906101000a900473ffffffffffffffffffffffffffffffffffffffff1673ffffffffffffffffffffffffffffffffffffffff163373ffffffffffffffffffffffffffffffffffffffff16146106e6576040517f08c379a00000000000000000000000000000000000000000000000000000000081526004018080602001828103825260188152602001807f4d6f726f63636f5377617056323a20464f5242494444454e000000000000000081525060200191505060405180910390fd5b600860009054906101000a900460ff161515811515141561076f576040517f08c379a00000000000000000000000000000000000000000000000000000000081526004018080602001828103825260168152602001807f4d6f726f63636f5377617056323a20494e56414c49440000000000000000000081525060200191505060405180910390fd5b80600860006101000a81548160ff02191690831515021790555050565b600360009054906101000a900473ffffffffffffffffffffffffffffffffffffffff1681565b60075481565b6000600a80549050905090565b60045481565b600860009054906101000a900460ff1681565b6000604051806020016107f0906113a3565b6020820181038252601f19601f8201166040525080519060200120905090565b600160009054906101000a900473ffffffffffffffffffffffffffffffffffffffff1673ffffffffffffffffffffffffffffffffffffffff163273ffffffffffffffffffffffffffffffffffffffff16146108d3576040517f08c379a00000000000000000000000000000000000000000000000000000000081526004018080602001828103825260188152602001807f4d6f726f63636f5377617056323a20464f5242494444454e000000000000000081525060200191505060405180910390fd5b80600360006101000a81548173ffffffffffffffffffffffffffffffffffffffff021916908373ffffffffffffffffffffffffffffffffffffffff16021790555050565b600160009054906101000a900473ffffffffffffffffffffffffffffffffffffffff1673ffffffffffffffffffffffffffffffffffffffff163373ffffffffffffffffffffffffffffffffffffffff16146109da576040517f08c379a00000000000000000000000000000000000000000000000000000000081526004018080602001828103825260188152602001807f4d6f726f63636f5377617056323a20464f5242494444454e000000000000000081525060200191505060405180910390fd5b80600160006101000a81548173ffffffffffffffffffffffffffffffffffffffff021916908373ffffffffffffffffffffffffffffffffffffffff16021790555050565b620f424081565b60055481565b600160009054906101000a900473ffffffffffffffffffffffffffffffffffffffff1673ffffffffffffffffffffffffffffffffffffffff163273ffffffffffffffffffffffffffffffffffffffff1614610aee576040517f08c379a00000000000000000000000000000000000000000000000000000000081526004018080602001828103825260188152602001807f4d6f726f63636f5377617056323a20464f5242494444454e000000000000000081525060200191505060405180910390fd5b80600260006101000a81548173ffffffffffffffffffffffffffffffffffffffff021916908373ffffffffffffffffffffffffffffffffffffffff16021790555050565b60008173ffffffffffffffffffffffffffffffffffffffff168373ffffffffffffffffffffffffffffffffffffffff161415610bb9576040517f08c379a0000000000000000000000000000000000000000000000000000000008152600401808060200182810382526022815260200180615de26022913960400191505060405180910390fd5b6000808373ffffffffffffffffffffffffffffffffffffffff168573ffffffffffffffffffffffffffffffffffffffff1610610bf6578385610bf9565b84845b91509150600073ffffffffffffffffffffffffffffffffffffffff168273ffffffffffffffffffffffffffffffffffffffff161415610ca0576040517f08c379a000000000000000000000000000000000000000000000000000000000815260040180806020018281038252601b8152602001807f4d6f726f63636f5377617056323a205a45524f5f41444452455353000000000081525060200191505060405180910390fd5b600073ffffffffffffffffffffffffffffffffffffffff16600960008473ffffffffffffffffffffffffffffffffffffffff1673ffffffffffffffffffffffffffffffffffffffff16815260200190815260200160002060008373ffffffffffffffffffffffffffffffffffffffff1673ffffffffffffffffffffffffffffffffffffffff16815260200190815260200160002060009054906101000a900473ffffffffffffffffffffffffffffffffffffffff1673ffffffffffffffffffffffffffffffffffffffff1614610dde576040517f08c379a000000000000000000000000000000000000000000000000000000000815260040180806020018281038252601a8152602001807f4d6f726f63636f5377617056323a20504149525f45584953545300000000000081525060200191505060405180910390fd5b606060405180602001610df0906113a3565b6020820181038252601f19601f82011660405250905060008383604051602001808373ffffffffffffffffffffffffffffffffffffffff1660601b81526014018273ffffffffffffffffffffffffffffffffffffffff1660601b815260140192505050604051602081830303815290604052805190602001209050808251602084016000f594508473ffffffffffffffffffffffffffffffffffffffff1663c0c53b8b8585600260009054906101000a900473ffffffffffffffffffffffffffffffffffffffff166040518463ffffffff1660e01b8152600401808473ffffffffffffffffffffffffffffffffffffffff1681526020018373ffffffffffffffffffffffffffffffffffffffff1681526020018273ffffffffffffffffffffffffffffffffffffffff1681526020019350505050600060405180830381600087803b158015610f3e57600080fd5b505af1158015610f52573d6000803e3d6000fd5b5050505084600960008673ffffffffffffffffffffffffffffffffffffffff1673ffffffffffffffffffffffffffffffffffffffff16815260200190815260200160002060008573ffffffffffffffffffffffffffffffffffffffff1673ffffffffffffffffffffffffffffffffffffffff16815260200190815260200160002060006101000a81548173ffffffffffffffffffffffffffffffffffffffff021916908373ffffffffffffffffffffffffffffffffffffffff16021790555084600960008573ffffffffffffffffffffffffffffffffffffffff1673ffffffffffffffffffffffffffffffffffffffff16815260200190815260200160002060008673ffffffffffffffffffffffffffffffffffffffff1673ffffffffffffffffffffffffffffffffffffffff16815260200190815260200160002060006101000a81548173ffffffffffffffffffffffffffffffffffffffff021916908373ffffffffffffffffffffffffffffffffffffffff160217905550600a859080600181540180825580915050600190039060005260206000200160009091909190916101000a81548173ffffffffffffffffffffffffffffffffffffffff021916908373ffffffffffffffffffffffffffffffffffffffff160217905550600860009054906101000a900460ff166112a357600360009054906101000a900473ffffffffffffffffffffffffffffffffffffffff1673ffffffffffffffffffffffffffffffffffffffff166336e9332d6040518163ffffffff1660e01b815260040160206040518083038186803b1580156111ab57600080fd5b505afa1580156111bf573d6000803e3d6000fd5b505050506040513d60208110156111d557600080fd5b810190808051906020019092919050505073ffffffffffffffffffffffffffffffffffffffff16631e3abbcb8689896040518463ffffffff1660e01b8152600401808473ffffffffffffffffffffffffffffffffffffffff1681526020018373ffffffffffffffffffffffffffffffffffffffff1681526020018273ffffffffffffffffffffffffffffffffffffffff1681526020019350505050600060405180830381600087803b15801561128a57600080fd5b505af115801561129e573d6000803e3d6000fd5b505050505b8273ffffffffffffffffffffffffffffffffffffffff168473ffffffffffffffffffffffffffffffffffffffff167f0d3648bd0f6ba80134a33ba9275ac585d9d315f0ad8355cddefde31afa28d0e987600a80549050604051808373ffffffffffffffffffffffffffffffffffffffff1681526020018281526020019250505060405180910390a35050505092915050565b60096020528160005260406000206020528060005260406000206000915091509054906101000a900473ffffffffffffffffffffffffffffffffffffffff1681565b600260009054906101000a900473ffffffffffffffffffffffffffffffffffffffff1681565b60065481565b614a31806113b18339019056fe60806040526001600d5534801561001557600080fd5b5060004690507f8b73c3c69bb8fe3d512ecc4cf759cc79239f7b179b0ffacaa9a75d522b39400f6040518060400160405280601581526020017f4d6f726f63636f5377617056204c5020546f6b656e0000000000000000000000815250805190602001206040518060400160405280600181526020017f3100000000000000000000000000000000000000000000000000000000000000815250805190602001208330604051602001808681526020018581526020018481526020018381526020018273ffffffffffffffffffffffffffffffffffffffff16815260200195505050505050604051602081830303815290604052805190602001206003819055505033600560006101000a81548173ffffffffffffffffffffffffffffffffffffffff021916908373ffffffffffffffffffffffffffffffffffffffff1602179055506148ca806101676000396000f3fe608060405234801561001057600080fd5b50600436106101c45760003560e01c80637464fc3d116100f9578063c0c53b8b11610097578063d505accf11610071578063d505accf146108d8578063dd62ed3e14610971578063f887ea40146109e9578063fff6cae914610a1d576101c4565b8063c0c53b8b146107ec578063c45a015514610870578063d21220a7146108a4576101c4565b806395d89b41116100d357806395d89b41146106a3578063a9059cbb14610726578063ba9a7a561461078a578063bc25cf77146107a8576101c4565b80637464fc3d146105ce5780637ecebe00146105ec57806389afcb4414610644576101c4565b806330adf81f116101665780635909c0d5116101405780635909c0d5146104e25780635a3d5493146105005780636a6278421461051e57806370a0823114610576576101c4565b806330adf81f14610485578063313ce567146104a35780633644e515146104c4576101c4565b8063095ea7b3116101a2578063095ea7b31461034b5780630dfe1681146103af57806318160ddd146103e357806323b872dd14610401576101c4565b8063022c0d9f146101c957806306fdde03146102765780630902f1ac146102f9575b600080fd5b610274600480360360808110156101df57600080fd5b810190808035906020019092919080359060200190929190803573ffffffffffffffffffffffffffffffffffffffff1690602001909291908035906020019064010000000081111561023057600080fd5b82018360208201111561024257600080fd5b8035906020019184600183028401116401000000008311171561026457600080fd5b9091929391929390505050610a27565b005b61027e6111d2565b6040518080602001828103825283818151815260200191508051906020019080838360005b838110156102be5780820151818401526020810190506102a3565b50505050905090810190601f1680156102eb5780820380516001836020036101000a031916815260200191505b509250505060405180910390f35b61030161120b565b60405180846dffffffffffffffffffffffffffff168152602001836dffffffffffffffffffffffffffff1681526020018263ffffffff168152602001935050505060405180910390f35b6103976004803603604081101561036157600080fd5b81019080803573ffffffffffffffffffffffffffffffffffffffff16906020019092919080359060200190929190505050611268565b60405180821515815260200191505060405180910390f35b6103b761127f565b604051808273ffffffffffffffffffffffffffffffffffffffff16815260200191505060405180910390f35b6103eb6112a5565b6040518082815260200191505060405180910390f35b61046d6004803603606081101561041757600080fd5b81019080803573ffffffffffffffffffffffffffffffffffffffff169060200190929190803573ffffffffffffffffffffffffffffffffffffffff169060200190929190803590602001909291905050506112ab565b60405180821515815260200191505060405180910390f35b61048d611476565b6040518082815260200191505060405180910390f35b6104ab61149d565b604051808260ff16815260200191505060405180910390f35b6104cc6114a2565b6040518082815260200191505060405180910390f35b6104ea6114a8565b6040518082815260200191505060405180910390f35b6105086114ae565b6040518082815260200191505060405180910390f35b6105606004803603602081101561053457600080fd5b81019080803573ffffffffffffffffffffffffffffffffffffffff1690602001909291905050506114b4565b6040518082815260200191505060405180910390f35b6105b86004803603602081101561058c57600080fd5b81019080803573ffffffffffffffffffffffffffffffffffffffff16906020019092919050505061205e565b6040518082815260200191505060405180910390f35b6105d6612076565b6040518082815260200191505060405180910390f35b61062e6004803603602081101561060257600080fd5b81019080803573ffffffffffffffffffffffffffffffffffffffff16906020019092919050505061207c565b6040518082815260200191505060405180910390f35b6106866004803603602081101561065a57600080fd5b81019080803573ffffffffffffffffffffffffffffffffffffffff169060200190929190505050612094565b604051808381526020018281526020019250505060405180910390f35b6106ab612954565b6040518080602001828103825283818151815260200191508051906020019080838360005b838110156106eb5780820151818401526020810190506106d0565b50505050905090810190601f1680156107185780820380516001836020036101000a031916815260200191505b509250505060405180910390f35b6107726004803603604081101561073c57600080fd5b81019080803573ffffffffffffffffffffffffffffffffffffffff1690602001909291908035906020019092919050505061298d565b60405180821515815260200191505060405180910390f35b6107926129a4565b6040518082815260200191505060405180910390f35b6107ea600480360360208110156107be57600080fd5b81019080803573ffffffffffffffffffffffffffffffffffffffff1690602001909291905050506129aa565b005b61086e6004803603606081101561080257600080fd5b81019080803573ffffffffffffffffffffffffffffffffffffffff169060200190929190803573ffffffffffffffffffffffffffffffffffffffff169060200190929190803573ffffffffffffffffffffffffffffffffffffffff169060200190929190505050612c59565b005b610878612de4565b604051808273ffffffffffffffffffffffffffffffffffffffff16815260200191505060405180910390f35b6108ac612e0a565b604051808273ffffffffffffffffffffffffffffffffffffffff16815260200191505060405180910390f35b61096f600480360360e08110156108ee57600080fd5b81019080803573ffffffffffffffffffffffffffffffffffffffff169060200190929190803573ffffffffffffffffffffffffffffffffffffffff1690602001909291908035906020019092919080359060200190929190803560ff1690602001909291908035906020019092919080359060200190929190505050612e30565b005b6109d36004803603604081101561098757600080fd5b81019080803573ffffffffffffffffffffffffffffffffffffffff169060200190929190803573ffffffffffffffffffffffffffffffffffffffff169060200190929190505050613145565b6040518082815260200191505060405180910390f35b6109f161316a565b604051808273ffffffffffffffffffffffffffffffffffffffff16815260200191505060405180910390f35b610a25613190565b005b6001600d5414610a9f576040517f08c379a00000000000000000000000000000000000000000000000000000000081526004018080602001828103825260158152602001807f4d6f726f63636f5377617056323a204c4f434b4544000000000000000000000081525060200191505060405180910390fd5b6000600d819055506000851180610ab65750600084115b610b0b576040517f08c379a000000000000000000000000000000000000000000000000000000000815260040180806020018281038252602981526020018061486c6029913960400191505060405180910390fd5b600080610b1661120b565b5091509150816dffffffffffffffffffffffffffff1687108015610b495750806dffffffffffffffffffffffffffff1686105b610b9e576040517f08c379a000000000000000000000000000000000000000000000000000000000815260040180806020018281038252602581526020018061481b6025913960400191505060405180910390fd5b6000806000600760009054906101000a900473ffffffffffffffffffffffffffffffffffffffff1690506000600860009054906101000a900473ffffffffffffffffffffffffffffffffffffffff1690508173ffffffffffffffffffffffffffffffffffffffff168973ffffffffffffffffffffffffffffffffffffffff1614158015610c5757508073ffffffffffffffffffffffffffffffffffffffff168973ffffffffffffffffffffffffffffffffffffffff1614155b610cc9576040517f08c379a00000000000000000000000000000000000000000000000000000000081526004018080602001828103825260198152602001807f4d6f726f63636f5377617056323a20494e56414c49445f544f0000000000000081525060200191505060405180910390fd5b60008b1115610cde57610cdd828a8d6133e4565b5b60008a1115610cf357610cf2818a8c6133e4565b5b6000888890501115610dc5578873ffffffffffffffffffffffffffffffffffffffff16630615aada338d8d8c8c6040518663ffffffff1660e01b8152600401808673ffffffffffffffffffffffffffffffffffffffff168152602001858152602001848152602001806020018281038252848482818152602001925080828437600081840152601f19601f8201169050808301925050509650505050505050600060405180830381600087803b158015610dac57600080fd5b505af1158015610dc0573d6000803e3d6000fd5b505050505b8173ffffffffffffffffffffffffffffffffffffffff166370a08231306040518263ffffffff1660e01b8152600401808273ffffffffffffffffffffffffffffffffffffffff16815260200191505060206040518083038186803b158015610e2c57600080fd5b505afa158015610e40573d6000803e3d6000fd5b505050506040513d6020811015610e5657600080fd5b810190808051906020019092919050505093508073ffffffffffffffffffffffffffffffffffffffff166370a08231306040518263ffffffff1660e01b8152600401808273ffffffffffffffffffffffffffffffffffffffff16815260200191505060206040518083038186803b158015610ed057600080fd5b505afa158015610ee4573d6000803e3d6000fd5b505050506040513d6020811015610efa57600080fd5b810190808051906020019092919050505092505050600089856dffffffffffffffffffffffffffff16038311610f31576000610f47565b89856dffffffffffffffffffffffffffff160383035b9050600089856dffffffffffffffffffffffffffff16038311610f6b576000610f81565b89856dffffffffffffffffffffffffffff160383035b90506000821180610f925750600081115b610fe7576040517f08c379a00000000000000000000000000000000000000000000000000000000081526004018080602001828103825260288152602001806147c76028913960400191505060405180910390fd5b600061102361100060038561361b90919063ffffffff16565b6110156103e88861361b90919063ffffffff16565b6136b090919063ffffffff16565b9050600061106161103e60038561361b90919063ffffffff16565b6110536103e88861361b90919063ffffffff16565b6136b090919063ffffffff16565b90506110ab620f424061109d896dffffffffffffffffffffffffffff168b6dffffffffffffffffffffffffffff1661361b90919063ffffffff16565b61361b90919063ffffffff16565b6110be828461361b90919063ffffffff16565b1015611132576040517f08c379a00000000000000000000000000000000000000000000000000000000081526004018080602001828103825260108152602001807f4d6f726f63636f5377617056323a204b0000000000000000000000000000000081525060200191505060405180910390fd5b505061114084848888613733565b8873ffffffffffffffffffffffffffffffffffffffff163373ffffffffffffffffffffffffffffffffffffffff167fd78ad95fa46c994b6551d0da85fc275fe613ce37657fb8d5e3d130840159d82284848f8f6040518085815260200184815260200183815260200182815260200194505050505060405180910390a35050505050506001600d819055505050505050565b6040518060400160405280601581526020017f4d6f726f63636f5377617056204c5020546f6b656e000000000000000000000081525081565b6000806000600960009054906101000a90046dffffffffffffffffffffffffffff1692506009600e9054906101000a90046dffffffffffffffffffffffffffff1691506009601c9054906101000a900463ffffffff169050909192565b6000611275338484613a91565b6001905092915050565b600760009054906101000a900473ffffffffffffffffffffffffffffffffffffffff1681565b60005481565b60007fffffffffffffffffffffffffffffffffffffffffffffffffffffffffffffffff600260008673ffffffffffffffffffffffffffffffffffffffff1673ffffffffffffffffffffffffffffffffffffffff16815260200190815260200160002060003373ffffffffffffffffffffffffffffffffffffffff1673ffffffffffffffffffffffffffffffffffffffff1681526020019081526020016000205414611460576113df82600260008773ffffffffffffffffffffffffffffffffffffffff1673ffffffffffffffffffffffffffffffffffffffff16815260200190815260200160002060003373ffffffffffffffffffffffffffffffffffffffff1673ffffffffffffffffffffffffffffffffffffffff168152602001908152602001600020546136b090919063ffffffff16565b600260008673ffffffffffffffffffffffffffffffffffffffff1673ffffffffffffffffffffffffffffffffffffffff16815260200190815260200160002060003373ffffffffffffffffffffffffffffffffffffffff1673ffffffffffffffffffffffffffffffffffffffff168152602001908152602001600020819055505b61146b848484613b7c565b600190509392505050565b7f6e71edae12b1b97f4d1f60370fef10105fa2faae0126114a169c64845d6126c960001b81565b601281565b60035481565b600a5481565b600b5481565b60006001600d541461152e576040517f08c379a00000000000000000000000000000000000000000000000000000000081526004018080602001828103825260158152602001807f4d6f726f63636f5377617056323a204c4f434b4544000000000000000000000081525060200191505060405180910390fd5b6000600d8190555060008061154161120b565b50915091506000600760009054906101000a900473ffffffffffffffffffffffffffffffffffffffff1673ffffffffffffffffffffffffffffffffffffffff166370a08231306040518263ffffffff1660e01b8152600401808273ffffffffffffffffffffffffffffffffffffffff16815260200191505060206040518083038186803b1580156115d157600080fd5b505afa1580156115e5573d6000803e3d6000fd5b505050506040513d60208110156115fb57600080fd5b810190808051906020019092919050505090506000600860009054906101000a900473ffffffffffffffffffffffffffffffffffffffff1673ffffffffffffffffffffffffffffffffffffffff166370a08231306040518263ffffffff1660e01b8152600401808273ffffffffffffffffffffffffffffffffffffffff16815260200191505060206040518083038186803b15801561169957600080fd5b505afa1580156116ad573d6000803e3d6000fd5b505050506040513d60208110156116c357600080fd5b8101908080519060200190929190505050905060006116fb856dffffffffffffffffffffffffffff16846136b090919063ffffffff16565b90506000611722856dffffffffffffffffffffffffffff16846136b090919063ffffffff16565b905060006117308787613d10565b90506000805490506000811415611784576117706103e861176261175d868861361b90919063ffffffff16565b613ef1565b6136b090919063ffffffff16565b985061177f60006103e8613f53565b6117e7565b6117e4886dffffffffffffffffffffffffffff166117ab838761361b90919063ffffffff16565b816117b257fe5b04886dffffffffffffffffffffffffffff166117d7848761361b90919063ffffffff16565b816117de57fe5b0461406d565b98505b60008911611840576040517f08c379a000000000000000000000000000000000000000000000000000000000815260040180806020018281038252602c815260200180614840602c913960400191505060405180910390fd5b60001515600560009054906101000a900473ffffffffffffffffffffffffffffffffffffffff1673ffffffffffffffffffffffffffffffffffffffff16638456cb596040518163ffffffff1660e01b815260040160206040518083038186803b1580156118ac57600080fd5b505afa1580156118c0573d6000803e3d6000fd5b505050506040513d60208110156118d657600080fd5b810190808051906020019092919050505015151415611f6557600660009054906101000a900473ffffffffffffffffffffffffffffffffffffffff1673ffffffffffffffffffffffffffffffffffffffff1663ad5c46486040518163ffffffff1660e01b815260040160206040518083038186803b15801561195757600080fd5b505afa15801561196b573d6000803e3d6000fd5b505050506040513d602081101561198157600080fd5b810190808051906020019092919050505073ffffffffffffffffffffffffffffffffffffffff16600760009054906101000a900473ffffffffffffffffffffffffffffffffffffffff1673ffffffffffffffffffffffffffffffffffffffff1614611b1257611a9c6002600760009054906101000a900473ffffffffffffffffffffffffffffffffffffffff1673ffffffffffffffffffffffffffffffffffffffff166318160ddd6040518163ffffffff1660e01b815260040160206040518083038186803b158015611a5357600080fd5b505afa158015611a67573d6000803e3d6000fd5b505050506040513d6020811015611a7d57600080fd5b810190808051906020019092919050505061408690919063ffffffff16565b861115611b11576040517f08c379a00000000000000000000000000000000000000000000000000000000081526004018080602001828103825260178152602001807f506f6f6c206d617820737570706c79207265616368656400000000000000000081525060200191505060405180910390fd5b5b600660009054906101000a900473ffffffffffffffffffffffffffffffffffffffff1673ffffffffffffffffffffffffffffffffffffffff1663ad5c46486040518163ffffffff1660e01b815260040160206040518083038186803b158015611b7a57600080fd5b505afa158015611b8e573d6000803e3d6000fd5b505050506040513d6020811015611ba457600080fd5b810190808051906020019092919050505073ffffffffffffffffffffffffffffffffffffffff16600860009054906101000a900473ffffffffffffffffffffffffffffffffffffffff1673ffffffffffffffffffffffffffffffffffffffff1614611d3557611cbf6002600860009054906101000a900473ffffffffffffffffffffffffffffffffffffffff1673ffffffffffffffffffffffffffffffffffffffff166318160ddd6040518163ffffffff1660e01b815260040160206040518083038186803b158015611c7657600080fd5b505afa158015611c8a573d6000803e3d6000fd5b505050506040513d6020811015611ca057600080fd5b810190808051906020019092919050505061408690919063ffffffff16565b851115611d34576040517f08c379a00000000000000000000000000000000000000000000000000000000081526004018080602001828103825260178152602001807f506f6f6c206d617820737570706c79207265616368656400000000000000000081525060200191505060405180910390fd5b5b6000611ea0600560009054906101000a900473ffffffffffffffffffffffffffffffffffffffff1673ffffffffffffffffffffffffffffffffffffffff1663b0392fe36040518163ffffffff1660e01b815260040160206040518083038186803b158015611da257600080fd5b505afa158015611db6573d6000803e3d6000fd5b505050506040513d6020811015611dcc57600080fd5b8101908080519060200190929190505050611e92600560009054906101000a900473ffffffffffffffffffffffffffffffffffffffff1673ffffffffffffffffffffffffffffffffffffffff166356a062356040518163ffffffff1660e01b815260040160206040518083038186803b158015611e4857600080fd5b505afa158015611e5c573d6000803e3d6000fd5b505050506040513d6020811015611e7257600080fd5b81019080805190602001909291905050508d61361b90919063ffffffff16565b61408690919063ffffffff16565b9050611eb5818b6136b090919063ffffffff16565b9950611f63600560009054906101000a900473ffffffffffffffffffffffffffffffffffffffff1673ffffffffffffffffffffffffffffffffffffffff16631803e2846040518163ffffffff1660e01b815260040160206040518083038186803b158015611f2257600080fd5b505afa158015611f36573d6000803e3d6000fd5b505050506040513d6020811015611f4c57600080fd5b810190808051906020019092919050505082613f53565b505b611f6f8a8a613f53565b611f7b86868a8a613733565b8115611ff357611fec6009600e9054906101000a90046dffffffffffffffffffffffffffff166dffffffffffffffffffffffffffff16600960009054906101000a90046dffffffffffffffffffffffffffff166dffffffffffffffffffffffffffff1661361b90919063ffffffff16565b600c819055505b3373ffffffffffffffffffffffffffffffffffffffff167f4c209b5fc8ad50758f13e2e1088ba56a560dff690a1c6fef26394f4c03821c4f8585604051808381526020018281526020019250505060405180910390a250505050505050506001600d81905550919050565b60016020528060005260406000206000915090505481565b600c5481565b60046020528060005260406000206000915090505481565b6000806001600d541461210f576040517f08c379a00000000000000000000000000000000000000000000000000000000081526004018080602001828103825260158152602001807f4d6f726f63636f5377617056323a204c4f434b4544000000000000000000000081525060200191505060405180910390fd5b6000600d8190555060008061212261120b565b50915091506000600760009054906101000a900473ffffffffffffffffffffffffffffffffffffffff1690506000600860009054906101000a900473ffffffffffffffffffffffffffffffffffffffff16905060008273ffffffffffffffffffffffffffffffffffffffff166370a08231306040518263ffffffff1660e01b8152600401808273ffffffffffffffffffffffffffffffffffffffff16815260200191505060206040518083038186803b1580156121de57600080fd5b505afa1580156121f2573d6000803e3d6000fd5b505050506040513d602081101561220857600080fd5b8101908080519060200190929190505050905060008273ffffffffffffffffffffffffffffffffffffffff166370a08231306040518263ffffffff1660e01b8152600401808273ffffffffffffffffffffffffffffffffffffffff16815260200191505060206040518083038186803b15801561228457600080fd5b505afa158015612298573d6000803e3d6000fd5b505050506040513d60208110156122ae57600080fd5b810190808051906020019092919050505090506000600160003073ffffffffffffffffffffffffffffffffffffffff1673ffffffffffffffffffffffffffffffffffffffff1681526020019081526020016000205490507f7dff583196b5c976a9839402ca287288fbe0bcdd68e3281060229a9c47962d9a816040518082815260200191505060405180910390a160001515600560009054906101000a900473ffffffffffffffffffffffffffffffffffffffff1673ffffffffffffffffffffffffffffffffffffffff16638456cb596040518163ffffffff1660e01b815260040160206040518083038186803b1580156123a857600080fd5b505afa1580156123bc573d6000803e3d6000fd5b505050506040513d60208110156123d257600080fd5b81019080805190602001909291905050501515141561261c576000612556600560009054906101000a900473ffffffffffffffffffffffffffffffffffffffff1673ffffffffffffffffffffffffffffffffffffffff1663b0392fe36040518163ffffffff1660e01b815260040160206040518083038186803b15801561245857600080fd5b505afa15801561246c573d6000803e3d6000fd5b505050506040513d602081101561248257600080fd5b8101908080519060200190929190505050612548600560009054906101000a900473ffffffffffffffffffffffffffffffffffffffff1673ffffffffffffffffffffffffffffffffffffffff166356a062356040518163ffffffff1660e01b815260040160206040518083038186803b1580156124fe57600080fd5b505afa158015612512573d6000803e3d6000fd5b505050506040513d602081101561252857600080fd5b81019080805190602001909291905050508561361b90919063ffffffff16565b61408690919063ffffffff16565b905061256b81836136b090919063ffffffff16565b915061261a30600560009054906101000a900473ffffffffffffffffffffffffffffffffffffffff1673ffffffffffffffffffffffffffffffffffffffff16631803e2846040518163ffffffff1660e01b815260040160206040518083038186803b1580156125d957600080fd5b505afa1580156125ed573d6000803e3d6000fd5b505050506040513d602081101561260357600080fd5b810190808051906020019092919050505083613b7c565b505b60006126288888613d10565b905060008054905080612644868561361b90919063ffffffff16565b8161264b57fe5b049a5080612662858561361b90919063ffffffff16565b8161266957fe5b04995060008b11801561267c575060008a115b6126d1576040517f08c379a000000000000000000000000000000000000000000000000000000000815260040180806020018281038252602c8152602001806147ef602c913960400191505060405180910390fd5b6126db30846140d0565b6126e787878d8d6141ea565b809b50819c5050506126fa878d8d6133e4565b612705868d8c6133e4565b8673ffffffffffffffffffffffffffffffffffffffff166370a08231306040518263ffffffff1660e01b8152600401808273ffffffffffffffffffffffffffffffffffffffff16815260200191505060206040518083038186803b15801561276c57600080fd5b505afa158015612780573d6000803e3d6000fd5b505050506040513d602081101561279657600080fd5b810190808051906020019092919050505094508573ffffffffffffffffffffffffffffffffffffffff166370a08231306040518263ffffffff1660e01b8152600401808273ffffffffffffffffffffffffffffffffffffffff16815260200191505060206040518083038186803b15801561281057600080fd5b505afa158015612824573d6000803e3d6000fd5b505050506040513d602081101561283a57600080fd5b8101908080519060200190929190505050935061285985858b8b613733565b81156128d1576128ca6009600e9054906101000a90046dffffffffffffffffffffffffffff166dffffffffffffffffffffffffffff16600960009054906101000a90046dffffffffffffffffffffffffffff166dffffffffffffffffffffffffffff1661361b90919063ffffffff16565b600c819055505b8b73ffffffffffffffffffffffffffffffffffffffff163373ffffffffffffffffffffffffffffffffffffffff167fdccd412f0b1252819cb1fd330b93224ca42612892bb3f4f789976e6d819364968d8d604051808381526020018281526020019250505060405180910390a35050505050505050506001600d81905550915091565b6040518060400160405280600481526020017f4d534c500000000000000000000000000000000000000000000000000000000081525081565b600061299a338484613b7c565b6001905092915050565b6103e881565b6001600d5414612a22576040517f08c379a00000000000000000000000000000000000000000000000000000000081526004018080602001828103825260158152602001807f4d6f726f63636f5377617056323a204c4f434b4544000000000000000000000081525060200191505060405180910390fd5b6000600d819055506000600760009054906101000a900473ffffffffffffffffffffffffffffffffffffffff1690506000600860009054906101000a900473ffffffffffffffffffffffffffffffffffffffff169050612b628284612b5d600960009054906101000a90046dffffffffffffffffffffffffffff166dffffffffffffffffffffffffffff168673ffffffffffffffffffffffffffffffffffffffff166370a08231306040518263ffffffff1660e01b8152600401808273ffffffffffffffffffffffffffffffffffffffff16815260200191505060206040518083038186803b158015612b1457600080fd5b505afa158015612b28573d6000803e3d6000fd5b505050506040513d6020811015612b3e57600080fd5b81019080805190602001909291905050506136b090919063ffffffff16565b6133e4565b612c4c8184612c476009600e9054906101000a90046dffffffffffffffffffffffffffff166dffffffffffffffffffffffffffff168573ffffffffffffffffffffffffffffffffffffffff166370a08231306040518263ffffffff1660e01b8152600401808273ffffffffffffffffffffffffffffffffffffffff16815260200191505060206040518083038186803b158015612bfe57600080fd5b505afa158015612c12573d6000803e3d6000fd5b505050506040513d6020811015612c2857600080fd5b81019080805190602001909291905050506136b090919063ffffffff16565b6133e4565b50506001600d8190555050565b600560009054906101000a900473ffffffffffffffffffffffffffffffffffffffff1673ffffffffffffffffffffffffffffffffffffffff163373ffffffffffffffffffffffffffffffffffffffff1614612d1c576040517f08c379a00000000000000000000000000000000000000000000000000000000081526004018080602001828103825260188152602001807f4d6f726f63636f5377617056323a20464f5242494444454e000000000000000081525060200191505060405180910390fd5b82600760006101000a81548173ffffffffffffffffffffffffffffffffffffffff021916908373ffffffffffffffffffffffffffffffffffffffff16021790555081600860006101000a81548173ffffffffffffffffffffffffffffffffffffffff021916908373ffffffffffffffffffffffffffffffffffffffff16021790555080600660006101000a81548173ffffffffffffffffffffffffffffffffffffffff021916908373ffffffffffffffffffffffffffffffffffffffff160217905550505050565b600560009054906101000a900473ffffffffffffffffffffffffffffffffffffffff1681565b600860009054906101000a900473ffffffffffffffffffffffffffffffffffffffff1681565b42841015612ea6576040517f08c379a00000000000000000000000000000000000000000000000000000000081526004018080602001828103825260168152602001807f4d6f726f63636f5377617056323a20455850495245440000000000000000000081525060200191505060405180910390fd5b60006003547f6e71edae12b1b97f4d1f60370fef10105fa2faae0126114a169c64845d6126c960001b898989600460008e73ffffffffffffffffffffffffffffffffffffffff1673ffffffffffffffffffffffffffffffffffffffff1681526020019081526020016000206000815480929190600101919050558a604051602001808781526020018673ffffffffffffffffffffffffffffffffffffffff1681526020018573ffffffffffffffffffffffffffffffffffffffff16815260200184815260200183815260200182815260200196505050505050506040516020818303038152906040528051906020012060405160200180807f190100000000000000000000000000000000000000000000000000000000000081525060020183815260200182815260200192505050604051602081830303815290604052805190602001209050600060018286868660405160008152602001604052604051808581526020018460ff1681526020018381526020018281526020019450505050506020604051602081039080840390855afa158015613049573d6000803e3d6000fd5b505050602060405103519050600073ffffffffffffffffffffffffffffffffffffffff168173ffffffffffffffffffffffffffffffffffffffff16141580156130bd57508873ffffffffffffffffffffffffffffffffffffffff168173ffffffffffffffffffffffffffffffffffffffff16145b61312f576040517f08c379a00000000000000000000000000000000000000000000000000000000081526004018080602001828103825260208152602001807f4d6f726f63636f5377617056323a20494e56414c49445f5349474e415455524581525060200191505060405180910390fd5b61313a898989613a91565b505050505050505050565b6002602052816000526040600020602052806000526040600020600091509150505481565b600660009054906101000a900473ffffffffffffffffffffffffffffffffffffffff1681565b6001600d5414613208576040517f08c379a00000000000000000000000000000000000000000000000000000000081526004018080602001828103825260158152602001807f4d6f726f63636f5377617056323a204c4f434b4544000000000000000000000081525060200191505060405180910390fd5b6000600d819055506133da600760009054906101000a900473ffffffffffffffffffffffffffffffffffffffff1673ffffffffffffffffffffffffffffffffffffffff166370a08231306040518263ffffffff1660e01b8152600401808273ffffffffffffffffffffffffffffffffffffffff16815260200191505060206040518083038186803b15801561329c57600080fd5b505afa1580156132b0573d6000803e3d6000fd5b505050506040513d60208110156132c657600080fd5b8101908080519060200190929190505050600860009054906101000a900473ffffffffffffffffffffffffffffffffffffffff1673ffffffffffffffffffffffffffffffffffffffff166370a08231306040518263ffffffff1660e01b8152600401808273ffffffffffffffffffffffffffffffffffffffff16815260200191505060206040518083038186803b15801561336057600080fd5b505afa158015613374573d6000803e3d6000fd5b505050506040513d602081101561338a57600080fd5b8101908080519060200190929190505050600960009054906101000a90046dffffffffffffffffffffffffffff166009600e9054906101000a90046dffffffffffffffffffffffffffff16613733565b6001600d81905550565b600060608473ffffffffffffffffffffffffffffffffffffffff166040518060400160405280601981526020017f7472616e7366657228616464726573732c75696e743235362900000000000000815250805190602001208585604051602401808373ffffffffffffffffffffffffffffffffffffffff16815260200182815260200192505050604051602081830303815290604052907bffffffffffffffffffffffffffffffffffffffffffffffffffffffff19166020820180517bffffffffffffffffffffffffffffffffffffffffffffffffffffffff83818316178352505050506040518082805190602001908083835b602083106134fb57805182526020820191506020810190506020830392506134d8565b6001836020036101000a0380198251168184511680821785525050505050509050019150506000604051808303816000865af19150503d806000811461355d576040519150601f19603f3d011682016040523d82523d6000602084013e613562565b606091505b50915091508180156135a257506000815114806135a1575080806020019051602081101561358f57600080fd5b81019080805190602001909291905050505b5b613614576040517f08c379a000000000000000000000000000000000000000000000000000000000815260040180806020018281038252601e8152602001807f4d6f726f63636f5377617056323a205452414e534645525f4641494c4544000081525060200191505060405180910390fd5b5050505050565b600080821480613638575082828385029250828161363557fe5b04145b6136aa576040517f08c379a00000000000000000000000000000000000000000000000000000000081526004018080602001828103825260148152602001807f64732d6d6174682d6d756c2d6f766572666c6f7700000000000000000000000081525060200191505060405180910390fd5b92915050565b600082828403915081111561372d576040517f08c379a00000000000000000000000000000000000000000000000000000000081526004018080602001828103825260158152602001807f64732d6d6174682d7375622d756e646572666c6f77000000000000000000000081525060200191505060405180910390fd5b92915050565b7fffffffffffffffffffffffffffffffffffffffffffffffffffffffffffffffff6dffffffffffffffffffffffffffff1684111580156137a357507fffffffffffffffffffffffffffffffffffffffffffffffffffffffffffffffff6dffffffffffffffffffffffffffff168311155b613815576040517f08c379a00000000000000000000000000000000000000000000000000000000081526004018080602001828103825260178152602001807f4d6f726f63636f5377617056323a204f564552464c4f5700000000000000000081525060200191505060405180910390fd5b6000640100000000428161382557fe5b06905060006009601c9054906101000a900463ffffffff168203905060008163ffffffff1611801561386857506000846dffffffffffffffffffffffffffff1614155b801561388557506000836dffffffffffffffffffffffffffff1614155b15613967578063ffffffff166138ca8561389e866145f2565b7bffffffffffffffffffffffffffffffffffffffffffffffffffffffff1661461d90919063ffffffff16565b7bffffffffffffffffffffffffffffffffffffffffffffffffffffffff1602600a600082825401925050819055508063ffffffff166139388461390c876145f2565b7bffffffffffffffffffffffffffffffffffffffffffffffffffffffff1661461d90919063ffffffff16565b7bffffffffffffffffffffffffffffffffffffffffffffffffffffffff1602600b600082825401925050819055505b85600960006101000a8154816dffffffffffffffffffffffffffff02191690836dffffffffffffffffffffffffffff160217905550846009600e6101000a8154816dffffffffffffffffffffffffffff02191690836dffffffffffffffffffffffffffff160217905550816009601c6101000a81548163ffffffff021916908363ffffffff1602179055507f1c411e9a96e071241c2f21f7726b17ae89e3cab4c78be50e062b03a9fffbbad1600960009054906101000a90046dffffffffffffffffffffffffffff166009600e9054906101000a90046dffffffffffffffffffffffffffff1660405180836dffffffffffffffffffffffffffff168152602001826dffffffffffffffffffffffffffff1681526020019250505060405180910390a1505050505050565b80600260008573ffffffffffffffffffffffffffffffffffffffff1673ffffffffffffffffffffffffffffffffffffffff16815260200190815260200160002060008473ffffffffffffffffffffffffffffffffffffffff1673ffffffffffffffffffffffffffffffffffffffff168152602001908152602001600020819055508173ffffffffffffffffffffffffffffffffffffffff168373ffffffffffffffffffffffffffffffffffffffff167f8c5be1e5ebec7d5bd14f71427d1e84f3dd0314c0f7b2291e5b200ac8c7c3b925836040518082815260200191505060405180910390a3505050565b613bce81600160008673ffffffffffffffffffffffffffffffffffffffff1673ffffffffffffffffffffffffffffffffffffffff168152602001908152602001600020546136b090919063ffffffff16565b600160008573ffffffffffffffffffffffffffffffffffffffff1673ffffffffffffffffffffffffffffffffffffffff16815260200190815260200160002081905550613c6381600160008573ffffffffffffffffffffffffffffffffffffffff1673ffffffffffffffffffffffffffffffffffffffff1681526020019081526020016000205461467d90919063ffffffff16565b600160008473ffffffffffffffffffffffffffffffffffffffff1673ffffffffffffffffffffffffffffffffffffffff168152602001908152602001600020819055508173ffffffffffffffffffffffffffffffffffffffff168373ffffffffffffffffffffffffffffffffffffffff167fddf252ad1be2c89b69c2b068fc378daa952ba7f163c4a11628f55a4df523b3ef836040518082815260200191505060405180910390a3505050565b600080600560009054906101000a900473ffffffffffffffffffffffffffffffffffffffff1673ffffffffffffffffffffffffffffffffffffffff1663017e7e586040518163ffffffff1660e01b815260040160206040518083038186803b158015613d7b57600080fd5b505afa158015613d8f573d6000803e3d6000fd5b505050506040513d6020811015613da557600080fd5b81019080805190602001909291905050509050600073ffffffffffffffffffffffffffffffffffffffff168173ffffffffffffffffffffffffffffffffffffffff16141591506000600c5490508215613ed75760008114613ed2576000613e3d613e38866dffffffffffffffffffffffffffff16886dffffffffffffffffffffffffffff1661361b90919063ffffffff16565b613ef1565b90506000613e4a83613ef1565b905080821115613ecf576000613e7d613e6c83856136b090919063ffffffff16565b60005461361b90919063ffffffff16565b90506000613ea783613e9960058761361b90919063ffffffff16565b61467d90919063ffffffff16565b90506000818381613eb457fe5b0490506000811115613ecb57613eca8782613f53565b5b5050505b50505b613ee9565b60008114613ee8576000600c819055505b5b505092915050565b60006003821115613f40578190506000600160028481613f0d57fe5b040190505b81811015613f3a57809150600281828581613f2957fe5b040181613f3257fe5b049050613f12565b50613f4e565b60008214613f4d57600190505b5b919050565b613f688160005461467d90919063ffffffff16565b600081905550613fc081600160008573ffffffffffffffffffffffffffffffffffffffff1673ffffffffffffffffffffffffffffffffffffffff1681526020019081526020016000205461467d90919063ffffffff16565b600160008473ffffffffffffffffffffffffffffffffffffffff1673ffffffffffffffffffffffffffffffffffffffff168152602001908152602001600020819055508173ffffffffffffffffffffffffffffffffffffffff16600073ffffffffffffffffffffffffffffffffffffffff167fddf252ad1be2c89b69c2b068fc378daa952ba7f163c4a11628f55a4df523b3ef836040518082815260200191505060405180910390a35050565b600081831061407c578161407e565b825b905092915050565b60006140c883836040518060400160405280601a81526020017f536166654d6174683a206469766973696f6e206279207a65726f000000000000815250614700565b905092915050565b61412281600160008573ffffffffffffffffffffffffffffffffffffffff1673ffffffffffffffffffffffffffffffffffffffff168152602001908152602001600020546136b090919063ffffffff16565b600160008473ffffffffffffffffffffffffffffffffffffffff1673ffffffffffffffffffffffffffffffffffffffff1681526020019081526020016000208190555061417a816000546136b090919063ffffffff16565b600081905550600073ffffffffffffffffffffffffffffffffffffffff168273ffffffffffffffffffffffffffffffffffffffff167fddf252ad1be2c89b69c2b068fc378daa952ba7f163c4a11628f55a4df523b3ef836040518082815260200191505060405180910390a35050565b60008060001515600560009054906101000a900473ffffffffffffffffffffffffffffffffffffffff1673ffffffffffffffffffffffffffffffffffffffff16638456cb596040518163ffffffff1660e01b815260040160206040518083038186803b15801561425957600080fd5b505afa15801561426d573d6000803e3d6000fd5b505050506040513d602081101561428357600080fd5b8101908080519060200190929190505050151514156145e2576000600560009054906101000a900473ffffffffffffffffffffffffffffffffffffffff1673ffffffffffffffffffffffffffffffffffffffff1663b0392fe36040518163ffffffff1660e01b815260040160206040518083038186803b15801561430657600080fd5b505afa15801561431a573d6000803e3d6000fd5b505050506040513d602081101561433057600080fd5b810190808051906020019092919050505090506000600560009054906101000a900473ffffffffffffffffffffffffffffffffffffffff1673ffffffffffffffffffffffffffffffffffffffff16636b663cd06040518163ffffffff1660e01b815260040160206040518083038186803b1580156143ad57600080fd5b505afa1580156143c1573d6000803e3d6000fd5b505050506040513d60208110156143d757600080fd5b81019080805190602001909291905050509050600061441183614403848a61361b90919063ffffffff16565b61408690919063ffffffff16565b9050600061443a8461442c858a61361b90919063ffffffff16565b61408690919063ffffffff16565b90506000600560009054906101000a900473ffffffffffffffffffffffffffffffffffffffff1673ffffffffffffffffffffffffffffffffffffffff16632f667ea46040518163ffffffff1660e01b815260040160206040518083038186803b1580156144a657600080fd5b505afa1580156144ba573d6000803e3d6000fd5b505050506040513d60208110156144d057600080fd5b810190808051906020019092919050505090506144ee8b82856133e4565b6144f98a82846133e4565b8073ffffffffffffffffffffffffffffffffffffffff166312955c138c8c8c8c6040518563ffffffff1660e01b8152600401808573ffffffffffffffffffffffffffffffffffffffff1681526020018473ffffffffffffffffffffffffffffffffffffffff168152602001838152602001828152602001945050505050600060405180830381600087803b15801561459057600080fd5b505af11580156145a4573d6000803e3d6000fd5b505050506145bb838a6136b090919063ffffffff16565b98506145d082896136b090919063ffffffff16565b975088889650965050505050506145e9565b8383915091505b94509492505050565b60006e010000000000000000000000000000826dffffffffffffffffffffffffffff16029050919050565b6000816dffffffffffffffffffffffffffff167bffffffffffffffffffffffffffffffffffffffffffffffffffffffff16837bffffffffffffffffffffffffffffffffffffffffffffffffffffffff168161467457fe5b04905092915050565b60008282840191508110156146fa576040517f08c379a00000000000000000000000000000000000000000000000000000000081526004018080602001828103825260148152602001807f64732d6d6174682d6164642d6f766572666c6f7700000000000000000000000081525060200191505060405180910390fd5b92915050565b600080831182906147ac576040517f08c379a00000000000000000000000000000000000000000000000000000000081526004018080602001828103825283818151815260200191508051906020019080838360005b83811015614771578082015181840152602081019050614756565b50505050905090810190601f16801561479e5780820380516001836020036101000a031916815260200191505b509250505060405180910390fd5b5060008385816147b857fe5b04905080915050939250505056fe4d6f726f63636f5377617056323a20494e53554646494349454e545f494e5055545f414d4f554e544d6f726f63636f5377617056323a20494e53554646494349454e545f4c49515549444954595f4255524e45444d6f726f63636f5377617056323a20494e53554646494349454e545f4c49515549444954594d6f726f63636f5377617056323a20494e53554646494349454e545f4c49515549444954595f4d494e5445444d6f726f63636f5377617056323a20494e53554646494349454e545f4f55545055545f414d4f554e54a2646970667358221220e40dddc21e4e51c05f3369c2fdccb97ca5b03ff865adcce1c29631e3f437d1d564736f6c634300060c00334d6f726f63636f5377617056323a204944454e544943414c5f414444524553534553a2646970667358221220fbac806ef65990ee68780b361e5106e62f3ce32bf28ae1927c1f064986fab18b64736f6c634300060c0033",
  "immutableReferences": {},
  "source": "// SPDX-License-Identifier: GPL-3.0\n\npragma solidity 0.6.12;\n\nimport './interfaces/IMoroccoSwapV2Factory.sol';\nimport './MoroccoSwapV2Pair.sol';\nimport './MoroccoSwapFeeTransfer.sol';\nimport './interfaces/IERC20.sol';\n\n\ncontract MoroccoSwapV2Factory is IMoroccoSwapV2Factory {\n    uint256 public override constant PERCENT100 = 1000000; \n    address public override constant DEADADDRESS = 0x000000000000000000000000000000000000dEaD;\n\n    address public override feeTo;\n    address public override feeToSetter;\n    address public router;\n\n    address public override feeTransfer; // In out Tax receiver\n    uint256 public override InoutTax = 12500 ; // Inout tax fee \n    uint256 public override swapTax = 2500; // swap tax fee \n    uint256 public override InOutTotalFee = 30000;\n    // Up to 4 decimal\n    uint256 public override lockFee = 2500; \n    bool public override pause = false;\n\n    mapping(address => mapping(address => address)) public override getPair;\n    address[] public override allPairs;\n\n    event PairCreated(address indexed token0, address indexed token1, address pair, uint);\n\n    constructor(address _feeToSetter) public {\n        require(_feeToSetter != address(0x000), \"Zero address\");\n        feeToSetter = _feeToSetter;\n       \n    }\n\n    function allPairsLength() external override view returns (uint) {\n        return allPairs.length;\n    }\n\n    function pairCodeHash() external pure returns (bytes32) {\n        return keccak256(type(MoroccoSwapV2Pair).creationCode);\n    }\n\n    function createPair(address tokenA, address tokenB) external override returns (address pair) {\n        require(tokenA != tokenB, 'MoroccoSwapV2: IDENTICAL_ADDRESSES');\n        (address token0, address token1) = tokenA < tokenB ? (tokenA, tokenB) : (tokenB, tokenA);\n        require(token0 != address(0), 'MoroccoSwapV2: ZERO_ADDRESS');\n        require(getPair[token0][token1] == address(0), 'MoroccoSwapV2: PAIR_EXISTS'); // single check is sufficient\n        bytes memory bytecode = type(MoroccoSwapV2Pair).creationCode;\n        bytes32 salt = keccak256(abi.encodePacked(token0, token1));\n        assembly {\n            pair := create2(0, add(bytecode, 32), mload(bytecode), salt)\n        }\n        MoroccoSwapV2Pair(pair).initialize(token0, token1, router);\n        getPair[token0][token1] = pair;\n        getPair[token1][token0] = pair; // populate mapping in the reverse direction\n        allPairs.push(pair);\n        if(!pause){\n           IFarm(MoroccoSwapFeeTransfer(feeTransfer).farm()).addLPInfo(IERC20(pair), IERC20(tokenA), IERC20(tokenB));\n        }\n        emit PairCreated(token0, token1, pair, allPairs.length);\n    }\n\n    function setFeeToSetter(address _feeToSetter) external override {\n        require(msg.sender == feeToSetter, 'MoroccoSwapV2: FORBIDDEN');\n        feeToSetter = _feeToSetter;\n    }\n\n    function pauseFee(bool _newStatus) external {\n        require(msg.sender == feeToSetter, 'MoroccoSwapV2: FORBIDDEN');\n        require(_newStatus != pause, 'MoroccoSwapV2: INVALID');\n        pause = _newStatus;\n    }\n\n    function setRouter(address _router) public override {\n        require(tx.origin == feeToSetter, 'MoroccoSwapV2: FORBIDDEN');\n        router = _router;\n    }\n\n    function setFeeTransfer(address _feeTransfer) public override {\n        require(tx.origin == feeToSetter, 'MoroccoSwapV2: FORBIDDEN');\n        feeTransfer = _feeTransfer;\n    }\n\n}\n",
  "sourcePath": "E:\\Work\\Projects\\20220216_spiderswap_Moroco\\MoroccoSwap\\contracts\\swap\\MoroccoSwapV2Factory.sol",
  "compiler": {
    "name": "solc",
    "version": "0.6.12+commit.27d51765.Emscripten.clang"
  },
  "schemaVersion": "3.4.3",
  "updatedAt": "2022-04-08T09:36:12.902Z",
  "devdoc": {
    "kind": "dev",
    "methods": {},
    "version": 1
  },
  "userdoc": {
    "kind": "user",
    "methods": {},
    "version": 1
  }
}