{
  "contractName": "Roulette",
  "abi": [
    {
      "inputs": [
        {
          "internalType": "contract IERC20",
          "name": "_token",
          "type": "address"
        }
      ],
      "stateMutability": "nonpayable",
      "type": "constructor"
    },
    {
      "anonymous": false,
      "inputs": [
        {
          "indexed": false,
          "internalType": "uint256",
          "name": "gameId",
          "type": "uint256"
        },
        {
          "indexed": false,
          "internalType": "uint256",
          "name": "totalReward",
          "type": "uint256"
        }
      ],
      "name": "AddRound",
      "type": "event"
    },
    {
      "anonymous": false,
      "inputs": [
        {
          "indexed": false,
          "internalType": "address",
          "name": "user",
          "type": "address"
        },
        {
          "indexed": false,
          "internalType": "uint256",
          "name": "amount",
          "type": "uint256"
        }
      ],
      "name": "Claim",
      "type": "event"
    },
    {
      "anonymous": false,
      "inputs": [
        {
          "indexed": true,
          "internalType": "address",
          "name": "previousOwner",
          "type": "address"
        },
        {
          "indexed": true,
          "internalType": "address",
          "name": "newOwner",
          "type": "address"
        }
      ],
      "name": "OwnershipTransferred",
      "type": "event"
    },
    {
      "anonymous": false,
      "inputs": [],
      "name": "Paused",
      "type": "event"
    },
    {
      "anonymous": false,
      "inputs": [
        {
          "indexed": false,
          "internalType": "address",
          "name": "addr",
          "type": "address"
        }
      ],
      "name": "SetOperator",
      "type": "event"
    },
    {
      "anonymous": false,
      "inputs": [
        {
          "indexed": false,
          "internalType": "address",
          "name": "user",
          "type": "address"
        },
        {
          "indexed": false,
          "internalType": "uint256",
          "name": "gameId",
          "type": "uint256"
        },
        {
          "indexed": false,
          "internalType": "uint256",
          "name": "position",
          "type": "uint256"
        }
      ],
      "name": "Spin",
      "type": "event"
    },
    {
      "anonymous": false,
      "inputs": [],
      "name": "UnPaused",
      "type": "event"
    },
    {
      "inputs": [],
      "name": "currentRound",
      "outputs": [
        {
          "internalType": "uint256",
          "name": "",
          "type": "uint256"
        }
      ],
      "stateMutability": "view",
      "type": "function"
    },
    {
      "inputs": [],
      "name": "maxGameDuration",
      "outputs": [
        {
          "internalType": "uint256",
          "name": "",
          "type": "uint256"
        }
      ],
      "stateMutability": "view",
      "type": "function"
    },
    {
      "inputs": [
        {
          "internalType": "address",
          "name": "",
          "type": "address"
        }
      ],
      "name": "operator",
      "outputs": [
        {
          "internalType": "bool",
          "name": "",
          "type": "bool"
        }
      ],
      "stateMutability": "view",
      "type": "function"
    },
    {
      "inputs": [],
      "name": "owner",
      "outputs": [
        {
          "internalType": "address",
          "name": "",
          "type": "address"
        }
      ],
      "stateMutability": "view",
      "type": "function"
    },
    {
      "inputs": [],
      "name": "renounceOwnership",
      "outputs": [],
      "stateMutability": "nonpayable",
      "type": "function"
    },
    {
      "inputs": [
        {
          "internalType": "uint256",
          "name": "",
          "type": "uint256"
        }
      ],
      "name": "roundInfo",
      "outputs": [
        {
          "internalType": "uint256",
          "name": "gameId",
          "type": "uint256"
        },
        {
          "internalType": "uint256",
          "name": "startTimestamp",
          "type": "uint256"
        },
        {
          "internalType": "uint256",
          "name": "closeTimestamp",
          "type": "uint256"
        },
        {
          "internalType": "uint256",
          "name": "rewardAmount",
          "type": "uint256"
        },
        {
          "internalType": "uint256",
          "name": "totalWinner",
          "type": "uint256"
        }
      ],
      "stateMutability": "view",
      "type": "function"
    },
    {
      "inputs": [],
      "name": "token",
      "outputs": [
        {
          "internalType": "contract IERC20",
          "name": "",
          "type": "address"
        }
      ],
      "stateMutability": "view",
      "type": "function"
    },
    {
      "inputs": [
        {
          "internalType": "address",
          "name": "newOwner",
          "type": "address"
        }
      ],
      "name": "transferOwnership",
      "outputs": [],
      "stateMutability": "nonpayable",
      "type": "function"
    },
    {
      "inputs": [
        {
          "internalType": "address",
          "name": "",
          "type": "address"
        }
      ],
      "name": "userInfo",
      "outputs": [
        {
          "internalType": "uint256",
          "name": "lastRound",
          "type": "uint256"
        },
        {
          "internalType": "uint256",
          "name": "lastIndex",
          "type": "uint256"
        }
      ],
      "stateMutability": "view",
      "type": "function"
    },
    {
      "inputs": [
        {
          "internalType": "uint256",
          "name": "amount",
          "type": "uint256"
        }
      ],
      "name": "addRound",
      "outputs": [],
      "stateMutability": "nonpayable",
      "type": "function"
    },
    {
      "inputs": [],
      "name": "spin",
      "outputs": [],
      "stateMutability": "nonpayable",
      "type": "function"
    },
    {
      "inputs": [],
      "name": "claim",
      "outputs": [],
      "stateMutability": "nonpayable",
      "type": "function"
    },
    {
      "inputs": [
        {
          "internalType": "address",
          "name": "user",
          "type": "address"
        }
      ],
      "name": "getUserInfo",
      "outputs": [
        {
          "internalType": "uint256[]",
          "name": "totalParticipatedRound",
          "type": "uint256[]"
        },
        {
          "internalType": "uint256",
          "name": "lastRound",
          "type": "uint256"
        },
        {
          "internalType": "uint256",
          "name": "lastIndex",
          "type": "uint256"
        }
      ],
      "stateMutability": "view",
      "type": "function"
    },
    {
      "inputs": [
        {
          "internalType": "address",
          "name": "user",
          "type": "address"
        },
        {
          "internalType": "uint256",
          "name": "gameID",
          "type": "uint256"
        }
      ],
      "name": "getUserTotalSpin",
      "outputs": [
        {
          "internalType": "uint256",
          "name": "red",
          "type": "uint256"
        },
        {
          "internalType": "uint256",
          "name": "blue",
          "type": "uint256"
        }
      ],
      "stateMutability": "view",
      "type": "function"
    },
    {
      "inputs": [],
      "name": "pause",
      "outputs": [],
      "stateMutability": "nonpayable",
      "type": "function"
    },
    {
      "inputs": [],
      "name": "unPause",
      "outputs": [],
      "stateMutability": "nonpayable",
      "type": "function"
    },
    {
      "inputs": [
        {
          "internalType": "address",
          "name": "_addr",
          "type": "address"
        }
      ],
      "name": "setOperator",
      "outputs": [],
      "stateMutability": "nonpayable",
      "type": "function"
    },
    {
      "inputs": [
        {
          "internalType": "address",
          "name": "_token",
          "type": "address"
        }
      ],
      "name": "setRewardToken",
      "outputs": [],
      "stateMutability": "nonpayable",
      "type": "function"
    },
    {
      "inputs": [
        {
          "internalType": "uint256",
          "name": "_duration",
          "type": "uint256"
        }
      ],
      "name": "setMaxGameDuration",
      "outputs": [],
      "stateMutability": "nonpayable",
      "type": "function"
    },
    {
      "inputs": [
        {
          "internalType": "address",
          "name": "receiver",
          "type": "address"
        },
        {
          "internalType": "address[]",
          "name": "_token",
          "type": "address[]"
        }
      ],
      "name": "inCaseTokensGetStuck",
      "outputs": [],
      "stateMutability": "nonpayable",
      "type": "function"
    }
  ],
  "bytecode": "0x6080604052610e1060025534801561001657600080fd5b5060405162002bc438038062002bc48339818101604052602081101561003b57600080fd5b8101908080519060200190929190505050600061005c61014160201b60201c565b9050806000806101000a81548173ffffffffffffffffffffffffffffffffffffffff021916908373ffffffffffffffffffffffffffffffffffffffff1602179055508073ffffffffffffffffffffffffffffffffffffffff16600073ffffffffffffffffffffffffffffffffffffffff167f8be0079c531659141344cd1fd0a4f28419497f9722a3daafe3b4186f6b6457e060405160405180910390a35080600360006101000a81548173ffffffffffffffffffffffffffffffffffffffff021916908373ffffffffffffffffffffffffffffffffffffffff16021790555050610149565b600033905090565b612a6b80620001596000396000f3fe608060405234801561001057600080fd5b506004361061012c5760003560e01c80639a307391116100ad578063caa981f011610071578063caa981f0146104ca578063f0acd7d5146105a2578063f2fde38b146105ac578063f7b188a5146105f0578063fc0c546a146105fa5761012c565b80639a307391146103b2578063b3ab15fb1461040c578063b64ea8c614610450578063c2feb4731461046e578063c9e9fe9c1461049c5761012c565b8063715018a6116100f4578063715018a6146103085780638456cb59146103125780638a19c8bc1461031c5780638aee81271461033a5780638da5cb5b1461037e5761012c565b80631959a00214610131578063427f0b001461019057806342c73571146101ee5780634e71d92d146102575780636386c1c714610261575b600080fd5b6101736004803603602081101561014757600080fd5b81019080803573ffffffffffffffffffffffffffffffffffffffff16906020019092919050505061062e565b604051808381526020018281526020019250505060405180910390f35b6101bc600480360360208110156101a657600080fd5b8101908080359060200190929190505050610652565b604051808681526020018581526020018481526020018381526020018281526020019550505050505060405180910390f35b61023a6004803603604081101561020457600080fd5b81019080803573ffffffffffffffffffffffffffffffffffffffff16906020019092919080359060200190929190505050610688565b604051808381526020018281526020019250505060405180910390f35b61025f610744565b005b6102a36004803603602081101561027757600080fd5b81019080803573ffffffffffffffffffffffffffffffffffffffff169060200190929190505050610c3f565b6040518080602001848152602001838152602001828103825285818151815260200191508051906020019060200280838360005b838110156102f25780820151818401526020810190506102d7565b5050505090500194505050505060405180910390f35b610310610d68565b005b61031a610ed5565b005b610324611050565b6040518082815260200191505060405180910390f35b61037c6004803603602081101561035057600080fd5b81019080803573ffffffffffffffffffffffffffffffffffffffff169060200190929190505050611056565b005b6103866111ec565b604051808273ffffffffffffffffffffffffffffffffffffffff16815260200191505060405180910390f35b6103f4600480360360208110156103c857600080fd5b81019080803573ffffffffffffffffffffffffffffffffffffffff169060200190929190505050611215565b60405180821515815260200191505060405180910390f35b61044e6004803603602081101561042257600080fd5b81019080803573ffffffffffffffffffffffffffffffffffffffff169060200190929190505050611235565b005b61045861142f565b6040518082815260200191505060405180910390f35b61049a6004803603602081101561048457600080fd5b8101908080359060200190929190505050611435565b005b6104c8600480360360208110156104b257600080fd5b81019080803590602001909291905050506114ee565b005b6105a0600480360360408110156104e057600080fd5b81019080803573ffffffffffffffffffffffffffffffffffffffff1690602001909291908035906020019064010000000081111561051d57600080fd5b82018360208201111561052f57600080fd5b8035906020019184602083028401116401000000008311171561055157600080fd5b919080806020026020016040519081016040528093929190818152602001838360200280828437600081840152601f19601f8201169050808301925050505050505091929192905050506116b8565b005b6105aa6118b1565b005b6105ee600480360360208110156105c257600080fd5b81019080803573ffffffffffffffffffffffffffffffffffffffff169060200190929190505050611d39565b005b6105f8611f2b565b005b6106026120a6565b604051808273ffffffffffffffffffffffffffffffffffffffff16815260200191505060405180910390f35b60056020528060005260406000206000915090508060020154908060030154905082565b60046020528060005260406000206000915090508060000154908060010154908060020154908060030154908060040154905085565b600080600560008573ffffffffffffffffffffffffffffffffffffffff1673ffffffffffffffffffffffffffffffffffffffff1681526020019081526020016000206000016000848152602001908152602001600020600001549150600560008573ffffffffffffffffffffffffffffffffffffffff1673ffffffffffffffffffffffffffffffffffffffff16815260200190815260200160002060000160008481526020019081526020016000206001015490509250929050565b600360149054906101000a900460ff16156107c7576040517f08c379a000000000000000000000000000000000000000000000000000000000815260040180806020018281038252600f8152602001807f636f6e7472616374204c6f636b6564000000000000000000000000000000000081525060200191505060405180910390fd5b6000339050426004600060015481526020019081526020016000206002015410610859576040517f08c379a00000000000000000000000000000000000000000000000000000000081526004018080602001828103825260068152602001807f436c6f736564000000000000000000000000000000000000000000000000000081525060200191505060405180910390fd5b6000600560008373ffffffffffffffffffffffffffffffffffffffff1673ffffffffffffffffffffffffffffffffffffffff1681526020019081526020016000206001018054905011610914576040517f08c379a00000000000000000000000000000000000000000000000000000000081526004018080602001828103825260118152602001807f4f6e6c79207061727469636970616e747300000000000000000000000000000081525060200191505060405180910390fd5b600560008273ffffffffffffffffffffffffffffffffffffffff1673ffffffffffffffffffffffffffffffffffffffff16815260200190815260200160002060030154600560008373ffffffffffffffffffffffffffffffffffffffff1673ffffffffffffffffffffffffffffffffffffffff1681526020019081526020016000206001018054905011610a10576040517f08c379a000000000000000000000000000000000000000000000000000000000815260040180806020018281038252600a8152602001807f4e6f2070656e64696e670000000000000000000000000000000000000000000081525060200191505060405180910390fd5b6000806000600560008573ffffffffffffffffffffffffffffffffffffffff1673ffffffffffffffffffffffffffffffffffffffff1681526020019081526020016000206003015490505b600560008573ffffffffffffffffffffffffffffffffffffffff1673ffffffffffffffffffffffffffffffffffffffff16815260200190815260200160002060010180549050811015610bda57600560008573ffffffffffffffffffffffffffffffffffffffff1673ffffffffffffffffffffffffffffffffffffffff1681526020019081526020016000206001018181548110610af557fe5b906000526020600020015491506000600560008673ffffffffffffffffffffffffffffffffffffffff1673ffffffffffffffffffffffffffffffffffffffff16815260200190815260200160002060000160008481526020019081526020016000206001015490506000811115610bcc57610bc9610bba610bab600460008781526020019081526020016000206004015460046000888152602001908152602001600020600301546120cc90919063ffffffff16565b8361215590919063ffffffff16565b856121db90919063ffffffff16565b93505b508080600101915050610a5b565b50610be58383612263565b7f47cee97cb7acd717b3c0aa1435d004cd5b3c8c57d70dbceb4e4458bbd60e39d48383604051808373ffffffffffffffffffffffffffffffffffffffff1681526020018281526020019250505060405180910390a1505050565b6060600080600560008573ffffffffffffffffffffffffffffffffffffffff1673ffffffffffffffffffffffffffffffffffffffff168152602001908152602001600020600101805480602002602001604051908101604052809291908181526020018280548015610cd057602002820191906000526020600020905b815481526020019060010190808311610cbc575b50505050509250600560008573ffffffffffffffffffffffffffffffffffffffff1673ffffffffffffffffffffffffffffffffffffffff168152602001908152602001600020600201549150600560008573ffffffffffffffffffffffffffffffffffffffff1673ffffffffffffffffffffffffffffffffffffffff1681526020019081526020016000206003015490509193909250565b610d706124dc565b73ffffffffffffffffffffffffffffffffffffffff16610d8e6111ec565b73ffffffffffffffffffffffffffffffffffffffff1614610e17576040517f08c379a00000000000000000000000000000000000000000000000000000000081526004018080602001828103825260208152602001807f4f776e61626c653a2063616c6c6572206973206e6f7420746865206f776e657281525060200191505060405180910390fd5b600073ffffffffffffffffffffffffffffffffffffffff1660008054906101000a900473ffffffffffffffffffffffffffffffffffffffff1673ffffffffffffffffffffffffffffffffffffffff167f8be0079c531659141344cd1fd0a4f28419497f9722a3daafe3b4186f6b6457e060405160405180910390a360008060006101000a81548173ffffffffffffffffffffffffffffffffffffffff021916908373ffffffffffffffffffffffffffffffffffffffff160217905550565b610edd6124dc565b73ffffffffffffffffffffffffffffffffffffffff16610efb6111ec565b73ffffffffffffffffffffffffffffffffffffffff1614610f84576040517f08c379a00000000000000000000000000000000000000000000000000000000081526004018080602001828103825260208152602001807f4f776e61626c653a2063616c6c6572206973206e6f7420746865206f776e657281525060200191505060405180910390fd5b600360149054906101000a900460ff1615611007576040517f08c379a000000000000000000000000000000000000000000000000000000000815260040180806020018281038252600e8152602001807f616c72656164792070617573656400000000000000000000000000000000000081525060200191505060405180910390fd5b6001600360146101000a81548160ff0219169083151502179055507f9e87fac88ff661f02d44f95383c817fece4bce600a3dab7a54406878b965e75260405160405180910390a1565b60015481565b61105e6124dc565b73ffffffffffffffffffffffffffffffffffffffff1661107c6111ec565b73ffffffffffffffffffffffffffffffffffffffff1614611105576040517f08c379a00000000000000000000000000000000000000000000000000000000081526004018080602001828103825260208152602001807f4f776e61626c653a2063616c6c6572206973206e6f7420746865206f776e657281525060200191505060405180910390fd5b600073ffffffffffffffffffffffffffffffffffffffff168173ffffffffffffffffffffffffffffffffffffffff1614156111a8576040517f08c379a000000000000000000000000000000000000000000000000000000000815260040180806020018281038252600c8152602001807f7a65726f2061646472657373000000000000000000000000000000000000000081525060200191505060405180910390fd5b80600360006101000a81548173ffffffffffffffffffffffffffffffffffffffff021916908373ffffffffffffffffffffffffffffffffffffffff16021790555050565b60008060009054906101000a900473ffffffffffffffffffffffffffffffffffffffff16905090565b60066020528060005260406000206000915054906101000a900460ff1681565b61123d6124dc565b73ffffffffffffffffffffffffffffffffffffffff1661125b6111ec565b73ffffffffffffffffffffffffffffffffffffffff16146112e4576040517f08c379a00000000000000000000000000000000000000000000000000000000081526004018080602001828103825260208152602001807f4f776e61626c653a2063616c6c6572206973206e6f7420746865206f776e657281525060200191505060405180910390fd5b600073ffffffffffffffffffffffffffffffffffffffff168173ffffffffffffffffffffffffffffffffffffffff161415611387576040517f08c379a000000000000000000000000000000000000000000000000000000000815260040180806020018281038252600c8152602001807f7a65726f2061646472657373000000000000000000000000000000000000000081525060200191505060405180910390fd5b6001600660008373ffffffffffffffffffffffffffffffffffffffff1673ffffffffffffffffffffffffffffffffffffffff16815260200190815260200160002060006101000a81548160ff0219169083151502179055507fdbebfba65bd6398fb722063efc10c99f624f9cd8ba657201056af918a676d5ee81604051808273ffffffffffffffffffffffffffffffffffffffff16815260200191505060405180910390a150565b60025481565b61143d6124dc565b73ffffffffffffffffffffffffffffffffffffffff1661145b6111ec565b73ffffffffffffffffffffffffffffffffffffffff16146114e4576040517f08c379a00000000000000000000000000000000000000000000000000000000081526004018080602001828103825260208152602001807f4f776e61626c653a2063616c6c6572206973206e6f7420746865206f776e657281525060200191505060405180910390fd5b8060028190555050565b60011515600660003373ffffffffffffffffffffffffffffffffffffffff1673ffffffffffffffffffffffffffffffffffffffff16815260200190815260200160002060009054906101000a900460ff161515148061157f57503373ffffffffffffffffffffffffffffffffffffffff166115676111ec565b73ffffffffffffffffffffffffffffffffffffffff16145b6115f1576040517f08c379a00000000000000000000000000000000000000000000000000000000081526004018080602001828103825260128152602001807f4e6f74206f70657261746f722f6f776e6572000000000000000000000000000081525060200191505060405180910390fd5b60018054016001819055506040518060a00160405280600154815260200142815260200160025442018152602001828152602001600081525060046000600154815260200190815260200160002060008201518160000155602082015181600101556040820151816002015560608201518160030155608082015181600401559050507f03dbe8f93f0794ed88fda9d39784efd669d83af7832e58c700e4ffd2be43ce6760015482604051808381526020018281526020019250505060405180910390a150565b6116c06124dc565b73ffffffffffffffffffffffffffffffffffffffff166116de6111ec565b73ffffffffffffffffffffffffffffffffffffffff1614611767576040517f08c379a00000000000000000000000000000000000000000000000000000000081526004018080602001828103825260208152602001807f4f776e61626c653a2063616c6c6572206973206e6f7420746865206f776e657281525060200191505060405180910390fd5b60008073ffffffffffffffffffffffffffffffffffffffff168373ffffffffffffffffffffffffffffffffffffffff16146118ac5760005b82518110156118aa578281815181106117b457fe5b602002602001015173ffffffffffffffffffffffffffffffffffffffff166370a08231306040518263ffffffff1660e01b8152600401808273ffffffffffffffffffffffffffffffffffffffff16815260200191505060206040518083038186803b15801561182257600080fd5b505afa158015611836573d6000803e3d6000fd5b505050506040513d602081101561184c57600080fd5b8101908080519060200190929190505050915061189d338385848151811061187057fe5b602002602001015173ffffffffffffffffffffffffffffffffffffffff166124e49092919063ffffffff16565b808060010191505061179f565b505b505050565b600360149054906101000a900460ff1615611934576040517f08c379a000000000000000000000000000000000000000000000000000000000815260040180806020018281038252600f8152602001807f636f6e7472616374204c6f636b6564000000000000000000000000000000000081525060200191505060405180910390fd5b60003390504260046000600154815260200190815260200160002060020154116119c6576040517f08c379a00000000000000000000000000000000000000000000000000000000081526004018080602001828103825260068152602001807f436c6f736564000000000000000000000000000000000000000000000000000081525060200191505060405180910390fd5b600043426001546040516020018084815260200183815260200182815260200193505050506040516020818303038152906040528051906020012090506000611a1c60028360001c61258690919063ffffffff16565b90506000811415611ae4576001600560008573ffffffffffffffffffffffffffffffffffffffff1673ffffffffffffffffffffffffffffffffffffffff168152602001908152602001600020600001600060015481526020019081526020016000206000015401600560008573ffffffffffffffffffffffffffffffffffffffff1673ffffffffffffffffffffffffffffffffffffffff1681526020019081526020016000206000016000600154815260200190815260200160002060000181905550611bd5565b6001600560008573ffffffffffffffffffffffffffffffffffffffff1673ffffffffffffffffffffffffffffffffffffffff168152602001908152602001600020600001600060015481526020019081526020016000206001015401600560008573ffffffffffffffffffffffffffffffffffffffff1673ffffffffffffffffffffffffffffffffffffffff168152602001908152602001600020600001600060015481526020019081526020016000206001018190555060016004600060015481526020019081526020016000206004015401600460006001548152602001908152602001600020600401819055505b600154600560008573ffffffffffffffffffffffffffffffffffffffff1673ffffffffffffffffffffffffffffffffffffffff1681526020019081526020016000206002015414611cd557600154600560008573ffffffffffffffffffffffffffffffffffffffff1673ffffffffffffffffffffffffffffffffffffffff16815260200190815260200160002060020181905550600560008473ffffffffffffffffffffffffffffffffffffffff1673ffffffffffffffffffffffffffffffffffffffff16815260200190815260200160002060010160015490806001815401808255809150506001900390600052602060002001600090919091909150555b7f6e6176978281d38bd6beedbbb1f1de32c344bde654337da94628f15dd38fa6108360015483604051808473ffffffffffffffffffffffffffffffffffffffff168152602001838152602001828152602001935050505060405180910390a1505050565b611d416124dc565b73ffffffffffffffffffffffffffffffffffffffff16611d5f6111ec565b73ffffffffffffffffffffffffffffffffffffffff1614611de8576040517f08c379a00000000000000000000000000000000000000000000000000000000081526004018080602001828103825260208152602001807f4f776e61626c653a2063616c6c6572206973206e6f7420746865206f776e657281525060200191505060405180910390fd5b600073ffffffffffffffffffffffffffffffffffffffff168173ffffffffffffffffffffffffffffffffffffffff161415611e6e576040517f08c379a000000000000000000000000000000000000000000000000000000000815260040180806020018281038252602681526020018061299f6026913960400191505060405180910390fd5b8073ffffffffffffffffffffffffffffffffffffffff1660008054906101000a900473ffffffffffffffffffffffffffffffffffffffff1673ffffffffffffffffffffffffffffffffffffffff167f8be0079c531659141344cd1fd0a4f28419497f9722a3daafe3b4186f6b6457e060405160405180910390a3806000806101000a81548173ffffffffffffffffffffffffffffffffffffffff021916908373ffffffffffffffffffffffffffffffffffffffff16021790555050565b611f336124dc565b73ffffffffffffffffffffffffffffffffffffffff16611f516111ec565b73ffffffffffffffffffffffffffffffffffffffff1614611fda576040517f08c379a00000000000000000000000000000000000000000000000000000000081526004018080602001828103825260208152602001807f4f776e61626c653a2063616c6c6572206973206e6f7420746865206f776e657281525060200191505060405180910390fd5b600360149054906101000a900460ff161561205d576040517f08c379a00000000000000000000000000000000000000000000000000000000081526004018080602001828103825260108152602001807f616c726561647920756e5061757365640000000000000000000000000000000081525060200191505060405180910390fd5b6000600360146101000a81548160ff0219169083151502179055507f472cf038e2a5f33dbaa68760dbf94ab4e159535e6580c0ac63f8202c7c6c0bb260405160405180910390a1565b600360009054906101000a900473ffffffffffffffffffffffffffffffffffffffff1681565b6000808211612143576040517f08c379a000000000000000000000000000000000000000000000000000000000815260040180806020018281038252601a8152602001807f536166654d6174683a206469766973696f6e206279207a65726f00000000000081525060200191505060405180910390fd5b81838161214c57fe5b04905092915050565b60008083141561216857600090506121d5565b600082840290508284828161217957fe5b04146121d0576040517f08c379a00000000000000000000000000000000000000000000000000000000081526004018080602001828103825260218152602001806129eb6021913960400191505060405180910390fd5b809150505b92915050565b600080828401905083811015612259576040517f08c379a000000000000000000000000000000000000000000000000000000000815260040180806020018281038252601b8152602001807f536166654d6174683a206164646974696f6e206f766572666c6f77000000000081525060200191505060405180910390fd5b8091505092915050565b6000600360009054906101000a900473ffffffffffffffffffffffffffffffffffffffff1673ffffffffffffffffffffffffffffffffffffffff166370a08231306040518263ffffffff1660e01b8152600401808273ffffffffffffffffffffffffffffffffffffffff16815260200191505060206040518083038186803b1580156122ee57600080fd5b505afa158015612302573d6000803e3d6000fd5b505050506040513d602081101561231857600080fd5b810190808051906020019092919050505090508082111561240757600360009054906101000a900473ffffffffffffffffffffffffffffffffffffffff1673ffffffffffffffffffffffffffffffffffffffff1663a9059cbb84836040518363ffffffff1660e01b8152600401808373ffffffffffffffffffffffffffffffffffffffff16815260200182815260200192505050602060405180830381600087803b1580156123c657600080fd5b505af11580156123da573d6000803e3d6000fd5b505050506040513d60208110156123f057600080fd5b8101908080519060200190929190505050506124d7565b600360009054906101000a900473ffffffffffffffffffffffffffffffffffffffff1673ffffffffffffffffffffffffffffffffffffffff1663a9059cbb84846040518363ffffffff1660e01b8152600401808373ffffffffffffffffffffffffffffffffffffffff16815260200182815260200192505050602060405180830381600087803b15801561249a57600080fd5b505af11580156124ae573d6000803e3d6000fd5b505050506040513d60208110156124c457600080fd5b8101908080519060200190929190505050505b505050565b600033905090565b6125818363a9059cbb60e01b8484604051602401808373ffffffffffffffffffffffffffffffffffffffff16815260200182815260200192505050604051602081830303815290604052907bffffffffffffffffffffffffffffffffffffffffffffffffffffffff19166020820180517bffffffffffffffffffffffffffffffffffffffffffffffffffffffff838183161783525050505061260f565b505050565b60008082116125fd576040517f08c379a00000000000000000000000000000000000000000000000000000000081526004018080602001828103825260188152602001807f536166654d6174683a206d6f64756c6f206279207a65726f000000000000000081525060200191505060405180910390fd5b81838161260657fe5b06905092915050565b6060612671826040518060400160405280602081526020017f5361666545524332303a206c6f772d6c6576656c2063616c6c206661696c65648152508573ffffffffffffffffffffffffffffffffffffffff166126fe9092919063ffffffff16565b90506000815111156126f95780806020019051602081101561269257600080fd5b81019080805190602001909291905050506126f8576040517f08c379a000000000000000000000000000000000000000000000000000000000815260040180806020018281038252602a815260200180612a0c602a913960400191505060405180910390fd5b5b505050565b606061270d8484600085612716565b90509392505050565b606082471015612771576040517f08c379a00000000000000000000000000000000000000000000000000000000081526004018080602001828103825260268152602001806129c56026913960400191505060405180910390fd5b61277a856128bf565b6127ec576040517f08c379a000000000000000000000000000000000000000000000000000000000815260040180806020018281038252601d8152602001807f416464726573733a2063616c6c20746f206e6f6e2d636f6e747261637400000081525060200191505060405180910390fd5b600060608673ffffffffffffffffffffffffffffffffffffffff1685876040518082805190602001908083835b6020831061283c5780518252602082019150602081019050602083039250612819565b6001836020036101000a03801982511681845116808217855250505050505090500191505060006040518083038185875af1925050503d806000811461289e576040519150601f19603f3d011682016040523d82523d6000602084013e6128a3565b606091505b50915091506128b38282866128d2565b92505050949350505050565b600080823b905060008111915050919050565b606083156128e257829050612997565b6000835111156128f55782518084602001fd5b816040517f08c379a00000000000000000000000000000000000000000000000000000000081526004018080602001828103825283818151815260200191508051906020019080838360005b8381101561295c578082015181840152602081019050612941565b50505050905090810190601f1680156129895780820380516001836020036101000a031916815260200191505b509250505060405180910390fd5b939250505056fe4f776e61626c653a206e6577206f776e657220697320746865207a65726f2061646472657373416464726573733a20696e73756666696369656e742062616c616e636520666f722063616c6c536166654d6174683a206d756c7469706c69636174696f6e206f766572666c6f775361666545524332303a204552433230206f7065726174696f6e20646964206e6f742073756363656564a2646970667358221220161eab2cde69530eff345f07144d1ede40afba1c564c8fca8d45e97b15c1aa6064736f6c634300060c0033",
  "immutableReferences": {},
  "source": "// SPDX-License-Identifier: MIT\npragma solidity 0.6.12;\n\nimport \"@openzeppelin/contracts/math/SafeMath.sol\";\nimport \"@openzeppelin/contracts/access/Ownable.sol\";\nimport \"@openzeppelin/contracts/token/ERC20/IERC20.sol\";\nimport \"@openzeppelin/contracts/token/ERC20/SafeERC20.sol\";\n\ncontract Roulette is Ownable {\n    using SafeMath for uint256;\n    using SafeERC20 for IERC20;\n\n    uint256 public currentRound; // current round\n    uint256 public maxGameDuration = 1 hours;\n    IERC20 public token;\n    bool private paused;\n\n    struct Round {\n        uint256 gameId;\n        uint256 startTimestamp;\n        uint256 closeTimestamp;\n        uint256 rewardAmount;\n        uint256 totalWinner;\n    }\n\n    struct User {\n        mapping(uint256 => twist) spinCount; // total spin count\n        uint256[] participatedRound;\n        uint256 lastRound; // last round participted\n        uint256 lastIndex; // last reward withdraw index\n    }\n\n    struct twist {\n        uint256 red; // 0\n        uint256 blue; //1\n    }\n    mapping(uint256 => Round) public roundInfo;\n    mapping(address => User) public userInfo;\n    mapping(address => bool) public operator;\n\n    event AddRound(uint256 gameId, uint256 totalReward);\n    event Spin(address user, uint256 gameId, uint256 position);\n    event Claim(address user, uint256 amount);\n    event Paused();\n    event UnPaused();\n    event SetOperator(address addr);\n\n    modifier onlyOperatorOrOwner() {\n        require(\n            operator[msg.sender] == true || owner() == msg.sender,\n            \"Not operator/owner\"\n        );\n        _;\n    }\n\n    modifier isPaused() {\n        require(!paused, \"contract Locked\");\n        _;\n    }\n\n    constructor(IERC20 _token) public {\n        token = _token;\n    }\n\n    function addRound(uint256 amount) external onlyOperatorOrOwner {\n        // Increment currentRound\n        currentRound = currentRound + 1;\n        roundInfo[currentRound] = Round(\n            currentRound,\n            block.timestamp,\n            block.timestamp + maxGameDuration,\n            amount,\n            0\n        );\n        emit AddRound(currentRound, amount);\n    }\n\n    function spin() external isPaused {\n        address user = msg.sender;\n        require(\n            roundInfo[currentRound].closeTimestamp > block.timestamp,\n            \"Closed\"\n        );\n\n        bytes32 hashOfRandom = keccak256(\n            abi.encodePacked(block.number, block.timestamp, currentRound)\n        );\n        uint256 winningNumber = uint256(hashOfRandom).mod(2);\n        if (winningNumber == 0) {\n            userInfo[user].spinCount[currentRound].red =\n                userInfo[user].spinCount[currentRound].red +\n                1;\n        } else {\n            userInfo[user].spinCount[currentRound].blue =\n                userInfo[user].spinCount[currentRound].blue +\n                1;\n            roundInfo[currentRound].totalWinner =\n                roundInfo[currentRound].totalWinner +\n                1;\n        }\n        if (userInfo[user].lastRound != currentRound) {\n            userInfo[user].lastRound = currentRound;\n            userInfo[user].participatedRound.push(currentRound);\n        }\n\n        emit Spin(user, currentRound, winningNumber);\n    }\n\n    function claim() external isPaused {\n        address user = msg.sender;\n        require(\n            roundInfo[currentRound].closeTimestamp < block.timestamp,\n            \"Closed\"\n        );\n        require(\n            userInfo[user].participatedRound.length > 0,\n            \"Only participants\"\n        );\n        require(\n            userInfo[user].participatedRound.length > userInfo[user].lastIndex,\n            \"No pending\"\n        );\n\n        uint256 amount;\n        uint256 roundId;\n        for (\n            uint256 i = userInfo[user].lastIndex;\n            i < userInfo[user].participatedRound.length;\n            i++\n        ) {\n            roundId = userInfo[user].participatedRound[i];\n            uint256 count = userInfo[user].spinCount[roundId].blue;\n            if (count > 0) {\n                amount = amount.add(\n                    count.mul(\n                        (\n                            roundInfo[roundId].rewardAmount.div(\n                                roundInfo[roundId].totalWinner\n                            )\n                        )\n                    )\n                );\n            }\n        }\n\n        safeTransfer(user, amount);\n        emit Claim(user, amount);\n    }\n\n    // Safe transfer function\n    function safeTransfer(address _to, uint256 _amount) private {\n        uint256 _rewardBal = token.balanceOf(address(this));\n        if (_amount > _rewardBal) {\n            token.transfer(_to, _rewardBal);\n        } else {\n            token.transfer(_to, _amount);\n        }\n    }\n\n    function getUserInfo(address user)\n        external\n        view\n        returns (\n            uint256[] memory totalParticipatedRound,\n            uint256 lastRound,\n            uint256 lastIndex\n        )\n    {\n        totalParticipatedRound = userInfo[user].participatedRound;\n        lastRound = userInfo[user].lastRound;\n        lastIndex = userInfo[user].lastIndex;\n\n        return (totalParticipatedRound, lastRound, lastIndex);\n    }\n\n    function getUserTotalSpin(address user, uint256 gameID)\n        external\n        view\n        returns (uint256 red, uint256 blue)\n    {\n        red = userInfo[user].spinCount[gameID].red;\n        blue = userInfo[user].spinCount[gameID].blue;\n        return (red, blue);\n    }\n\n    function pause() external onlyOwner {\n        require(!paused, \"already paused\");\n        paused = true;\n        emit Paused();\n    }\n\n    function unPause() external onlyOwner {\n        require(!paused, \"already unPaused\");\n        paused = false;\n        emit UnPaused();\n    }\n\n    function setOperator(address _addr) external onlyOwner {\n        require(_addr != address(0x000), \"zero address\");\n        operator[_addr] = true;\n        emit SetOperator(_addr);\n    }\n\n    function setRewardToken(address _token) external onlyOwner {\n        require(_token != address(0x000), \"zero address\");\n        token = IERC20(_token);\n    }\n\n    function setMaxGameDuration(uint256 _duration) external onlyOwner {\n        maxGameDuration = _duration;\n    }\n\n    function inCaseTokensGetStuck(address receiver, address[] memory _token) external onlyOwner {\n        uint256 amount;\n        if(receiver != address(0x000)){\n            for (uint256 i = 0; i < _token.length; i++) {\n                amount = IERC20(_token[i]).balanceOf(address(this));\n                IERC20(_token[i]).safeTransfer(msg.sender, amount);\n            }\n        }\n    }\n}\n",
  "sourcePath": "E:\\Work\\Projects\\20220216_spiderswap_Moroco\\MoroccoSwap\\contracts\\game\\Roulette.sol",
  "compiler": {
    "name": "solc",
    "version": "0.6.12+commit.27d51765.Emscripten.clang"
  },
  "schemaVersion": "3.4.3",
  "updatedAt": "2022-04-08T09:36:12.793Z",
  "devdoc": {
    "kind": "dev",
    "methods": {
      "owner()": {
        "details": "Returns the address of the current owner."
      },
      "renounceOwnership()": {
        "details": "Leaves the contract without owner. It will not be possible to call `onlyOwner` functions anymore. Can only be called by the current owner. NOTE: Renouncing ownership will leave the contract without an owner, thereby removing any functionality that is only available to the owner."
      },
      "transferOwnership(address)": {
        "details": "Transfers ownership of the contract to a new account (`newOwner`). Can only be called by the current owner."
      }
    },
    "version": 1
  },
  "userdoc": {
    "kind": "user",
    "methods": {},
    "version": 1
  }
}